:100000000C948E000C94AB000C94AB000C94AB00E1
:100010000C94AB000C94AB000C94AB000C94AB00B4
:100020000C94AB000C94AB000C94AB000C94AB00A4
:100030000C94AB000C94AB000C94AB000C94AB0094
:100040000C94AB000C94AB000C94AB000C94AB0084
:100050000C94AB000C94AB000C94AB000C94AB0074
:100060000C94AB000C94AB000C94AB000C94AB0064
:100070000C94AB000C94AB000C94AB000C94AB0054
:100080000C94AB000C94AB000C94AB000C94AB0044
:100090000C94AB000C94AB000C94AB000C94AB0034
:1000A0000C94AB000C94AB000C94AB000C94AB0024
:1000B0000C94AB000C94AB000C94AB000C94AB0014
:1000C0000C94AB000C94AB000C94AB0048656C6CCA
:1000D0006F20576F726C64210A0D00416464722EA8
:1000E000204F666673657420202030202031202048
:1000F0003220203320203420203520203620203785
:100100002020382020392020412020422020432058
:1001100020442020452020460A0D000011241FBE47
:10012000CFEFD8E0DEBFCDBF11E0A0E0B1E0E0EC62
:10013000FDE002C005900D92A634B107D9F721E089
:10014000A6E4B1E001C01D92A639B207E1F70E9412
:1001500056010C94DE060C940000FC012181622BF8
:1001600061830895FC012281622B62830895FC0162
:10017000928160956923628308950E94AD0008957D
:100180000E94B20008950E94B70008958F929F9236
:10019000AF92BF92EF92FF920F931F93CF93DF9393
:1001A000CDB7DEB72B970FB6F894DEBF0FBECDBF2D
:1001B0007C0180E008C0E1E0F0E0EC0FFD1FE80FFB
:1001C000F11D10828F5F8B30B0F388248A94982CB5
:1001D000540100E0C7010E943603182F80ED810F03
:1001E0008A3068F4612FC7010E942F03E1E0F0E03C
:1001F000EC0FFD1FE00FF11D10830F5F2DC01830B5
:1002000011F01F37A9F40150E1E0F0E0EC0FFD1F01
:10021000E00FF11D108268E0C7010E942F0360E229
:10022000C7010E942F0368E0C7010E942F0314C07A
:100230001D3021F01A3011F01E3271F4CE010196FA
:100240000E94B8034B015C016DE0C7010E942F03BF
:100250006AE0C7010E942F030A3071F4CE010196B3
:100260000E94B8034B015C016DE0C7010E942F039F
:100270006AE0C7010E942F038FEF88169806A80630
:10028000B80609F4A7CFC501B4012B960FB6F894B0
:10029000DEBF0FBECDBFDF91CF911F910F91FF90B9
:1002A000EF90BF90AF909F908F900895CF93DF9382
:1002B000CDB7DEB7A9970FB6F894DEBF0FBECDBF9E
:1002C00089E2E7E0F1E0DE01119601900D928A9556
:1002D000E1F760E886E290E00E94C00060E886E214
:1002E00090E00E94BD0068E083E290E00E94C000C0
:1002F00068E083E290E00E94BD0060E18CE290E063
:100300000E94C00060E18CE290E00E94BD0060E8C5
:1003100080E290E00E94C00060E880E290E00E94ED
:10032000BD0060E875E288EC90E00E9405030E9441
:100330003C03082F192F482F592F60E08CEC90E0D8
:100340000E943F03402F512F60E088EC90E00E9414
:100350006503AE014F5F5F4F62E370E088EC90E0B1
:100360000E94D80288EC90E00E943603682F88EC47
:1003700090E00E942F0360E886E290E00E94C300B4
:1003800065E588EC90E00E942F032FEF81EE94E06A
:10039000215080409040E1F700C0000060E886E214
:1003A00090E00E94C0002FEF81EF9BE2215080403F
:1003B0009040E1F700C0000068E083E290E00E9416
:1003C000C3006DE088EC90E00E942F032FEF81EED8
:1003D00094E0215080409040E1F700C0000068E0C8
:1003E00083E290E00E94C0002FEF81EF9BE221505A
:1003F00080409040E1F700C0000060E18CE290E0B6
:100400000E94C3006AE088EC90E00E942F032FEF67
:1004100081EE94E0215080409040E1F700C0000060
:1004200060E18CE290E00E94C0002FEF81EF9BE240
:10043000215080409040E1F700C0000060E880E279
:1004400090E00E94C3006AE388EC90E00E942F03D2
:100450002FEF81EE94E0215080409040E1F700C002
:10046000000060E880E290E00E94C0002FEF81EF82
:100470009BE2215080409040E1F700C0000088ECF2
:1004800090E00E94C6009F938F937F936F9380E0CC
:1004900091E09F938F931F930F930E94F403402F3B
:1004A000512F60E088EC90E00E9465030FB6F8944D
:1004B000DEBF0FBECDBF56CFAF92BF92DF92EF929D
:1004C000FF920F931F93CF93DF938C017B015A010F
:1004D0000E943C03D82ED92FEA0CFB1CFF92EF920E
:1004E00080E391E09F938F93DF93DF920E94F40368
:1004F0004D2D5D2F60E0C8010E946503BF92AF9251
:1005000084E391E09F938F93DF93DF920E94F40343
:100510004D2D5D2F60E0C8010E9465038DB79EB729
:100520000C960FB6F8949EBF0FBE8DBFC0E01BC0E7
:10053000F701EC0FF11D80811F928F938EE391E004
:100540009F938F93DF93DF920E94F4034D2D5D2FD5
:1005500060E0C8010E946503CF5F0F900F900F907D
:100560000F900F900F90C03118F3C0E00DC0F7014D
:10057000EC0FF11D608180EE860F803608F06EE290
:10058000C8010E942F03CF5FC03188F36DE0C8011E
:100590000E942F036AE0C8010E942F03DF91CF91D0
:1005A0001F910F91FF90EF90DF90BF90AF90089553
:1005B000CF92DF92EF92FF920F931F93CF93DF932F
:1005C0008C016B017A010E943C03EC01AC0160E0FC
:1005D0008BED90E00E943F03AE0160E0C8010E94F5
:1005E0006503C0E0D0E0AE01B701C8010E945C0223
:1005F0006096CC15DD05B8F3DF91CF911F910F9177
:10060000FF90EF90DF90CF900895CF93DF93EC01B0
:10061000CB01A0E0B0E0880F991FAA1FBB1F880F75
:10062000991FAA1FBB1F9C01AD01220F331F441F3E
:10063000551F220F331F441F551F60E074E284EFE3
:1006400090E00E949603215031093D832C8318824B
:1006500086E08A8388E18983DF91CF910895FC0148
:10066000908195FFFDCF668380E00895FC01908125
:100670009923ECF78681089586E491E00895CF935D
:10068000DF93DC0161111AC0262F30E0FD01E20F7B
:10069000F31FE491EA01C20FD31FE8836F5FE111FA
:1006A000F3CF0FC0292F30E0FD01E20FF31FE491DB
:1006B000EA01C20FD31FE8839F5F01C090E0961745
:1006C00088F3862FDF91CF910895EF92FF920F93D9
:1006D0001F93CF93DF937C01062FEA01611115C0B0
:1006E000688105C0C7010E942F03219668816111AE
:1006F000F9CF15C0FE01E10FF11D17FDFA956081DC
:10070000C7010E942F031F5F01C010E0202F30E0BF
:10071000812F012E000C990B821793075CF3DF9158
:10072000CF911F910F91FF90EF900895A1E21A2EA3
:10073000AA1BBB1BFD010DC0AA1FBB1FEE1FFF1F85
:10074000A217B307E407F50720F0A21BB30BE40BD5
:10075000F50B661F771F881F991F1A9469F760951C
:100760007095809590959B01AC01BD01CF010895D6
:100770001F93FC0199278827BC01E894119110323E
:10078000E9F3193010F01E30C8F31B3251F01D325E
:1007900049F4689406C00E94DF03610F711D811D3A
:1007A000911D119110531A30B0F33EF4909580953D
:1007B000709561957F4F8F4F9F4F1F910895592FCF
:1007C000482F372F262F660F771F881F991F660F18
:1007D000771F881F991F620F731F841F951F660F55
:1007E000771F881F991F0895AEE0B0E0EAEFF3E0AD
:1007F0000C94B5060D891E8986E08C831A830983C3
:100800008FEF9FE79E838D83AE01475E5F4F6F89B9
:10081000788DCE0101960E941604EF81F885E00FD5
:10082000F11F10822E96E4E00C94D106ABE0B0E00C
:10083000ECE1F4E00C94A7066C017B018A01FC0159
:1008400017821682838181FFCCC1CE0101963C01C3
:10085000F6019381F70193FD859193FF81917F01CB
:10086000882309F4BAC1853239F493FD859193FF49
:1008700081917F01853229F4B60190E00E940D0636
:10088000E7CF912C212C312CFFE1F315D8F08B32DE
:1008900079F038F4803279F08332A1F4232D20618D
:1008A0001DC08D3261F0803369F4232D216016C0A4
:1008B000832D8260382EE32DE4603E2E2AC0F32D76
:1008C000F8601DC037FC2DC020ED280F2A3040F005
:1008D0008E32B9F436FC81C1232D2064322E19C02A
:1008E00036FE06C08AE0989E200D1124922E11C07B
:1008F000EAE02E9E200D1124222EF32DF0623F2ED1
:1009000008C08C3621F4832D8068382E02C08836CA
:1009100041F4F70193FD859193FF81917F0181114E
:10092000B3CF982F9F7D9554933028F40C5F1F4FC1
:100930009FE399830DC0833631F0833771F083359F
:1009400009F059C021C0F801808189830E5F1F4FD3
:1009500088248394912C530113C02801F2E04F0E98
:10096000511CF801A080B18036FE03C0692D70E0F3
:1009700002C06FEF7FEFC5010E9402064C018201A9
:10098000F32DFF773F2E16C0280122E0420E511CA6
:10099000F801A080B18036FE03C0692D70E002C06E
:1009A0006FEF7FEFC5010E94F7054C01F32DF06852
:1009B0003F2E820133FC1BC0822D90E088169906E1
:1009C000B0F4B60180E290E00E940D062A94F4CFC4
:1009D000F50137FC859137FE81915F01B60190E00A
:1009E0000E940D0621102A9421E0821A9108811498
:1009F000910471F7E8C0843611F0893641F5F801A9
:100A000037FE07C060817181828193810C5F1F4F27
:100A100008C060817181072E000C880B990B0E5F56
:100A20001F4FF32DFF763F2E97FF09C090958095BD
:100A3000709561957F4F8F4F9F4FF0683F2E2AE052
:100A400030E0A3010E944906882E861845C08537EC
:100A500031F4232D2F7EB22E2AE030E025C0932DD5
:100A6000997FB92E8F36C1F018F4883579F0B5C06A
:100A7000803719F0883721F0B0C0E92FE061BE2E31
:100A8000B4FE0DC0FB2DF460BF2E09C034FE0AC0B9
:100A9000292F2660B22E06C028E030E005C020E1F4
:100AA00030E002C020E132E0F801B7FE07C060810B
:100AB0007181828193810C5F1F4F06C060817181BB
:100AC00080E090E00E5F1F4FA3010E944906882E30
:100AD0008618FB2DFF773F2E36FE0DC0232D2E7F6F
:100AE000A22E891458F434FE0BC032FC09C0832DA9
:100AF0008E7EA82E05C0B82CA32C03C0B82C01C034
:100B0000B92CA4FE0FC0FE01E80DF11D80818033D9
:100B100021F49A2D997EA92E09C0A2FE06C0B39495
:100B2000B39404C08A2D867809F0B394A3FC11C055
:100B3000A0FE06C0B21488F4280C922C9B180EC09C
:100B4000B21460F4B60180E290E00E940D06B39406
:100B5000F7CFB21418F42B1802C0982C212CA4FE45
:100B600010C0B60180E390E00E940D06A2FE17C0FF
:100B7000A1FC03C088E790E002C088E590E0B601E0
:100B80000CC08A2D867859F0A1FE02C08BE201C00C
:100B900080E2A7FC8DE2B60190E00E940D06891468
:100BA00038F4B60180E390E00E940D069A94F7CFE6
:100BB0008A94F301E80DF11D8081B60190E00E9456
:100BC0000D068110F5CF222009F442CEB60180E255
:100BD00090E00E940D062A94F6CFF6018681978157
:100BE00002C08FEF9FEF2B96E2E10C94C306FC014D
:100BF0000590615070400110D8F7809590958E0F48
:100C00009F1F0895FC016150704001900110D8F7BA
:100C1000809590958E0F9F1F08950F931F93CF93EC
:100C2000DF93FB01238121FD03C08FEF9FEF2CC0D9
:100C300022FF16C046815781248135814217530710
:100C400044F4A081B1819D012F5F3F4F3183208308
:100C50008C93268137812F5F3F4F3783268314C0C3
:100C60008B01EC01FB010084F185E02D0995892BB6
:100C7000E1F6D80116968D919C91179701961796DB
:100C80009C938E931697CE01DF91CF911F910F9178
:100C90000895FA01AA27283051F1203181F1E89412
:100CA0006F936E7F6E5F7F4F8F4F9F4FAF4FB1E05F
:100CB0003ED0B4E03CD0670F781F891F9A1FA11D5A
:100CC000680F791F8A1F911DA11D6A0F711D811D5B
:100CD000911DA11D20D009F468943F912AE0269F20
:100CE00011243019305D3193DEF6CF010895462F7F
:100CF0004770405D4193B3E00FD0C9F7F6CF462F60
:100D00004F70405D4A3318F0495D31FD40524193C8
:100D100002D0A9F7EACFB4E0A69597958795779585
:100D20006795BA95C9F700976105710508959B010C
:100D3000AC010A2E06945795479537952795BA9595
:100D4000C9F7620F731F841F951FA01D08952F926E
:100D50003F924F925F926F927F928F929F92AF924B
:100D6000BF92CF92DF92EF92FF920F931F93CF9398
:100D7000DF93CDB7DEB7CA1BDB0B0FB6F894DEBF2F
:100D80000FBECDBF09942A88398848885F846E8455
:100D90007D848C849B84AA84B984C884DF80EE809F
:100DA000FD800C811B81AA81B981CE0FD11D0FB6A8
:100DB000F894DEBF0FBECDBFED010895F894FFCFCC
:100DC000256C75200A0D00546869732069732061D1
:100DD00020737472696E6720696E205352414D20F2
:100DE0002D20526F67657220596F756E67657200AE
:100DF00025702000307825342E34582020002532EC
:060E00002E325820000014
:00000001FF
