:100000000C9486000C94A3000C94A3000C94A30001
:100010000C94A3000C94A3000C94A3000C94A300D4
:100020000C94A3000C94A3000C94A3000C94A300C4
:100030000C94A3000C94A3000C94A3000C94A300B4
:100040000C94A3000C94A3000C94A3000C94A300A4
:100050000C94A3000C94A3000C94A3000C94A30094
:100060000C94A3000C94A3000C94A3000C94A30084
:100070000C94A3000C94A3000C94A3000C94A30074
:100080000C94A3000C94A3000C94A3000C94A30064
:100090000C94A3000C94A3000C94A3000C94A30054
:1000A0000C94A3000C94A3000C94A3000C94A30044
:1000B0000C94A3000C94A3000C94A3000C94A30034
:1000C0000C94A3000C94A3000C94A30041646472EC
:1000D0002E204F666673657420202030202031204A
:1000E00020322020332020342020352020362020AC
:1000F0003720203820203920204120204220204352
:100100002020442020452020460A0D0011241FBE37
:10011000CFEFD8E0DEBFCDBF11E0A0E0B1E0E0E37B
:10012000F1E102C005900D92AE35B107D9F721E09B
:10013000AEE5B1E001C01D92AE3AB207E1F70E9410
:1001400045010C9496080C940000FC012181622B5F
:1001500061830895FC012281622B62830895FC0172
:10016000928160956923628308958F929F92AF92E6
:10017000BF92EF92FF920F931F93CF93DF93CDB770
:10018000DEB72B970FB6F894DEBF0FBECDBF7C0154
:1001900080E008C0E1E0F0E0EC0FFD1FE80FF11D8A
:1001A00010828F5F8B30B0F388248A94982C54018E
:1001B00000E0C7010E94EE04182F80ED810F8A3005
:1001C00068F4612FC7010E94E704E1E0F0E0EC0F62
:1001D000FD1FE00FF11D10830F5F2DC0183011F0CF
:1001E0001F37A9F40150E1E0F0E0EC0FFD1FE00F34
:1001F000F11D108268E0C7010E94E70460E2C701B8
:100200000E94E70468E0C7010E94E70414C01D30A3
:1002100021F01A3011F01E3271F4CE0101960E94C5
:1002200070054B015C016DE0C7010E94E7046AE0C4
:10023000C7010E94E7040A3071F4CE0101960E94C2
:1002400070054B015C016DE0C7010E94E7046AE0A4
:10025000C7010E94E7048FEF88169806A806B80623
:1002600009F4A7CFC501B4012B960FB6F894DEBFF1
:100270000FBECDBFDF91CF911F910F91FF90EF90F7
:10028000BF90AF909F908F900895CF93DF93CDB79D
:10029000DEB7D2500FB6F894DEBF0FBECDBF0E94BE
:1002A000F404082F192F60E875E288EC90E00E94B2
:1002B000BD0440E85AE166E070E08CE490E00E9402
:1002C000A8030E94690240E458E76DE771E08CE4FE
:1002D00090E00E94A80382E2E0E0F1E0A02FB12FBD
:1002E00001900D928A95E1F7402F512F60E088EC44
:1002F00090E00E941D0588EC90E00E94B500C62E9B
:10030000D72EE82EF92E9F938F937F936F9382E2DF
:1003100091E09F938F931F930F930E94AC05402F02
:10032000512F60E088EC90E00E941D0560E183E2BF
:1003300090E00E9461024C2D5D2D6E2D7F2D81E19C
:100340000E943604BE016F5F7F4F80E092E00E9402
:100350006203AE014F5F5F4F60E072E088EC90E0B7
:100360000E9434020FB6F894DEBF0FBECDBFB3CFEC
:10037000AF92BF92DF92EF92FF920F931F93CF93B2
:10038000DF938C017B015A010E94F404D82ED92FEF
:10039000EA0CFB1CFF92EF9289E491E09F938F930C
:1003A000DF93DF920E94AC054D2D5D2F60E0C80108
:1003B0000E941D05BF92AF928DE491E09F938F93B1
:1003C000DF93DF920E94AC054D2D5D2F60E0C801E8
:1003D0000E941D058DB79EB70C960FB6F8949EBF70
:1003E0000FBE8DBFC0E01BC0F701EC0FF11D808177
:1003F0001F928F9387E591E09F938F93DF93DF9216
:100400000E94AC054D2D5D2F60E0C8010E941D05C6
:10041000CF5F0F900F900F900F900F900F90C03103
:1004200018F3C0E00DC0F701EC0FF11D608180EE04
:10043000860F803608F06EE2C8010E94E704CF5FA5
:10044000C03188F36DE0C8010E94E7046AE0C8018A
:100450000E94E704DF91CF911F910F91FF90EF90E1
:10046000DF90BF90AF900895CF92DF92EF92FF920E
:100470000F931F93CF93DF938C016B017A010E943E
:10048000F404EC01AC0160E08CEC90E00E94F70415
:10049000AE0160E0C8010E941D05C0E0D0E0AE01E1
:1004A000B701C8010E94B8016096CC15DD05B8F30C
:1004B000DF91CF911F910F91FF90EF90DF90CF9040
:1004C000089570E00E94AF00089570E00E94AA00B5
:1004D0000895FF920F931F93CF93DF9300D000D026
:1004E0001F92CDB7DEB760E170E083E290E00E943A
:1004F000A50060E183E290E00E94650240E85AE1D5
:1005000066E070E08CE490E00E94A80310E006C072
:100510006FEF8CE490E00E942F041F5F1A30C0F34D
:1005200060E183E290E00E94610240E050E0BA01A5
:1005300080E00E943604182F813039F0BE016F5FD1
:100540007F4F81E00E947A04182F60E183E290E0FF
:100550000E94650211112EC060E183E290E00E94CA
:1005600061024AEA51E060E070E088E00E943604EF
:10057000082F811107C0BE016F5F7F4F85E00E9489
:100580007A04082F60E183E290E00E946502011185
:100590000BC08981813041F48C81813051F48D818F
:1005A0008A3A41F01DEF06C08981853019F0102F7D
:1005B00001C01DEF111118C060E183E290E00E94BC
:1005C000610240E050E0BA018AE30E9436048111E2
:1005D00006C0BE016F5F7F4F85E00E947A0460E134
:1005E00083E290E00E94650211113CC060E183E269
:1005F00090E00E946102F12E00E040E050E0BA017C
:1006000087E30E943604811106C0BE016F5F7F4FF1
:1006100081E00E947A04811115C08981813091F4B2
:1006200040E050E060E070E489E20E943604BE01E0
:100630006F5F7F4F81E00E947A048981823040F4AD
:100640000F5FF12E8981882339F00111D6CF04C0C4
:100650000F2EFEEFFF2EF02D60E183E290E00E946E
:1006600065021F2D111122C060E183E290E00E941B
:10067000610240E050E0BA018AE30E943604082F8C
:10068000811107C0BE016F5F7F4F85E00E947A0431
:10069000082F60E183E290E00E946502011106C02C
:1006A0008981813019F48D8180FF1FEF812F0F9098
:1006B0000F900F900F900F90DF91CF911F910F919E
:1006C000FF900895EF92FF920F931F93CF93DF93C4
:1006D0008C017B01C0E06FEF8CE490E00E942F045E
:1006E000CF5F8F3F11F4C111F6CF81112AC06FEF98
:1006F0008CE490E00E942F048F3FC9F38E3F09F5F0
:100700000BC06FEF8CE490E00E942F04F701EC0F18
:10071000FD1F8083219602C0C0E0D0E0C017D10742
:1007200080F36FEF8CE490E00E942F046FEF8CE475
:1007300090E00E942F046FEF8CE490E00E942F0461
:1007400000C0DF91CF911F910F91FF90EF9008951E
:100750001F93CF93DF93EC019A01AB0160E074E249
:1007600084EF90E00E944E0522303105410551058D
:1007700030F480E5888381E0898310E03FC0243035
:1007800031054105510528F480E58883198210E080
:1007900035C0283031054105510530F481E58883A5
:1007A00081E0898310E02AC02031310541055105DF
:1007B00028F481E58883198210E020C020323105B9
:1007C0004105510530F482E5888381E0898310E09A
:1007D00015C0203431054105510528F482E5888390
:1007E000198210E00BC0203831054105510528F46D
:1007F00083E58883198210E001C01FEFCC34D10556
:10080000A9F460E283E290E00E94AA0060E283E241
:1008100090E00E94A50060E883E290E00E94AF00B3
:1008200060E883E290E00E94A50014C068E08CE2DA
:1008300090E00E94AA0068E08CE290E00E94A5008F
:1008400060E889E290E00E94AF0060E889E290E011
:100850000E94A500812FDF91CF911F910895FC0187
:10086000628391819923ECF782810895CF92DF9280
:10087000EF92FF92CF93DF938034A0F56A017B0162
:10088000D82F682F60648CE490E00E942F04C0E0B1
:1008900018C023E030E02C1B3109220F331F220F38
:1008A000331F220F331FC701B60104C096958795E9
:1008B000779567952A95D2F78CE490E00E942F04F3
:1008C000CF5FC43030F3DD2321F0D83021F467E866
:1008D00003C065E901C061E08CE490E00E942F0450
:1008E00080E001C08FEFDF91CF91FF90EF90DF901C
:1008F000CF900895FF920F931F93CF93DF93F82E1D
:100900008B01C0E06FEF8CE490E00E942F04CF5F7A
:100910008F3F11F4C111F6CFCC2311F1982F9E7F98
:1009200021F0F8018083CEEF1CC0F8018083F1E054
:10093000FF1568F0C0E015C06FEF8CE490E00E94F6
:100940002F04F801EC0FFD1F8083219602C0C1E047
:10095000D0E08F2D90E0C817D90770F3C0E001C038
:10096000CAEF6FEF8CE490E00E942F048C2FDF9190
:10097000CF911F910F91FF900895CF93DF93EC01DA
:10098000CB01A0E0B0E0880F991FAA1FBB1F880F02
:10099000991FAA1FBB1F9C01AD01220F331F441FCB
:1009A000551F220F331F441F551F60E074E284EF70
:1009B00090E00E944E05215031093D832C8318821E
:1009C00086E08A8388E18983DF91CF910895FC01D5
:1009D000908195FFFDCF668380E00895FC019081B2
:1009E0009923ECF7868108958EE591E00895CF93E1
:1009F000DF93DC0161111AC0262F30E0FD01E20F08
:100A0000F31FE491EA01C20FD31FE8836F5FE11186
:100A1000F3CF0FC0292F30E0FD01E20FF31FE49167
:100A2000EA01C20FD31FE8839F5F01C090E09617D1
:100A300088F3862FDF91CF910895EF92FF920F9365
:100A40001F93CF93DF937C01062FEA01611115C03C
:100A5000688105C0C7010E94E70421966881611181
:100A6000F9CF15C0FE01E10FF11D17FDFA95608168
:100A7000C7010E94E7041F5F01C010E0202F30E093
:100A8000812F012E000C990B821793075CF3DF91E5
:100A9000CF911F910F91FF90EF900895A1E21A2E30
:100AA000AA1BBB1BFD010DC0AA1FBB1FEE1FFF1F12
:100AB000A217B307E407F50720F0A21BB30BE40B62
:100AC000F50B661F771F881F991F1A9469F76095A9
:100AD0007095809590959B01AC01BD01CF01089563
:100AE0001F93FC0199278827BC01E89411911032CB
:100AF000E9F3193010F01E30C8F31B3251F01D32EB
:100B000049F4689406C00E949705610F711D811D0C
:100B1000911D119110531A30B0F33EF490958095C9
:100B2000709561957F4F8F4F9F4F1F910895592F5B
:100B3000482F372F262F660F771F881F991F660FA4
:100B4000771F881F991F620F731F841F951F660FE1
:100B5000771F881F991F0895AEE0B0E0E2EBF5E043
:100B60000C946D080D891E8986E08C831A83098395
:100B70008FEF9FE79E838D83AE01475E5F4F6F8946
:100B8000788DCE0101960E94CE05EF81F885E00FA9
:100B9000F11F10822E96E4E00C948908ABE0B0E0DF
:100BA000E4EDF5E00C945F086C017B018A01FC0127
:100BB00017821682838181FFCCC1CE0101963C0150
:100BC000F6019381F70193FD859193FF81917F0158
:100BD000882309F4BAC1853239F493FD859193FFD6
:100BE00081917F01853229F4B60190E00E94C5070A
:100BF000E7CF912C212C312CFFE1F315D8F08B326B
:100C000079F038F4803279F08332A1F4232D206119
:100C10001DC08D3261F0803369F4232D216016C030
:100C2000832D8260382EE32DE4603E2E2AC0F32D02
:100C3000F8601DC037FC2DC020ED280F2A3040F091
:100C40008E32B9F436FC81C1232D2064322E19C0B6
:100C500036FE06C08AE0989E200D1124922E11C007
:100C6000EAE02E9E200D1124222EF32DF0623F2E5D
:100C700008C08C3621F4832D8068382E02C0883657
:100C800041F4F70193FD859193FF81917F018111DB
:100C9000B3CF982F9F7D9554933028F40C5F1F4F4E
:100CA0009FE399830DC0833631F0833771F083352C
:100CB00009F059C021C0F801808189830E5F1F4F60
:100CC00088248394912C530113C02801F2E04F0E25
:100CD000511CF801A080B18036FE03C0692D70E080
:100CE00002C06FEF7FEFC5010E94BA074C0182017D
:100CF000F32DFF773F2E16C0280122E0420E511C33
:100D0000F801A080B18036FE03C0692D70E002C0FA
:100D10006FEF7FEFC5010E94AF074C01F32DF06824
:100D20003F2E820133FC1BC0822D90E0881699066D
:100D3000B0F4B60180E290E00E94C5072A94F4CF97
:100D4000F50137FC859137FE81915F01B60190E096
:100D50000E94C50721102A9421E0821A910881146B
:100D6000910471F7E8C0843611F0893641F5F80135
:100D700037FE07C060817181828193810C5F1F4FB4
:100D800008C060817181072E000C880B990B0E5FE3
:100D90001F4FF32DFF763F2E97FF09C0909580954A
:100DA000709561957F4F8F4F9F4FF0683F2E2AE0DF
:100DB00030E0A3010E940108882E861845C08537BF
:100DC00031F4232D2F7EB22E2AE030E025C0932D62
:100DD000997FB92E8F36C1F018F4883579F0B5C0F7
:100DE000803719F0883721F0B0C0E92FE061BE2EBE
:100DF000B4FE0DC0FB2DF460BF2E09C034FE0AC046
:100E0000292F2660B22E06C028E030E005C020E180
:100E100030E002C020E132E0F801B7FE07C0608197
:100E20007181828193810C5F1F4F06C06081718147
:100E300080E090E00E5F1F4FA3010E940108882E02
:100E40008618FB2DFF773F2E36FE0DC0232D2E7FFB
:100E5000A22E891458F434FE0BC032FC09C0832D35
:100E60008E7EA82E05C0B82CA32C03C0B82C01C0C0
:100E7000B92CA4FE0FC0FE01E80DF11D8081803366
:100E800021F49A2D997EA92E09C0A2FE06C0B39422
:100E9000B39404C08A2D867809F0B394A3FC11C0E2
:100EA000A0FE06C0B21488F4280C922C9B180EC029
:100EB000B21460F4B60180E290E00E94C507B394DA
:100EC000F7CFB21418F42B1802C0982C212CA4FED2
:100ED00010C0B60180E390E00E94C507A2FE17C0D3
:100EE000A1FC03C088E790E002C088E590E0B6016D
:100EF0000CC08A2D867859F0A1FE02C08BE201C099
:100F000080E2A7FC8DE2B60190E00E94C50789143B
:100F100038F4B60180E390E00E94C5079A94F7CFB9
:100F20008A94F301E80DF11D8081B60190E00E94E2
:100F3000C5078110F5CF222009F442CEB60180E228
:100F400090E00E94C5072A94F6CFF601868197812A
:100F500002C08FEF9FEF2B96E2E10C947B08FC011F
:100F60000590615070400110D8F7809590958E0FD4
:100F70009F1F0895FC016150704001900110D8F747
:100F8000809590958E0F9F1F08950F931F93CF9379
:100F9000DF93FB01238121FD03C08FEF9FEF2CC066
:100FA00022FF16C04681578124813581421753079D
:100FB00044F4A081B1819D012F5F3F4F3183208395
:100FC0008C93268137812F5F3F4F3783268314C050
:100FD0008B01EC01FB010084F185E02D0995892B43
:100FE000E1F6D80116968D919C9117970196179668
:100FF0009C938E931697CE01DF91CF911F910F9105
:101000000895FA01AA27283051F1203181F1E8949E
:101010006F936E7F6E5F7F4F8F4F9F4FAF4FB1E0EB
:101020003ED0B4E03CD0670F781F891F9A1FA11DE6
:10103000680F791F8A1F911DA11D6A0F711D811DE7
:10104000911DA11D20D009F468943F912AE0269FAC
:1010500011243019305D3193DEF6CF010895462F0B
:101060004770405D4193B3E00FD0C9F7F6CF462FEC
:101070004F70405D4A3318F0495D31FD4052419355
:1010800002D0A9F7EACFB4E0A69597958795779512
:101090006795BA95C9F700976105710508959B0199
:1010A000AC010A2E06945795479537952795BA9522
:1010B000C9F7620F731F841F951FA01D08952F92FB
:1010C0003F924F925F926F927F928F929F92AF92D8
:1010D000BF92CF92DF92EF92FF920F931F93CF9325
:1010E000DF93CDB7DEB7CA1BDB0B0FB6F894DEBFBC
:1010F0000FBECDBF09942A88398848885F846E84E2
:101100007D848C849B84AA84B984C884DF80EE802B
:10111000FD800C811B81AA81B981CE0FD11D0FB634
:10112000F894DEBF0FBECDBFED010895F894FFCF58
:101130000A0D456E746572206120626C6F636B20CE
:101140006E756D62657220746F20726561643A0A13
:101150000D000A0D54686520626C6F636B206E751C
:101160006D62657220796F7520656E746572656455
:101170003A20307825580A0D002570200030782557
:0E118000342E345820200025322E3258200004
:00000001FF
