S01C0000554152545F736F6C7574696F6E5F7374727563742E73726563EC
S11300000C9486000C94A3000C94A3000C94A300FD
S11300100C94A3000C94A3000C94A3000C94A300D0
S11300200C94A3000C94A3000C94A3000C94A300C0
S11300300C94A3000C94A3000C94A3000C94A300B0
S11300400C94A3000C94A3000C94A3000C94A300A0
S11300500C94A3000C94A3000C94A3000C94A30090
S11300600C94A3000C94A3000C94A3000C94A30080
S11300700C94A3000C94A3000C94A3000C94A30070
S11300800C94A3000C94A3000C94A3000C94A30060
S11300900C94A3000C94A3000C94A3000C94A30050
S11300A00C94A3000C94A3000C94A3000C94A30040
S11300B00C94A3000C94A3000C94A3000C94A30030
S11300C00C94A3000C94A3000C94A30041646472E8
S11300D02E204F6666736574202020302020312046
S11300E020322020332020342020352020362020A8
S11300F0372020382020392020412020422020434E
S11301002020442020452020460A0D0011241FBE33
S1130110CFEFD8E0DEBFCDBF11E0A0E0B1E0EAED63
S1130120F5E102C005900D92AC3DB107D9F722E08C
S1130130ACEDB1E001C01D92A234B207E1F70E9418
S11301400C030C94EB0A0C9400008CE292E00895EA
S1130150860F971FFC0180810895DC0190E020E068
S113016030E00BC0FD01E91BF1093196E60FF71FE2
S11301704081322F2227242B9F5F923098F3C901AC
S11301800895CF92DF92EF92FF929C01AB01A0E021
S113019060E070E0CB010FC0F901EA1BF10933966E
S11301A0E40FF51FE081CC24D62EE72EF82EC701EC
S11301B0B6016E2BAF5FA43078F3FF90EF90DF9021
S11301C0CF9008952F923F924F925F926F927F92B9
S11301D08F929F92AF92BF92CF92DF92EF92FF9253
S11301E00F931F93CF93DF9300D01F92CDB7DEB749
S11301F09B838A830E94A5008C010E941B07282EE2
S1130200392E40E050E0BA0181E10E9482046A8103
S11302107B8180E092E00E943C04EA81FB81808142
S11302208B3E09F43DC1893E09F43AC1BF0186EC15
S113023091E00E94C100C62ED72EE82EF92E9F937E
S11302408F937F936F938EE091E09F938F933F9270
S11302502F920E940108422D532D60E088EC90E01B
S11302600E9444074C2D5D2D6E2D7F2D81E10E944F
S113027082046A817B8180E092E00E943C04EA81EE
S1130280FB8180810FB6F894DEBF0FBECDBF8B3EDD
S113029019F0893E09F005C16A817B8181E190E012
S11302A00E94AD007C016A817B818BE090E00E941A
S11302B0AD00BC01F80195838483C701880F991FA1
S11302C082959295907F9827807F9827860F971F15
S11302D001970E947507CB01A0E0B0E0828B938B5D
S11302E0A48BB58B6A817B8183E190E00E94AD0091
S11302F06C016A817B8180E290E00E94C1004B0125
S11303005C01BF92AF929F926F9380E291E09F93C2
S11303108F933F922F920E940108422D532D60E04B
S113032088EC90E00E9444076A817B818EE090E033
S11303300E94AD007C01FF928F9383E391E09F9331
S11303408F933F922F920E940108422D532D60E01B
S113035088EC90E00E9444076A817B8180E190E010
S11303600E94A80089831F928F9388E491E09F9351
S11303708F933F922F920E940108422D532D60E0EB
S113038088EC90E00E9444076A817B8184E290E0DB
S11303900E94C1002B013C017F926F925F926F9388
S11303A08AE591E09F938F933F922F920E940108D8
S11303B0422D532D60E088EC90E00E9444070FB674
S11303C0F894DEBF0FBECDBF411451046104710423
S11303D009F469C0C114D104F1F44601A12CB12C73
S11303E03981A32FB0E0A30192010E94AB07AB01B6
S11303F0BC014E0D5F1D611D711DF8018289938939
S1130400A489B589840F951FA61FB71F881A990A56
S1130410AA0ABB0A1AC0F981AF2FB0E0A301920166
S11304200E94AB07AB01BC014E0D5F1D611D711D28
S1130430F80182899389A489B589840F951FA61F21
S1130440B71F881A990AAA0ABB0ABF92AF929F9251
S11304508F928CE691E09F938F933F922F920E940C
S11304600108422D532D60E088EC90E00E9444077F
S1130470F801208130E040E050E0C501B4010E9461
S113048089070FB6F894DEBF0FBECDBF253F3F4F9F
S11304904105510550F080E2F801818380E006C0F7
S11304A005C080EF03C080EF01C080EF0F900F9074
S11304B00F90DF91CF911F910F91FF90EF90DF90FC
S11304C0CF90BF90AF909F908F907F906F905F90F0
S11304D04F903F902F900895FC012181622B6183FE
S11304E00895FC012281622B62830895FC019281AC
S11304F060956923628308958F929F92AF92BF9211
S1130500EF92FF920F931F93CF93DF93CDB7DEB794
S11305102B970FB6F894DEBF0FBECDBF7C0180E0F1
S113052008C0E1E0F0E0EC0FFD1FE80FF11D1082C0
S11305308F5F8B30B0F388248A94982C540100E0A8
S1130540C7010E941507182F80ED810F8A3068F4C7
S1130550612FC7010E940E07E1E0F0E0EC0FFD1FE0
S1130560E00FF11D10830F5F2DC0183011F01F37FD
S1130570A9F40150E1E0F0E0EC0FFD1FE00FF11DE4
S1130580108268E0C7010E940E0760E2C7010E9462
S11305900E0768E0C7010E940E0714C01D3021F049
S11305A01A3011F01E3271F4CE0101960E94C50773
S11305B04B015C016DE0C7010E940E076AE0C701B0
S11305C00E940E070A3071F4CE0101960E94C507FD
S11305D04B015C016DE0C7010E940E076AE0C70190
S11305E00E940E078FEF88169806A806B80609F42D
S11305F0A7CFC501B4012B960FB6F894DEBF0FBE8A
S1130600CDBFDF91CF911F910F91FF90EF90BF90DD
S1130610AF909F908F900895CF93DF93CDB7DEB7BF
S1130620D2500FB6F894DEBF0FBECDBF0E941B0799
S1130630082F192F60E875E288EC90E00E94E40628
S113064040E85AE166E070E08CE490E00E94020623
S11306500E94090540E458E76DE771E08CE490E0FE
S11306600E94020644EC59E060E070E088ED90E0FE
S11306700E94900682E2EEE7F1E0A02FB12F0190F4
S11306800D928A95E1F7402F512F60E088EC90E0BD
S11306900E94440788EC90E00E947C02C62ED72E6C
S11306A0E82EF92E9F938F937F936F9380EA91E0C6
S11306B09F938F931F930F930E940108402F512FF4
S11306C060E088EC90E00E94440760E183E290E0FF
S11306D00E9434044C2D5D2D6E2D7F2D81E10E94EE
S11306E08204BE016F5F7F4F80E092E00E943C0471
S11306F0AE014F5F5F4F60E072E088EC90E00E94D3
S11307000704CE0101960E94E2000FB6F894DEBF02
S11307100FBECDBFAFCFAF92BF92DF92EF92FF92E9
S11307200F931F93CF93DF938C017B015A010E9497
S11307301B07D82ED92FEA0CFB1CFF92EF9287ECF3
S113074091E09F938F93DF93DF920E9401084D2DD8
S11307505D2F60E0C8010E944407BF92AF928BEC0A
S113076091E09F938F93DF93DF920E9401084D2DB8
S11307705D2F60E0C8010E9444078DB79EB70C96B8
S11307800FB6F8949EBF0FBE8DBFC0E01BC0F7012B
S1130790EC0FF11D80811F928F9385ED91E09F9363
S11307A08F93DF93DF920E9401084D2D5D2F60E04F
S11307B0C8010E944407CF5F0F900F900F900F90D5
S11307C00F900F90C03118F3C0E00DC0F701EC0F8B
S11307D0F11D608180EE860F803608F06EE2C8015C
S11307E00E940E07CF5FC03188F36DE0C8010E94FC
S11307F00E076AE0C8010E940E07DF91CF911F9196
S11308000F91FF90EF90DF90BF90AF900895CF923B
S1130810DF92EF92FF920F931F93CF93DF938C019C
S11308206B017A010E941B07EC01AC0160E08CECC7
S113083090E00E941E07AE0160E0C8010E944407D8
S1130840C0E0D0E0AE01B701C8010E948B036096FE
S1130850CC15DD05B8F3DF91CF911F910F91FF9077
S1130860EF90DF90CF90089570E00E947602089593
S113087070E00E9471020895EF92FF920F931F930C
S1130880CF93DF938C017B01C0E06FEF8CE490E0A9
S11308900E948906CF5F8F3F11F4C111F6CF8111F9
S11308A02AC06FEF8CE490E00E9489068F3FC9F361
S11308B08E3F09F50BC06FEF8CE490E00E9489062F
S11308C0F701EC0FFD1F8083219602C0C0E0D0E049
S11308D0C017D10780F36FEF8CE490E00E94890683
S11308E06FEF8CE490E00E9489066FEF8CE490E057
S11308F00E94890600C0DF91CF911F910F91FF9054
S1130900EF900895CF92DF92EF92FF92CF93DF930F
S11309108034A0F56A017B01D82F682F60648CE4D1
S113092090E00E948906C0E018C023E030E02C1B50
S11309303109220F331F220F331F220F331FC70128
S1130940B60104C096958795779567952A95D2F751
S11309508CE490E00E948906CF5FC43030F3DD233D
S113096021F0D83021F467E803C065E901C061E0F3
S11309708CE490E00E94890680E001C08FEFDF9153
S1130980CF91FF90EF90DF90CF900895FF920F9357
S11309901F93CF93DF93F82E8B01C0E06FEF8CE4AD
S11309A090E00E948906CF5F8F3F11F4C111F6CF0A
S11309B0CC2311F1982F9E7F21F0F8018083CEEF94
S11309C01CC0F8018083F1E0FF1568F0C0E015C099
S11309D06FEF8CE490E00E948906F801EC0FFD1F94
S11309E08083219602C0C1E0D0E08F2D90E0C8172B
S11309F0D90770F3C0E001C0CAEF6FEF8CE490E058
S1130A000E9489068C2FDF91CF911F910F91FF9047
S1130A100895FF920F931F93CF93DF9300D000D0DC
S1130A201F92CDB7DEB760E170E083E290E00E94F0
S1130A306C0260E183E290E00E94380440E85AE1ED
S1130A4066E070E08CE490E00E94020610E006C0CC
S1130A506FEF8CE490E00E9489061F5F1A30C0F3A8
S1130A6060E183E290E00E94340440E050E0BA0187
S1130A7080E00E948204182F813039F0BE016F5F3C
S1130A807F4F81E00E94C604182F60E183E290E06A
S1130A900E94380411112EC060E183E290E00E94AC
S1130AA034044AEA51E060E070E088E00E94820485
S1130AB0082F811107C0BE016F5F7F4F85E00E9440
S1130AC0C604082F60E183E290E00E94380401111B
S1130AD00BC08981813041F48C81813051F48D8146
S1130AE08A3A41F01DEF06C08981853019F0102F34
S1130AF001C01DEF111118C060E183E290E00E9473
S1130B00340440E050E0BA018AE30E948204811177
S1130B1006C0BE016F5F7F4F85E00E94C60460E19E
S1130B2083E290E00E94380411113CC060E183E24A
S1130B3090E00E943404F12E00E040E050E0BA015D
S1130B4087E30E948204811106C0BE016F5F7F4F5C
S1130B5081E00E94C604811115C08981813091F41D
S1130B6040E050E060E070E489E20E948204BE014B
S1130B706F5F7F4F81E00E94C6048981823040F418
S1130B800F5FF12E8981882339F00111D6CF04C07B
S1130B900F2EFEEFFF2EF02D60E183E290E00E9425
S1130BA038041F2D111122C060E183E290E00E94FD
S1130BB0340440E050E0BA018AE30E948204082F22
S1130BC0811107C0BE016F5F7F4F85E00E94C6049C
S1130BD0082F60E183E290E00E943804011106C00E
S1130BE08981813019F48D8180FF1FEF812F0F904F
S1130BF00F900F900F900F90DF91CF911F910F9155
S1130C00FF9008951F93CF93DF93EC019A01AB01FA
S1130C1060E074E284EF90E00E948907223031059D
S1130C204105510530F480E5888381E0898310E033
S1130C303FC0243031054105510528F480E58883FF
S1130C40198210E035C0283031054105510530F4D2
S1130C5081E5888381E0898310E02AC02031310551
S1130C604105510528F481E58883198210E020C0EC
S1130C70203231054105510530F482E5888381E055
S1130C80898310E015C0203431054105510528F44D
S1130C9082E58883198210E00BC0203831054105B4
S1130CA0510528F483E58883198210E001C01FEF01
S1130CB0CC34D105A9F460E283E290E00E94710291
S1130CC060E283E290E00E946C0260E883E290E0DC
S1130CD00E94760260E883E290E00E946C0214C0F5
S1130CE068E08CE290E00E94710268E08CE290E09F
S1130CF00E946C0260E889E290E00E94760260E85B
S1130D0089E290E00E946C02812FDF91CF911F91C4
S1130D100895FC01628391819923ECF782810895FF
S1130D20CF92DF92EF92FF92CF93DF93EC019A017F
S1130D30AB0160E074E284EF90E00E9489076901EE
S1130D407A0180E1C81AD108E108F108C701B601A7
S1130D502EEF31E040E050E00E9489072115310573
S1130D6021F4198221E030E01AC02430310528F43E
S1130D7081E0898324E030E012C02031310528F479
S1130D8082E0898320E130E00AC02034310528F470
S1130D9083E0898320E430E002C08FEF0EC0C901F4
S1130DA0A0E0B0E09C01AD01220F331F441F551F8A
S1130DB0C701B6010E9489072883DF91CF91FF9074
S1130DC0EF90DF90CF900895CF93DF93EC01CB01A8
S1130DD0A0E0B0E0880F991FAA1FBB1F880F991FBE
S1130DE0AA1FBB1F9C01AD01220F331F441F551FB7
S1130DF0220F331F441F551F60E074E284EF90E01C
S1130E000E948907215031093D832C83188286E092
S1130E108A8388E18983DF91CF910895FC019081D1
S1130E2095FFFDCF668380E00895FC0190819923AE
S1130E30ECF7868108958CED91E00895CF93DF93CC
S1130E40DC0161111AC0262F30E0FD01E20FF31F0F
S1130E50E491EA01C20FD31FE8836F5FE111F3CF7E
S1130E600FC0292F30E0FD01E20FF31FE491EA01E6
S1130E70C20FD31FE8839F5F01C090E0961788F3E9
S1130E80862FDF91CF910895EF92FF920F931F93D6
S1130E90CF93DF937C01062FEA01611115C06881AD
S1130EA005C0C7010E940E07219668816111F9CF20
S1130EB015C0FE01E10FF11D17FDFA956081C70110
S1130EC00E940E071F5F01C010E0202F30E0812F29
S1130ED0012E000C990B821793075CF3DF91CF91DD
S1130EE01F910F91FF90EF900895AA1BBB1B51E136
S1130EF007C0AA1FBB1FA617B70710F0A61BB70B86
S1130F00881F991F5A95A9F780959095BC01CD012A
S1130F100895A1E21A2EAA1BBB1BFD010DC0AA1F36
S1130F20BB1FEE1FFF1FA217B307E407F50720F04E
S1130F30A21BB30BE40BF50B661F771F881F991FC9
S1130F401A9469F760957095809590959B01AC0112
S1130F50BD01CF0108950E94B607A59F900DB49FCF
S1130F60900DA49F800D911D11240895A29FB0019E
S1130F70B39FC001A39F700D811D1124911DB29FC9
S1130F80700D811D1124911D08951F93FC01992753
S1130F908827BC01E89411911032E9F3193010F05C
S1130FA01E30C8F31B3251F01D3249F4689406C058
S1130FB00E94EC07610F711D811D911D1191105349
S1130FC01A30B0F33EF490958095709561957F4FFB
S1130FD08F4F9F4F1F910895592F482F372F262F3A
S1130FE0660F771F881F991F660F771F881F991F29
S1130FF0620F731F841F951F660F771F881F991F29
S11310000895AEE0B0E0E7E0F8E00C94C20A0D8980
S11310101E8986E08C831A8309838FEF9FE79E8362
S11310208D83AE01475E5F4F6F89788DCE01019647
S11310300E942308EF81F885E00FF11F10822E969D
S1131040E4E00C94DE0AABE0B0E0E9E2F8E00C94F2
S1131050B40A6C017B018A01FC0117821682838128
S113106081FFCCC1CE0101963C01F6019381F701C9
S113107093FD859193FF81917F01882309F4BAC17F
S1131080853239F493FD859193FF81917F018532F7
S113109029F4B60190E00E941A0AE7CF912C212C82
S11310A0312CFFE1F315D8F08B3279F038F480322B
S11310B079F08332A1F4232D20611DC08D3261F0BB
S11310C0803369F4232D216016C0832D8260382E6D
S11310D0E32DE4603E2E2AC0F32DF8601DC037FCDA
S11310E02DC020ED280F2A3040F08E32B9F436FCA2
S11310F081C1232D2064322E19C036FE06C08AE039
S1131100989E200D1124922E11C0EAE02E9E200DEF
S11311101124222EF32DF0623F2E08C08C3621F4C8
S1131120832D8068382E02C0883641F4F70193FD80
S1131130859193FF81917F018111B3CF982F9F7D7A
S11311409554933028F40C5F1F4F9FE399830DC08F
S1131150833631F0833771F0833509F059C021C0EB
S1131160F801808189830E5F1F4F88248394912C1A
S1131170530113C02801F2E04F0E511CF801A08066
S1131180B18036FE03C0692D70E002C06FEF7FEFBF
S1131190C5010E940F0A4C018201F32DFF773F2EF7
S11311A016C0280122E0420E511CF801A080B18033
S11311B036FE03C0692D70E002C06FEF7FEFC501FA
S11311C00E94040A4C01F32DF0683F2E820133FC87
S11311D01BC0822D90E088169906B0F4B60180E217
S11311E090E00E941A0A2A94F4CFF50137FC859105
S11311F037FE81915F01B60190E00E941A0A211026
S11312002A9421E0821A91088114910471F7E8C0AC
S1131210843611F0893641F5F80137FE07C0608144
S11312207181828193810C5F1F4F08C0608171813D
S1131230072E000C880B990B0E5F1F4FF32DFF76C2
S11312403F2E97FF09C090958095709561957F4FCB
S11312508F4F9F4FF0683F2E2AE030E0A3010E9499
S1131260560A882E861845C0853731F4232D2F7EE3
S1131270B22E2AE030E025C0932D997FB92E8F3607
S1131280C1F018F4883579F0B5C0803719F0883783
S113129021F0B0C0E92FE061BE2EB4FE0DC0FB2DDD
S11312A0F460BF2E09C034FE0AC0292F2660B22E76
S11312B006C028E030E005C020E130E002C020E1B3
S11312C032E0F801B7FE07C06081718182819381A9
S11312D00C5F1F4F06C06081718180E090E00E5F5B
S11312E01F4FA3010E94560A882E8618FB2DFF77F4
S11312F03F2E36FE0DC0232D2E7FA22E891458F4C6
S113130034FE0BC032FC09C0832D8E7EA82E05C08E
S1131310B82CA32C03C0B82C01C0B92CA4FE0FC058
S1131320FE01E80DF11D8081803321F49A2D997E10
S1131330A92E09C0A2FE06C0B394B39404C08A2D9A
S1131340867809F0B394A3FC11C0A0FE06C0B214C1
S113135088F4280C922C9B180EC0B21460F4B601C9
S113136080E290E00E941A0AB394F7CFB21418F402
S11313702B1802C0982C212CA4FE10C0B60180E3C7
S113138090E00E941A0AA2FE17C0A1FC03C088E7DD
S113139090E002C088E590E0B6010CC08A2D867802
S11313A059F0A1FE02C08BE201C080E2A7FC8DE2ED
S11313B0B60190E00E941A0A891438F4B60180E359
S11313C090E00E941A0A9A94F7CF8A94F301E80DE8
S11313D0F11D8081B60190E00E941A0A8110F5CFB8
S11313E0222009F442CEB60180E290E00E941A0A5B
S11313F02A94F6CFF6018681978102C08FEF9FEF82
S11314002B96E2E10C94D00AFC01059061507040E7
S11314100110D8F7809590958E0F9F1F0895FC01B9
S11314206150704001900110D8F7809590958E0F0F
S11314309F1F08950F931F93CF93DF93FB01238185
S113144021FD03C08FEF9FEF2CC022FF16C0468101
S11314505781248135814217530744F4A081B18117
S11314609D012F5F3F4F318320838C9326813781E9
S11314702F5F3F4F3783268314C08B01EC01FB01A0
S11314800084F185E02D0995892BE1F6D8011696A3
S11314908D919C911797019617969C938E9316970E
S11314A0CE01DF91CF911F910F910895FA01AA27E0
S11314B0283051F1203181F1E8946F936E7F6E5F93
S11314C07F4F8F4F9F4FAF4FB1E03ED0B4E03CD041
S11314D0670F781F891F9A1FA11D680F791F8A1F24
S11314E0911DA11D6A0F711D811D911DA11D20D08B
S11314F009F468943F912AE0269F11243019305D45
S11315003193DEF6CF010895462F4770405D419335
S1131510B3E00FD0C9F7F6CF462F4F70405D4A3382
S113152018F0495D31FD4052419302D0A9F7EACF4A
S1131530B4E0A6959795879577956795BA95C9F779
S113154000976105710508959B01AC010A2E06946C
S11315505795479537952795BA95C9F7620F731F25
S1131560841F951FA01D08952F923F924F925F9262
S11315706F927F928F929F92AF92BF92CF92DF929F
S1131580EF92FF920F931F93CF93DF93CDB7DEB704
S1131590CA1BDB0B0FB6F894DEBF0FBECDBF099498
S11315A02A88398848885F846E847D848C849B84EF
S11315B0AA84B984C884DF80EE80FD800C811B81FD
S11315C0AA81B981CE0FD11D0FB6F894DEBF0FBE2C
S10D15D0CDBFED010895F894FFCF9C
S11315DA2535642E20005B4449525D0D0A000A0D2C
S11315EA6270625F6164643A20307825580A0D009B
S11315FA0A0D546F7453656333323A203078255890
S113160A0A0D000A0D52737664536563436E743A85
S113161A20307825580A0D000A0D4E756D4641543E
S113162A733A20307825580A0D000A0D464154535E
S113163A7A33323A20307825580A0D000A0D44616B
S113164A74615365633A20307825580A0D000A0DEF
S113165A456E746572206120626C6F636B206E75CF
S113166A6D62657220746F20726561643A0A0D00B6
S113167A0A0D54686520626C6F636B206E756D6227
S113168A657220796F7520656E74657265643A2097
S113169A307825580A0D0025702000307825342E1C
S10F16AA345820200025322E3258200035
S9030000FC
