:100000000C9466000C9483000C9483000C94830081
:100010000C9483000C9483000C9483000C94830054
:100020000C9483000C9483000C9483000C94830044
:100030000C9483000C9483000C9483000C94830034
:100040000C9483000C9483000C9483000C94830024
:100050000C9483000C9483000C9483000C94830014
:100060000C9483000C9483000C9483000C94830004
:100070000C9483000C9483000C9483000C948300F4
:100080000C9483000C9483000C9483000C948300E4
:100090000C9483000C9483000C9483000C948300D4
:1000A0000C9483000C9483000C9483000C948300C4
:1000B0000C9483000C9483000C9483000C948300B4
:1000C0000C9483000C9483000C94830011241FBEB5
:1000D000CFEFD8E0DEBFCDBF11E0A0E0B1E0E6E0B9
:1000E000FDE002C005900D92A833B107D9F721E0D9
:1000F000A8E3B1E001C01D92A838B207E1F70E9461
:100100009E000C9481060C940000FC012181622B5E
:1001100061830895FC012281622B62830895FC01B2
:10012000928160956923628308950E9485000895F5
:100130000E948A0008950E948F000895DF92EF9236
:10014000FF920F931F93CF93DF9360E886E290E0D6
:100150000E94980060E886E290E00E94950060E8C6
:1001600075E288EC90E00E940A0340E85AE166E0FC
:1001700070E08CE490E00E94FB017C010E942D0164
:10018000D82E40E458E76DE771E08CE490E00E94DF
:10019000FB018C010E944103D82FC92FC701992769
:1001A0009F938F9380E091E09F938F93CF93DF9302
:1001B0000E9497034D2F5C2F60E088EC90E00E9436
:1001C00044031F92DF9284E191E09F938F93CF933A
:1001D000DF930E9497034D2F5C2F60E088EC90E046
:1001E0000E944403C80199279F938F9385E291E071
:1001F0009F938F93CF93DF930E9497034D2F5C2F94
:1002000060E088EC90E00E94440360E886E290E0C1
:100210000E949B0088EC90E00E943B03682F88ECD2
:1002200090E00E9434038DB79EB742960FB6F894C3
:100230009EBF0FBE8DBF80E090E0DF91CF911F91F8
:100240000F91FF90EF90DF90089570E00E948F0073
:10025000089570E00E948A000895FF920F931F9303
:10026000CF93DF9300D000D01F92CDB7DEB760E10F
:1002700083E290E00E94290140E85AE166E070E0E4
:100280008CE490E00E94FB0110E006C06FEF8CE46C
:1002900090E00E9482021F5F1A30C0F360E183E2A7
:1002A00090E00E94250140E050E0BA0180E00E9409
:1002B0008902182F813039F0BE016F5F7F4F81E0D6
:1002C0000E94C702182F60E183E290E00E9429019A
:1002D00011112EC060E183E290E00E9425014AEAFC
:1002E00051E060E070E088E00E948902082F8111EF
:1002F00007C0BE016F5F7F4F85E00E94C702082FD5
:1003000060E183E290E00E94290101110BC0898124
:10031000813041F48C81813051F48D818A3A41F0F1
:100320001DEF06C08981853019F0102F01C01DEF27
:10033000111118C060E183E290E00E94250140E0C5
:1003400050E0BA018AE30E948902811106C0BE0111
:100350006F5F7F4F85E00E94C70260E183E290E01B
:100360000E94290111113BC060E183E290E00E94EC
:100370002501F12E00E040E050E0BA0187E30E9441
:100380008902811106C0BE016F5F7F4F81E00E942C
:10039000C702811114C08981813089F440E050E0A6
:1003A000BA0189E20E948902BE016F5F7F4F81E03E
:1003B0000E94C7028981823040F40F5FF12E89814B
:1003C000882339F00111D7CF04C00F2EFEEFFF2E86
:1003D000F02D60E183E290E00E9429011F2D812F22
:1003E0000F900F900F900F900F90DF91CF911F9172
:1003F0000F91FF9008951F93CF93DF93EC019A0123
:10040000AB0160E074E284EF90E00E94750322305B
:1004100031054105510530F480E5888381E0898309
:1004200010E03FC0243031054105510528F480E536
:100430008883198210E035C0283031054105510507
:1004400030F481E5888381E0898310E02AC020317F
:1004500031054105510528F481E58883198210E0B2
:1004600020C0203231054105510530F482E58883F2
:1004700081E0898310E015C0203431054105510524
:1004800028F482E58883198210E00BC020383105FA
:100490004105510528F483E58883198210E001C0E5
:1004A0001FEFCC34D105A9F460E283E290E00E9412
:1004B0008A0060E283E290E00E94850060E883E2C7
:1004C00090E00E948F0060E883E290E00E94850047
:1004D00014C068E08CE290E00E948A0068E08CE240
:1004E00090E00E94850060E889E290E00E948F0021
:1004F00060E889E290E00E948500812FDF91CF9132
:100500001F910895FC01628391819923ECF7828108
:100510000895CF92DF92EF92FF92CF93DF938034D2
:10052000D8F08FEF2DC023E030E02C1B3109220FD3
:10053000331F220F331F220F331FC701B60104C020
:1005400096958795779567952A95D2F78CE490E0F4
:100550000E948202CF5F04C06A017B01D82FC0E0F5
:10056000C43008F3D03421F0D83421F467E803C054
:1005700065E901C061E08CE490E00E94820280E0C5
:10058000DF91CF91FF90EF90DF90CF900895FF9291
:100590000F931F93CF93DF93F82E8B01C0E06FEF83
:1005A0008CE490E00E948202CF5F8F3F11F4C11172
:1005B000F6CFCC2311F1982F9E7F21F0F801808394
:1005C000CFEF1CC0F8018083F1E0FF1568F0C0E0B8
:1005D00015C06FEF8CE490E00E948202F801EC0FEE
:1005E000FD1F8083219602C0C1E0D0E08F2D90E0F6
:1005F000C817D90770F3C0E001C0CFEF6FEF8CE4EC
:1006000090E00E9482028C2FDF91CF911F910F9179
:10061000FF900895CF93DF93EC01CB01A0E0B0E011
:10062000880F991FAA1FBB1F880F991FAA1FBB1FE6
:100630009C01AD01220F331F441F551F220F331F92
:10064000441F551F60E074E284EF90E00E94750340
:10065000215031093D832C83188286E08A8388E10A
:100660008983DF91CF910895FC01908195FFFDCFA3
:10067000668380E00895FC0190819923ECF78681E0
:10068000089588E391E00895EF92FF920F931F93EE
:10069000CF93DF937C01062FEA01611115C06881B9
:1006A00005C0C7010E943403219668816111F9CF0A
:1006B00015C0FE01E10FF11D17FDFA956081C7011C
:1006C0000E9434031F5F01C010E0202F30E0812F13
:1006D000012E000C990B821793075CF3DF91CF91E9
:1006E0001F910F91FF90EF900895A1E21A2EAA1B7F
:1006F000BB1BFD010DC0AA1FBB1FEE1FFF1FA217D2
:10070000B307E407F50720F0A21BB30BE40BF50BCE
:10071000661F771F881F991F1A9469F76095709557
:10072000809590959B01AC01BD01CF010895AEE08D
:10073000B0E0EDE9F3E00C9458060D891E8986E0DF
:100740008C831A8309838FEF9FE79E838D83AE018D
:10075000475E5F4F6F89788DCE0101960E94B90385
:10076000EF81F885E00FF11F10822E96E4E00C94E3
:100770007406ABE0B0E0EFEBF3E00C944A066C01DA
:100780007B018A01FC0117821682838181FFCCC123
:10079000CE0101963C01F6019381F70193FD85910D
:1007A00093FF81917F01882309F4BAC1853239F41E
:1007B00093FD859193FF81917F01853229F4B601E4
:1007C00090E00E94B005E7CF912C212C312CFFE165
:1007D000F315D8F08B3279F038F4803279F0833227
:1007E000A1F4232D20611DC08D3261F0803369F4A6
:1007F000232D216016C0832D8260382EE32DE46006
:100800003E2E2AC0F32DF8601DC037FC2DC020ED10
:10081000280F2A3040F08E32B9F436FC81C1232DE6
:100820002064322E19C036FE06C08AE0989E200D44
:100830001124922E11C0EAE02E9E200D1124222EAA
:10084000F32DF0623F2E08C08C3621F4832D806892
:10085000382E02C0883641F4F70193FD859193FF4D
:1008600081917F018111B3CF982F9F7D9554933053
:1008700028F40C5F1F4F9FE399830DC0833631F03E
:10088000833771F0833509F059C021C0F8018081A8
:1008900089830E5F1F4F88248394912C530113C0CA
:1008A0002801F2E04F0E511CF801A080B18036FE05
:1008B00003C0692D70E002C06FEF7FEFC5010E9499
:1008C000A5054C018201F32DFF773F2E16C02801AC
:1008D00022E0420E511CF801A080B18036FE03C018
:1008E000692D70E002C06FEF7FEFC5010E949A058D
:1008F0004C01F32DF0683F2E820133FC1BC0822D8A
:1009000090E088169906B0F4B60180E290E00E946B
:10091000B0052A94F4CFF50137FC859137FE81911B
:100920005F01B60190E00E94B00521102A9421E0F9
:10093000821A91088114910471F7E8C0843611F08D
:10094000893641F5F80137FE07C0608171818281E7
:1009500093810C5F1F4F08C060817181072E000CCE
:10096000880B990B0E5F1F4FF32DFF763F2E97FFDD
:1009700009C090958095709561957F4F8F4F9F4FDF
:10098000F0683F2E2AE030E0A3010E94EC05882E9B
:10099000861845C0853731F4232D2F7EB22E2AE0EC
:1009A00030E025C0932D997FB92E8F36C1F018F411
:1009B000883579F0B5C0803719F0883721F0B0C09C
:1009C000E92FE061BE2EB4FE0DC0FB2DF460BF2EFA
:1009D00009C034FE0AC0292F2660B22E06C028E0C6
:1009E00030E005C020E130E002C020E132E0F80153
:1009F000B7FE07C060817181828193810C5F1F4FB8
:100A000006C06081718180E090E00E5F1F4FA301FE
:100A10000E94EC05882E8618FB2DFF773F2E36FEB0
:100A20000DC0232D2E7FA22E891458F434FE0BC046
:100A300032FC09C0832D8E7EA82E05C0B82CA32CB5
:100A400003C0B82C01C0B92CA4FE0FC0FE01E80DF4
:100A5000F11D8081803321F49A2D997EA92E09C041
:100A6000A2FE06C0B394B39404C08A2D867809F020
:100A7000B394A3FC11C0A0FE06C0B21488F4280CE5
:100A8000922C9B180EC0B21460F4B60180E290E084
:100A90000E94B005B394F7CFB21418F42B1802C01B
:100AA000982C212CA4FE10C0B60180E390E00E9497
:100AB000B005A2FE17C0A1FC03C088E790E002C009
:100AC00088E590E0B6010CC08A2D867859F0A1FE29
:100AD00002C08BE201C080E2A7FC8DE2B60190E08B
:100AE0000E94B005891438F4B60180E390E00E94BA
:100AF000B0059A94F7CF8A94F301E80DF11D808137
:100B0000B60190E00E94B0058110F5CF222009F4D3
:100B100042CEB60180E290E00E94B0052A94F6CF62
:100B2000F6018681978102C08FEF9FEF2B96E2E15D
:100B30000C946606FC010590615070400110D8F7D6
:100B4000809590958E0F9F1F0895FC016150704015
:100B500001900110D8F7809590958E0F9F1F0895F2
:100B60000F931F93CF93DF93FB01238121FD03C0DC
:100B70008FEF9FEF2CC022FF16C046815781248142
:100B800035814217530744F4A081B1819D012F5F45
:100B90003F4F318320838C93268137812F5F3F4FD6
:100BA0003783268314C08B01EC01FB010084F1859F
:100BB000E02D0995892BE1F6D80116968D919C912F
:100BC0001797019617969C938E931697CE01DF91F7
:100BD000CF911F910F910895FA01AA27283051F162
:100BE000203181F1E8946F936E7F6E5F7F4F8F4F5E
:100BF0009F4FAF4FB1E03ED0B4E03CD0670F781FBD
:100C0000891F9A1FA11D680F791F8A1F911DA11DA1
:100C10006A0F711D811D911DA11D20D009F46894DA
:100C20003F912AE0269F11243019305D3193DEF682
:100C3000CF010895462F4770405D4193B3E00FD038
:100C4000C9F7F6CF462F4F70405D4A3318F0495D23
:100C500031FD4052419302D0A9F7EACFB4E0A69506
:100C60009795879577956795BA95C9F70097610528
:100C7000710508959B01AC010A2E0694579547957E
:100C800037952795BA95C9F7620F731F841F951F73
:100C9000A01D08952F923F924F925F926F927F9284
:100CA0008F929F92AF92BF92CF92DF92EF92FF927C
:100CB0000F931F93CF93DF93CDB7DEB7CA1BDB0B28
:100CC0000FB6F894DEBF0FBECDBF09942A883988CD
:100CD00048885F846E847D848C849B84AA84B984D4
:100CE000C884DF80EE80FD800C811B81AA81B981E0
:100CF000CE0FD11D0FB6F894DEBF0FBECDBFED01F4
:060D00000895F894FFCFF6
:100D06000A0D5350495F6572726F723A203078252A
:100D1600580A0D0053445F6572726F723A2030783C
:100D260025580A0D005350495F6572726F72323A48
:080D360020307825580A0D0059
:00000001FF
