S01C0000554152545F736F6C7574696F6E5F7374727563742E73726563EC
S11300000C944E080C946B080C946B080C946B08BD
S11300100C946B080C946B080C946B080C946B0890
S11300200C946B080C946B080C946B080C946B0880
S11300300C946B080C946B080C946B080C946B0870
S11300400C946B080C946B080C946B080C946B0860
S11300500C946B080C946B080C946B080C946B0850
S11300600C946B080C946B080C946B080C946B0840
S11300700C946B080C946B080C946B080C946B0830
S11300800C946B080C946B080C946B080C946B0820
S11300900C946B080C946B080C946B080C946B0810
S11300A00C946B080C946B080C946B080C946B0800
S11300B00C946B080C946B080C946B080C946B08F0
S11300C00C946B080C946B080C946B083A00643A1B
S11300D065BB083A09BB501052675177180405A153
S11300E0540155210700060C0B0350105100520413
S11300F0610F64556555180405A1FFFFFFFF3A0120
S11301002A042800290020002100220023002400C2
S113011025002600270028012802218F280321001A
S1130120280428052806280728082809280A280B4F
S1130130280C20802190280D20002100280E2081E9
S11301402191280F200021922810210028112193A9
S1130150281221002813281428152082281620008C
S11301602817281828192194281A2195281B219624
S1130170281C2100281D2083281E2000281F2197C9
S1130180282021002821282228232824282528263D
S1130190282728282829282A2084282B2000282CAE
S11301A0282D282E282F283028312832208528333E
S11301B0200028342835283628372198283821006B
S11301C02839283A283B283C283D283E283F284007
S11301D028412842284328442845284628472848B7
S11301E02849284A284B284C284D284E284F285067
S11301F02851285228532854285528562857285817
S11302002859285A285B285C285D285E285F2860C6
S113021028612862219928632100286428652866BA
S1130220286728682869286A286B286C286D286E36
S1130230286F2870287128722873287428752876E6
S1130240287728782879287A287B287C287D287E96
S1130250287F288028812882288328842885288646
S1130260288728882889288A288B288C288D288EF6
S1130270288F289028912086289220872893200070
S1130280289428952896289728982899289A289B6E
S1130290289C289D289E289F219A28A0210028A1D7
S11302A028A228A328A428A528A628A728A828A9DE
S11302B028AA28AB28AC28AD28AE28AF28B028B18E
S11302C028B228B328B428B528B628B728B828B93E
S11302D0208828BA200028BB208928BC200028BDFB
S11302E028BE28BF28C028C128C228C3219B28C4EF
S11302F0210028C528C628C728C828C928CA28CB49
S113030028CC28CD28CE28CF28D028D128D228D32D
S113031028D428D528D628D728D828D928DA28DBDD
S113032028DC28DD28DE28DF28E028E1208A28E2EE
S1130330208B28E3200028E428E528E628E728E89D
S113034028E928EA28EB28EC28ED28EE28EF28F005
S113035028F128F228F328F428F528F628F728F8B5
S1130360208C28F92000219C28FA219D28FB208D2F
S1130370219E28FC208E219F28FD2000210028FE9C
S113038028FF2A012800220123952489250726A471
S11303902707280121C72200238026C4270C28020E
S11303A02009211C220426AA270A28032000210050
S11303B0220023A626A02707280428052005238435
S11303C026B427092806200022032300248125C0FF
S11303D026AB270A280721AE220023952489250766
S11303E026A42700280821482201238026C4270C9C
S11303F0280920092104220426AA270A280A200001
S11304002100220023A826A42707280B280C21401A
S11304102220238026C4270C280D222426C6280E39
S1130420219E220026C8280F20092102221426AA70
S1130430270A2810200521002200238426B4270936
S11304402811200021012300240125C026AB270AFE
S1130450281221C323952489250726202700281341
S1130460200321C223832626270D281421B3220822
S11304702815200021C622002395260027082816C7
S1130480210023002496250326AA270A28172042A0
S113049021B62380248925072818200021002394CD
S11304A0260E2819200F238426B42709281A200091
S11304B0239326A82703281B26282700281C21016C
S11304C02300240125C026AB270A281D21C5239516
S11304D02489250726202700281E2100239426008E
S11304E0270A281F260E282020032179220123838E
S11304F02626270D2821213228222000210422002B
S11305002380240025FC26AA270A2823210023006F
S11305102500282421A3220D2380249E253B282561
S1130520204221572201248925072826200021431F
S1130530220D240025382827210822982395248970
S113054025072624270028282042219322012380DE
S113055026AA270A28292003217E2204238326266B
S1130560270D282A200021B02200239526A0270742
S1130570282B21002300240C250426AA270A282C32
S113058021022380248625C326AB282D20422197CF
S113059022012489250726AA282E200021002200D2
S11305A0241F2504282F21B22395248925072620DA
S11305B0270428302042218B2204238026AA270ADC
S11305C02831200021B12200239526A027072832B4
S11305D020032175220423832626270D2833200592
S11305E021002200238426B4270928342000216016
S11305F02300240125C026AB270A28352108229888
S113060023952489250726242700283621BC220087
S1130610283721A3220D2300240125C026AB270A55
S113062028382160220023802400253826AA28396E
S11306302106229823952489250726242700283A71
S113064021BE2200283B20052100238426B427094B
S1130650283C200021602300240125C026AB270A62
S1130660283D214222012395248925072624270099
S1130670283E210C229826A42707283F2108284039
S1130680216022002300240125C026AB270A28412B
S1130690210C229823952489250726242700284203
S11306A0200521002200238426B4270928432000A2
S11306B023802400251026AB270A28442122220166
S11306C02395248925072624270028452100220074
S11306D023002404251226AA270A2846200321D40D
S11306E022052383248925072626270D2847200051
S11306F0216022002300240125C026AB270A2848B4
S113070021B3239524892507260027082849210099
S113071023002409250026AA270A284A2102238027
S11307202486253B284B204221DD220524892507E8
S1130730284C200021002200241F2500284D21B32D
S113074023952489250726202700284E21002300ED
S11307502497250326AA270A284F204221E22205AE
S113076023802489250728502000211022002300FB
S1130770248025CC26AB28512100224023B424898F
S1130780250726AA27042852220023B026922709E7
S11307902853211422012395260027082854214890
S11307A023A4262A270028552100220023002409F7
S11307B0250026AA270A2856210823802486253BBB
S11307C02857204221112207248925072858200070
S11307D021002200241F25002859211422012395D9
S11307E02489250726202700285A211626022709AE
S11307F0285B2100220023002480254826AA270AFA
S1130800285C23A02489250726142709285D248031
S1130810255026A42704285E211622012395248925
S113082025072700285F210422002300249C257823
S113083026AA270A28602143220D240125C426ABB9
S113084028612103220024152862210024002500A8
S113085026AA2863215E23952489250726102709C3
S1130860286421032300241525C426AB270A286500
S1130870210023802400250626AA2866248F25E348
S113088026AB2867204221CD22072489250726AAE2
S113089028682000216022002300240125C026AB03
S11308A0286921002380248F250326AA286A204250
S11308B021DD220724892507286B20002143220DEE
S11308C02300240125C026AB286C2100220024002B
S11308D0250426AA286D2003217F2201238324894D
S11308E025072626270D286E2162286F2005210062
S11308F02200238426B4270928702000210623958A
S1130900260027082871210123002497253B26AAC5
S1130910270A28722042210E2208238024892507D1
S113092028732003213C220B23832626270D2874B9
S11309302000210322002395260227082875212759
S11309402300248125C426AB270A2876210023808E
S11309502409254826AA28772158223423A3248948
S11309602507262A270028782100220023A0260014
S113097027092879210723802403253926AA270A51
S1130980287A21042300241C2538287B210723806E
S113099024832539287C21032395248925072602CD
S11309A02708287D21272300248125C426AB270A74
S11309B0287E210023802409254826AA287F21583F
S11309C0223423A324892507262A270028802106E8
S11309D022002300248125C0269327012881210099
S11309E023802489254826AA270A288220022166F2
S11309F022082300240025662883200021002200E9
S1130A002380241F2502288421062489250726DC27
S1130A10270C2885210023AA26AA270A288623B67C
S1130A2026002708288723802486253B26AA270A10
S1130A30288821052489250726DC270C28892100FC
S1130A4023AA26AA270A288A23B626002708288B41
S1130A5023802486253B26AA270A288C2042217B32
S1130A60220824892507288D200021002200230044
S1130A7024012582288E2105248125C226AB288FB6
S1130A802003219322082383248925072626270D62
S1130A9028902000210522002300248125C026134C
S1130AA027012891210023802489254826AA270A82
S1130AB028922002217E2208230024002566289300
S1130AC02000210022002380241F250228942105D0
S1130AD02489250726DC270C2895210023AA26AA89
S1130AE0270A289623B626002708289723802486D9
S1130AF0253B26AA270A289821052489250726DCD0
S1130B00270C2899210023AA26AA270A289A238099
S1130B10241F2502289B21012300248125C226AB02
S1130B20289C200321932208238324892507262631
S1130B30270D289D20002104220023952612270832
S1130B40289E216023C426AA2704289F210023C0AD
S1130B502600270928A0204221CB2208238026AA88
S1130B60270A28A12070215422B823952612270889
S1130B7028A2200221CC2208238026AA270A28A3FF
S1130B80200321CA220F23832626270D28A4200010
S1130B90210022002300248C250C26AA270A28A53C
S1130BA021042482257828A621002380248925482D
S1130BB02612270428A7200321DE220F23832507DA
S1130BC02626270D28A82000210122002300249C8A
S1130BD0257826AA270A28A92100238024812540D4
S1130BE028AA200321CF220F238324892507262620
S1130BF0270D28AB2070210822B8239526A02704AE
S1130C0028AC200321D4220F23832626270D28ADC8
S1130C102127220B28AE2070216322B823952612A7
S1130C20270828AF2000210122002380248625CB19
S1130C3026AB270A28B0204221DD22082489250773
S1130C4026AA28B1200021182280239526A4270053
S1130C5028B2200321D9220F23832626270D28B367
S1130C602070210A22B8239526A0270028B4200248
S1130C7021E02208238026AA270A28B52070210A09
S1130C8022B8239526A0270028B621542602270837
S1130C9028B720002118228026A4270028B8210084
S1130CA0220023802480254826AA270A28B92070F8
S1130CB0215E22B82395248925072612270828BAFD
S1130CC020002100220023802409254B26AA270A7C
S1130CD028BB2070215F22B823952489250726107C
S1130CE0270828BC2000210022002300241C25837F
S1130CF026AB270A28BD2003213222092383248915
S1130D0025072626270D28BE2000210022002300C7
S1130D102482258C26AB270A28BF200321252209FB
S1130D202383248925072626270D28C0204221BC99
S1130D30238026AA270A28C120002101220023009B
S1130D40240125C026AB28C22070210F22B8239588
S1130D50248925072620270028C3200321E3220F06
S1130D6023832626270D28C420052100220023845E
S1130D7026B4270928C52000210323952614270813
S1130D8028C621A623A4262A270528C7210023A094
S1130D902644270928C82118226D2380249E257BF8
S1130DA026AA270A28C920422113220B24892507B1
S1130DB028CA200021AE220023952624270028CB10
S1130DC02100220323802487257B26AA270A28CCF6
S1130DD020422116220B2489250728CD200021AE8C
S1130DE0220023952624270028CE200521002384D1
S1130DF026B4270928CF2003210D220B238326267E
S1130E00270D28D020002100220023002480260260
S1130E10270028D1238024092548261E28D22158BA
S1130E202234233324802507262A28D321002200B4
S1130E3023002680271028D421102363262A270084
S1130E4028D52100236026A8271228D621AF224CBA
S1130E50230026C8270C28D7210022002680270536
S1130E6028D823802486253B261E270028D9204203
S1130E70211C220E23002480250728DA2000213596
S1130E80222926C4270C28DB2002211D220E261E1F
S1130E90270028DC2000217F223426C4270C28DDEB
S1130EA0210022002390249F25042610270A28DEEF
S1130EB02300248425002680271028DF21062363AD
S1130EC024802507262A270028E02100238024895E
S1130ED026AA270A28E12005238426B4270928E224
S1130EE02070216122B823952612270828E32000C8
S1130EF0210122002380248625C326AB270A28E467
S1130F00204221CE220F2489250726AA28E5207015
S1130F10215022B823952612270828E6200521000F
S1130F202200238426B4270928E72070216422B8EC
S1130F3023952612270828E8200021012200238077
S1130F40248625C326AB270A28E9204221D3220F71
S1130F502489250726AA28EA2070215122B823953E
S1130F602612270828EB200521002200238426B41A
S1130F70270928EC2070216522B82395261227081A
S1130F8028ED2000210122002380248625C326ABDE
S1130F90270A28EE204221D8220F2489250726AAD1
S1130FA028EF2070215222B823952612270828F012
S1130FB0200521002200238426B4270928F120706B
S1130FC0216122B823952602270828F22000210156
S1130FD022002380248625C326AB270A28F3204237
S1130FE021DD220F2489250726AA28F42070215008
S1130FF022B823952602270828F52005210022007F
S1131000238426B4270928F620002101238024867E
S113101025CB26AB270A28F7204221E1220F248979
S1131020250726AA28F82000210222002300248173
S113103025C426AB28F9210023802489254826AA23
S113104028FA20052384250726B4270928FB2070C5
S1131050214E22B823952610270828FC20002100C1
S113106022002380248625C326AB270A28FD20429C
S113107021E7220F2489250726AA28FE200021BB68
S1131080220023952620270028FF20052100238401
S113109026B427092A081001FFFFFFFF11241FBEF1
S11310A0CFEFD8E0DEBFCDBF12E0A0E0B1E0EAE1CF
S11310B0FCE202C005900D92A631B107D9F722E0F7
S11310C0A6E1B2E001C01D92AC37B207E1F70E947D
S11310D0590D0C940B160C94000086E692E00895CA
S11310E0AF92BF92CF92DF92EF92FF920F931F9332
S11310F0CF936B017C018A01590160E183E290E0A6
S11311000E948B0EB701A60181E10E94DB0EC82F5D
S1131110811105C0B501C8010E94930EC82F60E17A
S113112083E290E00E948F0EC111C0EF8C2FCF910B
S11311301F910F91FF90EF90DF90CF90BF90AF90F1
S11311400895860F971FFC01808108952F923F9286
S11311504F925F926F927F928F929F92AF92BF92C3
S1131160CF92DF92EF92FF920F931F93CF93DF936F
S1131170CDB7DEB727970FB6F894DEBF0FBECDBF4D
S11311804B015C015A8349830E9451128C839D83D5
S113119080916702823049F440907802509079023D
S11311A060907A0270907B0205C040906602512CD8
S11311B0612C712C40916A0250916B0229813A8111
S11311C0C501B4010E9470088111CDC0750164018C
S11311D000E010E01F821E8269817A818E819F81E6
S11311E00E94A108382E25EE821709F48AC08823AC
S11311F009F487C069817A818E819F810B960E9450
S1131200A1088B838E7009F07CC00F5F1F4F1F9362
S11312100F9380E091E09F938F938D818F939C81B6
S11312209F930E9421134C815D8160E088EC90E0E3
S11312300E9454120F900F900F900F900F900F90E8
S1131240212C0EC069817A818E819F81820D911D2E
S11312500E94A108682F88EC90E00E944412239415
S113126027E0221578F78B8184FD10C026C06981A0
S11312707A818E819F81820D911D0E94A108682F21
S113128088EC90E00E944412239403C068942224C2
S113129023F89AE0921558F788E0E6E0F1E0AC8193
S11312A0BD8101900D928A95E1F74C815D8160E0EA
S11312B088EC90E00E94541224C06EE288EC90E026
S11312C00E9444126894222423F80EC069817A8112
S11312D08E819F81820D911D0E94A108682F88EC48
S11312E090E00E94441223942AE0221578F76DE0DE
S11312F088EC90E00E9444126AE088EC90E00E943E
S113130044128E819F8180969F838E838F3F91406C
S113131038F18FEFC81AD80AE80AF80AD701C601CB
S113132088199909AA09BB0984159505A605B70565
S113133078F440916A0250916B0229813A81C70185
S1131340B6010E947008811106C01F821E8208C067
S11313501068312C05C0312C00E010E01F821E8281
S113136031103ACF02C000E010E0C80127960FB652
S1131370F894DEBF0FBECDBFDF91CF911F910F91C7
S1131380FF90EF90DF90CF90BF90AF909F908F90A1
S11313907F906F905F904F903F902F9008952F9281
S11313A03F924F925F926F927F928F929F92AF92F1
S11313B0BF92CF92DF92EF92FF920F931F93CF933E
S11313C0DF93CDB7DEB72A970FB6F894DEBF0FBE12
S11313D0CDBF4B015C0158874F833A8329838091A9
S11313E06702823069F42091780230917902409149
S11313F07A0250917B022B833C834D835E830AC027
S113140080916602282F30E040E050E02B833C833B
S11314104D835E8340916A0250916B0229813A8127
S1131420C501B4010E94700881119BC0750164015B
S1131430212C312C1A861986412C512C32016981B8
S11314407A8189859A850E94A108182F853E09F41E
S113145050C0882309F44DC069817A8189859A85B1
S11314600B960E94A108082F8E7009F042C05FEF0E
S1131470251A350A8F81988528163906D1F5809169
S113148067028430D9F469817A8189859A85459681
S11314900E94A108482E512C612C712C762C652CAD
S11314A0542C442469817A8189859A8544960E94C2
S11314B0A108482A762C652C542C442469817A810D
S11314C089859A854B960E94A108482A762C652C1A
S11314D0542C442469817A8189859A854A960E948C
S11314E0A108482A04FF04C0689474F810E001C0FD
S11314F010E0A985BA859096BA87A987AF3FB14015
S113150068F13FEFC31AD30AE30AF30AD701C6010D
S113151088199909AA09BB092B813C814D815E81F7
S113152082179307A407B50778F440916A02509193
S11315306B0229813A81C701B6010E9470088111AA
S113154005C01A8619860AC010E008C010E01A8681
S11315501986412C512C3201689477F811116FCF00
S113156005C0412C512C3201689477F84114510480
S11315706104710429F4412C512C3201689477F8E8
S1131580C301B2012A960FB6F894DEBF0FBECDBFD9
S1131590DF91CF911F910F91FF90EF90DF90CF904B
S11315A0BF90AF909F908F907F906F905F904F907F
S11315B03F902F900895DC0190E020E030E00BC0D4
S11315C0FD01E91BF1093196E60FF71F4081322F27
S11315D02227242B9F5F923098F3C9010895CF925C
S11315E0DF92EF92FF929C01AB01A0E060E070E01B
S11315F0CB010FC0F901EA1BF1093396E40FF51F83
S1131600E081CC24D62EE72EF82EC701B6016E2B2E
S1131610AF5FA43078F3FF90EF90DF90CF90089500
S11316202F923F924F925F926F927F928F929F92EE
S1131630AF92BF92CF92DF92EF92FF920F931F93DC
S1131640CF93DF93CDB7DEB72F970FB6F894DEBFF5
S11316500FBECDBF9F878E870E946D088C010E94AC
S1131660511240E050E0BA0181E10E94DB0E6E8528
S11316707F8580E092E00E94930EAE85BF858C91B9
S11316808B3E09F41FC1893E09F41CC1BD0186ECDF
S113169091E00E94EF0AAB01BC0181E10E94DB0EE4
S11316A06E857F8580E092E00E94930EEE85FF8533
S11316B080818B3E19F0893E09F005C16E857F85D6
S11316C081E190E00E94DB0A7C016E857F858BE0DE
S11316D090E00E94DB0ABC01D80115969C938E937E
S11316E01497C701880F991F82959295907F982728
S11316F0807F9827860F971F01970E9495122B01D0
S1131700612C712CF801428A538A648A758A6E8529
S11317107F8583E190E00E94DB0A5C016E857F8512
S113172080E290E00E94EF0A69837A838B839C8332
S11317306E857F858EE090E00E94DB0A1C016E8539
S11317407F8580E190E00E94A1088D836E857F856E
S113175084E290E00E94EF0A6B017C01611571053F
S11317608105910509F4B1C0A114B104C9F0450182
S1131770A12CB12CFD81AF2FB0E09B01AC010E94E4
S1131780CB12DC01CB01820D931DA11DB11D840D73
S1131790951DA61DB71D881A990AAA0ABB0A19C065
S11317A02D81A22FB0E09B01AC010E94CB12DC0181
S11317B0CB01820D931DA11DB11D840D951DA61D88
S11317C0B71D89809A80AB80BC80881A990AAA0ABE
S11317D0BB0A6E857F858DE090E00E94A108D80148
S11317E08C93282F30E040E050E029833A834B83E8
S11317F05C83C501B4010E94A9122A873B874C87E8
S11318005D876E857F858CE190E00E94EF0A6E8390
S11318107F83888799874101A12CB12C3D81A32F17
S1131820B0E0A70196010E94CB1275016401C60EB7
S1131830D71EE81EF91EC40CD51CE61CF71C8E81AD
S11318409F81A885B985C80ED91EEA1EFB1ED80142
S11318501A96CD92DD92ED92FC921D972E813F81D6
S113186048855985820E931EA41EB51E1E968D9220
S11318709D92AD92BC9251976E857F858CE290E0EB
S11318800E94EF0A625071098109910929813A8104
S11318904B815C810E948512C60ED71EE81EF91E7C
S11318A0F801C682D782E086F1862A853B854C857D
S11318B05D85253F3F4F4105510548F080E2818316
S11318C080E006C005C080EF03C080EF01C080EF58
S11318D02F960FB6F894DEBF0FBECDBFDF91CF9128
S11318E01F910F91FF90EF90DF90CF90BF90AF903A
S11318F09F908F907F906F905F904F903F902F902C
S11319000895CF92DF92EF92FF926B017C010E94C7
S11319106D08FC01C114D104E104F10431F0C114D7
S1131920D104E10480E1F80629F466817781808599
S1131930918512C0A701960122503109410951092C
S1131940A081B0E00E94CB12C284D384E484F584E5
S11319506C0D7D1D8E1D9F1DFF90EF90DF90CF902D
S11319600895FC012181622B61830895FC01228189
S1131970622B62830895FC019281609569236283DE
S11319800895FC018081682311F480E0089581E0CA
S113199008958F929F92AF92BF92EF92FF920F930E
S11319A01F93CF93DF93CDB7DEB72B970FB6F89481
S11319B0DEBF0FBECDBF7C0180E008C0E1E0F0E0F7
S11319C0EC0FFD1FE80FF11D10828F5F8B30B0F319
S11319D088248A94982C540100E0C7010E944B1279
S11319E0182F80ED810F8A3068F4612FC7010E949F
S11319F04412E1E0F0E0EC0FFD1FE00FF11D108355
S1131A000F5F2DC0183011F01F37A9F40150E1E029
S1131A10F0E0EC0FFD1FE00FF11D108268E0C7013C
S1131A200E94441260E2C7010E94441268E0C701A8
S1131A300E94441214C01D3021F01A3011F01E32DD
S1131A4071F4CE0101960E94E5124B015C016DE038
S1131A50C7010E9444126AE0C7010E9444120A307E
S1131A6071F4CE0101960E94E5124B015C016DE018
S1131A70C7010E9444126AE0C7010E9444128FEF1A
S1131A8088169806A806B80609F4A7CFC501B401BC
S1131A902B960FB6F894DEBF0FBECDBFDF91CF916A
S1131AA01F910F91FF90EF90BF90AF909F908F90F8
S1131AB00895CF93DF93CDB7DEB7D6500FB6F89421
S1131AC0DEBF0FBECDBF0E945112082F192F60E850
S1131AD075E288EC90E00E941A1240E85AE166E050
S1131AE070E08CE490E00E945B100E94620F40E47E
S1131AF058E76DE771E08CE490E00E945B1044ECE1
S1131B0059E060E070E088ED90E00E947F1160E1B0
S1131B1083E290E00E948B0ECE0101960E94100B8E
S1131B201F928F938DE691E09F938F931F930F9352
S1131B300E942113402F512F60E088EC90E00E9416
S1131B40541260E070E0CB010E94810C662E572E87
S1131B50482E392E9F938F937F936F9383E891E060
S1131B609F938F931F930F930E942113402F512F04
S1131B7060E088EC90E00E94541260E486E290E019
S1131B800E94B60C60E486E290E00E94B60C60E02D
S1131B9070E0CB010E94810C6B017C019E012F5FE0
S1131BA03D4F40E052E00E947008C701B6016F5FEC
S1131BB07F4F8F4F9F4F9E012F5F3B4F40E052E07E
S1131BC00E947008BE016F5F7F4F802F912F0E948B
S1131BD0E9100FB6F894DEBF0FBECDBFA12CB12C17
S1131BE077247394AE014F5F5F4F662D752D842D5E
S1131BF0932D0E94A6084C019F928F9388E991E04F
S1131C009F938F931F930F930E942113402F512F63
S1131C1060E088EC90E00E9454120F900F900F90B7
S1131C200F900F900F908BE1E0EBF1E0A02FB12F1C
S1131C3001900D928A95E1F7402F512F60E088ECD6
S1131C4090E00E94541288EC90E00E94C90C6B0151
S1131C507C01FF92EF92DF926F938BEC91E09F9364
S1131C608F931F930F930E942113402F512F60E0F5
S1131C7088EC90E00E945412C401A0E0B0E00FB6DA
S1131C80F894DEBF0FBECDBF8C159D05AE05BF0514
S1131C9050F29E012F5F3F4FA601662D752D842DB6
S1131CA0932D0E94CF0994FF07C00E94810C662ED9
S1131CB0572E482E392E96CF60E486E290E00E949B
S1131CC0C10C811124C060E489E290E00E94B60C4A
S1131CD0E1E0F2E0EC0FFD1FEA0DFB1D60818CE4F6
S1131CE090E00E94E21060E489E290E00E94BB0C64
S1131CF03FEFA31AB30AA11482E0B80628F4A11492
S1131D0092E0B90618F403C0712C01C0712C21E0D3
S1131D10721691F267CF70E00E94BB0C089570E0D8
S1131D200E94B60C0895EF92FF920F931F93CF93E6
S1131D30DF938C017B01C0E0D0E06FEF8CE490E096
S1131D400E94E21021968F3F11F42097B1F7811180
S1131D502BC06FEF8CE490E00E94E2108F3FC9F338
S1131D608E3F01F50BC06FEF8CE490E00E94E2100F
S1131D70F701EC0FFD1F8083219602C0C0E0D0E084
S1131D80C017D10780F36FEF8CE490E00E94E2105B
S1131D906FEF8CE490E00E94E2106FEF8CE490E02F
S1131DA00E94E21080E000C0DF91CF911F910F915B
S1131DB0FF90EF900895CF92DF92EF92FF92CF932E
S1131DC0DF938034A0F56A017B01D82F682F60640B
S1131DD08CE490E00E94E210C0E018C023E030E000
S1131DE02C1B3109220F331F220F331F220F331FE5
S1131DF0C701B60104C096958795779567952A958E
S1131E00D2F78CE490E00E94E210CF5FC43030F34C
S1131E10DD2321F0D83021F467E803C065E901C06F
S1131E2061E08CE490E00E94E21080E001C08FEF5A
S1131E30DF91CF91FF90EF90DF90CF900895FF92C4
S1131E400F931F93CF93DF93F82E8B01C0E06FEFB6
S1131E508CE490E00E94E210CF5F8F3F11F4C11137
S1131E60F6CFCC2311F1982F9E7F21F0F8018083C7
S1131E70CEEF1CC0F8018083F1E0FF1568F0C0E0EC
S1131E8015C06FEF8CE490E00E94E210F801EC0FB3
S1131E90FD1F8083219602C0C1E0D0E08F2D90E029
S1131EA0C817D90770F3C0E001C0CAEF6FEF8CE424
S1131EB090E00E94E2108C2FDF91CF911F910F913F
S1131EC0FF900895FF920F931F93CF93DF9300D059
S1131ED000D01F92CDB7DEB760E170E083E290E0FE
S1131EE00E94B10C60E183E290E00E948F0E40E812
S1131EF05AE166E070E08CE490E00E945B1010E030
S1131F0006C06FEF8CE490E00E94E2101F5F1A306D
S1131F10C0F360E183E290E00E948B0E40E050E069
S1131F20BA0180E00E94DB0E182F813039F0BE0127
S1131F306F5F7F4F81E00E941F0F182F60E183E2E3
S1131F4090E00E948F0E11112EC060E183E290E0B8
S1131F500E948B0E4AEA51E060E070E088E00E9443
S1131F60DB0E082F811107C0BE016F5F7F4F85E034
S1131F700E941F0F082F60E183E290E00E948F0E01
S1131F8001110BC08981813041F48C81813051F47D
S1131F908D818A3A41F01DEF06C08981853019F0A0
S1131FA0102F01C01DEF111118C060E183E290E011
S1131FB00E948B0E40E050E0BA018AE30E94DB0EDF
S1131FC0811106C0BE016F5F7F4F85E00E941F0F25
S1131FD060E183E290E00E948F0E11113CC060E149
S1131FE083E290E00E948B0EF12E00E040E050E08E
S1131FF0BA0187E30E94DB0E811106C0BE016F5F48
S11320007F4F81E00E941F0F811115C089818130AB
S113201091F440E050E060E070E489E20E94DB0E5D
S1132020BE016F5F7F4F81E00E941F0F8981823064
S113203040F40F5FF12E8981882339F00111D6CF46
S113204004C00F2EFEEFFF2EF02D60E183E290E03E
S11320500E948F0E1F2D111122C060E183E290E0D7
S11320600E948B0E40E050E0BA018AE30E94DB0E2E
S1132070082F811107C0BE016F5F7F4F85E00E946A
S11320801F0F082F60E183E290E00E948F0E011180
S113209006C08981813019F48D8180FF1FEF812F63
S11320A00F900F900F900F900F90DF91CF911F9191
S11320B00F91FF9008951F93CF93DF93EC019A0142
S11320C0AB0160E074E284EF90E00E94A912223038
S11320D031054105510530F480E5888381E0898329
S11320E010E03FC0243031054105510528F480E556
S11320F08883198210E035C0283031054105510527
S113210030F481E5888381E0898310E02AC020319E
S113211031054105510528F481E58883198210E0D1
S113212020C0203231054105510530F482E5888311
S113213081E0898310E015C0203431054105510543
S113214028F482E58883198210E00BC02038310519
S11321504105510528F483E58883198210E001C004
S11321601FEFCC34D105A9F460E283E290E00E9431
S1132170B60C60E283E290E00E94B10C60E883E276
S113218090E00E94BB0C60E883E290E00E94B10CF6
S113219014C068E08CE290E00E94B60C68E08CE227
S11321A090E00E94B10C60E889E290E00E94BB0CD0
S11321B060E889E290E00E94B10C812FDF91CF9119
S11321C01F910895FC01628391819923ECF7828128
S11321D00895CF92DF92EF92FF920F931F93CF93C4
S11321E06C018B0162E083E290E00E94B10CC0E0DC
S11321F006C062E083E290E00E94BB0CCF5FCF3F59
S1132200C1F762E083E290E00E94B60CE12CF12C6D
S1132210F701E250FF4FE491D801EC93F701E1504C
S1132220FF4FE4911196EC93B2E0EB0EF11CC2E384
S1132230980142E050E063E488ED90E00E94D311FD
S1132240C150882311F0C111F3CFF80180818F3F71
S113225011F0C111DDCFCC2379F081E1E2EFF1E09F
S1132260D60101900D928A95E1F7A60160E070E035
S113227088EC90E00E94541284E601C081508111E0
S1132280FDCFE12CF12CF701E453FF4FE491D80189
S1132290EC93F701E353FF4FE4911196EC93B2E012
S11322A0EB0EF11CC2E3980142E050E063E488EDD8
S11322B090E00E94D311C150882311F0C111F3CFD3
S11322C0F80180818F3F11F0C111DDCFCC2379F06B
S11322D082E1E3E0F2E0D60101900D928A95E1F704
S11322E0A60160E070E088EC90E00E945412CF9167
S11322F01F910F91FF90EF90DF90CF900895CF92B0
S1132300DF92EF92FF92CF93DF93EC019A01AB013E
S113231060E074E284EF90E00E94A91269017A01FE
S113232080E1C81AD108E108F108C701B6012EEF0F
S113233031E040E050E00E94A9122115310521F45A
S1132340198221E030E01AC02430310528F481E0FC
S1132350898324E030E012C02031310528F482E082
S1132360898320E130E00AC02034310528F483E079
S1132370898320E430E002C08FEF0EC0C901A0E0E1
S1132380B0E09C01AD01220F331F441F551FC7014C
S1132390B6010E94A9122883DF91CF91FF90EF909C
S11323A0DF90CF900895CF93DF93FC01E901660F8E
S11323B084EA848384818823ECF79181987F983020
S11323C019F4638384E8848330E080E020C0DE0174
S11323D0A30FB11D6C913F5F415051099481992322
S11323E0ECF79181987F983121F4638324E8248366
S11323F00EC0983221F4638324E8248308C0903209
S113240031F484E98483848184FDFDCF8EEF41150A
S1132410510511F08823D9F224812223ECF7983155
S113242031F4638394E99483948194FDFDCFDF9127
S1132430CF910895CF93DF93EC01CB01A0E0B0E0FE
S1132440880F991FAA1FBB1F880F991FAA1FBB1FA4
S11324509C01AD01220F331F441F551F220F331F50
S1132460441F551F60E074E284EF90E00E94A912BB
S1132470215031093D832C83188286E08A8388E1C8
S11324808983DF91CF910895FC01908195FFFDCF61
S1132490668380E00895FC0190819923ECF786819E
S11324A0089586E192E00895EF92FF920F931F93AF
S11324B0CF93DF937C01062FEA01611115C0688177
S11324C005C0C7010E944412219668816111F9CFA9
S11324D015C0FE01E10FF11D17FDFA956081C701DA
S11324E00E9444121F5F01C010E0202F30E0812FB2
S11324F0012E000C990B821793075CF3DF91CF91A7
S11325001F910F91FF90EF900895DB018F939F939C
S11325100E94CB12BF91AF91A29F800D911DA39FEA
S1132520900DB29F900D11240895AA1BBB1B51E17D
S113253007C0AA1FBB1FA617B70710F0A61BB70B2F
S1132540881F991F5A95A9F780959095BC01CD01D4
S11325500895A1E21A2EAA1BBB1BFD010DC0AA1FE0
S1132560BB1FEE1FFF1FA217B307E407F50720F0F8
S1132570A21BB30BE40BF50B661F771F881F991F73
S11325801A9469F760957095809590959B01AC01BC
S1132590BD01CF0108950E94D612A59F900DB49F4E
S11325A0900DA49F800D911D11240895A29FB00148
S11325B0B39FC001A39F700D811D1124911DB29F73
S11325C0700D811D1124911D08951F93FC019927FD
S11325D08827BC01E89411911032E9F3193010F006
S11325E01E30C8F31B3251F01D3249F4689406C002
S11325F00E940C13610F711D811D911D11911053C7
S11326001A30B0F33EF490958095709561957F4FA4
S11326108F4F9F4F1F910895592F482F372F262FE3
S1132620660F771F881F991F660F771F881F991FD2
S1132630620F731F841F951F660F771F881F991FD2
S11326400895AEE0B0E0E7E2F3E10C94E2150D8901
S11326501E8986E08C831A8309838FEF9FE79E830C
S11326608D83AE01475E5F4F6F89788DCE010196F1
S11326700E944313EF81F885E00FF11F10822E961C
S1132680E4E00C94FE15ABE0B0E0E9E4F3E10C9473
S1132690D4156C017B018A01FC01178216828381A7
S11326A081FFCCC1CE0101963C01F6019381F70173
S11326B093FD859193FF81917F01882309F4BAC129
S11326C0853239F493FD859193FF81917F018532A1
S11326D029F4B60190E00E943A15E7CF912C212C01
S11326E0312CFFE1F315D8F08B3279F038F48032D5
S11326F079F08332A1F4232D20611DC08D3261F065
S1132700803369F4232D216016C0832D8260382E16
S1132710E32DE4603E2E2AC0F32DF8601DC037FC83
S11327202DC020ED280F2A3040F08E32B9F436FC4B
S113273081C1232D2064322E19C036FE06C08AE0E2
S1132740989E200D1124922E11C0EAE02E9E200D99
S11327501124222EF32DF0623F2E08C08C3621F472
S1132760832D8068382E02C0883641F4F70193FD2A
S1132770859193FF81917F018111B3CF982F9F7D24
S11327809554933028F40C5F1F4F9FE399830DC039
S1132790833631F0833771F0833509F059C021C095
S11327A0F801808189830E5F1F4F88248394912CC4
S11327B0530113C02801F2E04F0E511CF801A08010
S11327C0B18036FE03C0692D70E002C06FEF7FEF69
S11327D0C5010E942F154C018201F32DFF773F2E76
S11327E016C0280122E0420E511CF801A080B180DD
S11327F036FE03C0692D70E002C06FEF7FEFC501A4
S11328000E9424154C01F32DF0683F2E820133FC05
S11328101BC0822D90E088169906B0F4B60180E2C0
S113282090E00E943A152A94F4CFF50137FC859183
S113283037FE81915F01B60190E00E943A152110A4
S11328402A9421E0821A91088114910471F7E8C056
S1132850843611F0893641F5F80137FE07C06081EE
S11328607181828193810C5F1F4F08C060817181E7
S1132870072E000C880B990B0E5F1F4FF32DFF766C
S11328803F2E97FF09C090958095709561957F4F75
S11328908F4F9F4FF0683F2E2AE030E0A3010E9443
S11328A07615882E861845C0853731F4232D2F7E62
S11328B0B22E2AE030E025C0932D997FB92E8F36B1
S11328C0C1F018F4883579F0B5C0803719F088372D
S11328D021F0B0C0E92FE061BE2EB4FE0DC0FB2D87
S11328E0F460BF2E09C034FE0AC0292F2660B22E20
S11328F006C028E030E005C020E130E002C020E15D
S113290032E0F801B7FE07C0608171818281938152
S11329100C5F1F4F06C06081718180E090E00E5F04
S11329201F4FA3010E947615882E8618FB2DFF7772
S11329303F2E36FE0DC0232D2E7FA22E891458F46F
S113294034FE0BC032FC09C0832D8E7EA82E05C038
S1132950B82CA32C03C0B82C01C0B92CA4FE0FC002
S1132960FE01E80DF11D8081803321F49A2D997EBA
S1132970A92E09C0A2FE06C0B394B39404C08A2D44
S1132980867809F0B394A3FC11C0A0FE06C0B2146B
S113299088F4280C922C9B180EC0B21460F4B60173
S11329A080E290E00E943A15B394F7CFB21418F481
S11329B02B1802C0982C212CA4FE10C0B60180E371
S11329C090E00E943A15A2FE17C0A1FC03C088E75C
S11329D090E002C088E590E0B6010CC08A2D8678AC
S11329E059F0A1FE02C08BE201C080E2A7FC8DE297
S11329F0B60190E00E943A15891438F4B60180E3D8
S1132A0090E00E943A159A94F7CF8A94F301E80D66
S1132A10F11D8081B60190E00E943A158110F5CF36
S1132A20222009F442CEB60180E290E00E943A15D9
S1132A302A94F6CFF6018681978102C08FEF9FEF2B
S1132A402B96E2E10C94F015FC0105906150704066
S1132A500110D8F7809590958E0F9F1F0895FC0163
S1132A606150704001900110D8F7809590958E0FB9
S1132A709F1F08950F931F93CF93DF93FB0123812F
S1132A8021FD03C08FEF9FEF2CC022FF16C04681AB
S1132A905781248135814217530744F4A081B181C1
S1132AA09D012F5F3F4F318320838C932681378193
S1132AB02F5F3F4F3783268314C08B01EC01FB014A
S1132AC00084F185E02D0995892BE1F6D80116964D
S1132AD08D919C911797019617969C938E931697B8
S1132AE0CE01DF91CF911F910F910895FA01AA278A
S1132AF0283051F1203181F1E8946F936E7F6E5F3D
S1132B007F4F8F4F9F4FAF4FB1E03ED0B4E03CD0EA
S1132B10670F781F891F9A1FA11D680F791F8A1FCD
S1132B20911DA11D6A0F711D811D911DA11D20D034
S1132B3009F468943F912AE0269F11243019305DEE
S1132B403193DEF6CF010895462F4770405D4193DF
S1132B50B3E00FD0C9F7F6CF462F4F70405D4A332C
S1132B6018F0495D31FD4052419302D0A9F7EACFF4
S1132B70B4E0A6959795879577956795BA95C9F723
S1132B8000976105710508959B01AC010A2E069416
S1132B905795479537952795BA95C9F7620F731FCF
S1132BA0841F951FA01D08952F923F924F925F920C
S1132BB06F927F928F929F92AF92BF92CF92DF9249
S1132BC0EF92FF920F931F93CF93DF93CDB7DEB7AE
S1132BD0CA1BDB0B0FB6F894DEBF0FBECDBF099442
S1132BE02A88398848885F846E847D848C849B8499
S1132BF0AA84B984C884DF80EE80FD800C811B81A7
S1132C00AA81B981CE0FD11D0FB6F894DEBF0FBED5
S10D2C10CDBFED010895F894FFCF45
S1132C1A2535642E20005B4449525D0D0A000A0DD5
S1132C2A696E6465783A20307825580A0D000A0DD1
S1132C3A636C75735F6E756D3A20307825580A0D8A
S1132C4A000A0D637572725F736563746F723A205A
S1132C5A307825580A0D000A0D576F756C6420796F
S1132C6A6F75206C696B6520746F20636F6E74696D
S1132C7A6E75652028792F6E293F0A0D000A0D4DBD
S1132C8A6F756E74204572726F723A2030782558C7
S1132C9A0A0D000A0D63757272656E745F64697257
S1132CAA20307825580A0D000A0D6E756D5F6F661F
S1132CBA5F656E74726965733A307825580A0D0037
S1132CCA0A0D456E74657220616E20656E747279A0
S1132CDA206E756D6265723A0A0D000A0D546865B4
S1132CEA20656E747279206E756D62657220796FD3
S1132CFA7520656E74657265643A20307825580AC1
S1132D0A0D00436F6E6669672073656E742E2E2EEE
S1132D1A0A0D00436F6E666967322073656E742EFE
S1092D2A2E2E0A0D00002C
S9030000FC
