S01C0000554152545F736F6C7574696F6E5F7374727563742E73726563EC
S11300000C9486000C94A3000C94A3000C94A300FD
S11300100C94A3000C94A3000C94A3000C94A300D0
S11300200C94A3000C94A3000C94A3000C94A300C0
S11300300C94A3000C94A3000C94A3000C94A300B0
S11300400C94A3000C94A3000C94A3000C94A300A0
S11300500C94A3000C94A3000C94A3000C94A30090
S11300600C94A3000C94A3000C94A3000C94A30080
S11300700C94A3000C94A3000C94A3000C94A30070
S11300800C94A3000C94A3000C94A3000C94A30060
S11300900C94A3000C94A3000C94A3000C94A30050
S11300A00C94A3000C94A3000C94A3000C94A30040
S11300B00C94A3000C94A3000C94A3000C94A30030
S11300C00C94A3000C94A3000C94A30041646472E8
S11300D02E204F6666736574202020302020312046
S11300E020322020332020342020352020362020A8
S11300F0372020382020392020412020422020434E
S11301002020442020452020460A0D0011241FBE33
S1130110CFEFD8E0DEBFCDBF12E0A0E0B1E0ECEB62
S1130120FDE102C005900D92A830B107D9F722E095
S1130130A8E0B2E001C01D92AE36B207E1F70E941A
S113014091060C94DC0E0C94000088E592E008956E
S1130150AF92BF92CF92DF92EF92FF920F931F93D1
S1130160CF936B017C018A01590160E183E290E045
S11301700E941308B701A60181E10E946308C82FF9
S1130180811105C0B501C8010E941B08C82F60E198
S113019083E290E00E941708C111C0EF8C2FCF9129
S11301A01F910F91FF90EF90DF90CF90BF90AF9091
S11301B00895860F971FFC01808108952F923F9226
S11301C04F925F926F927F928F929F92AF92BF9263
S11301D0CF92DF92EF92FF920F931F93CF93DF930F
S11301E0CDB7DEB727970FB6F894DEBF0FBECDBFED
S11301F04B015C015A8349830E94FC0A8C839D83D2
S113020080915902823049F440906A0250906B0206
S113021060906C0270906D0205C040905802512CA1
S1130220612C712C40915C0250915D0229813A81CC
S1130230C501B4010E94A8008111CDC075016401FB
S113024000E010E01F821E8269817A818E819F8185
S11302500E94D900382E25EE821709F48AC088231B
S113026009F487C069817A818E819F810B960E94EF
S1130270D9008B838E7009F07CC00F5F1F4F1F93D2
S11302800F9380E091E09F938F938D818F939C8156
S11302909F930E94F20B4C815D8160E088EC90E0BA
S11302A00E94250B0F900F900F900F900F900F90BE
S11302B0212C0EC069817A818E819F81820D911DCE
S11302C00E94D900682F88EC90E00E94EF0A2394E2
S11302D027E0221578F78B8184FD10C026C0698140
S11302E07A818E819F81820D911D0E94D900682F91
S11302F088EC90E00E94EF0A239403C068942224BF
S113030023F89AE0921558F788E0E6E0F1E0AC8132
S1130310BD8101900D928A95E1F74C815D8160E089
S113032088EC90E00E94250B24C06EE288EC90E0FB
S11303300E94EF0A6894222423F80EC069817A810E
S11303408E819F81820D911D0E94D900682F88ECB7
S113035090E00E94EF0A23942AE0221578F76DE0DA
S113036088EC90E00E94EF0A6AE088EC90E00E943A
S1130370EF0A8E819F8180969F838E838F3F914069
S113038038F18FEFC81AD80AE80AF80AD701C6016B
S113039088199909AA09BB0984159505A605B70505
S11303A078F440915C0250915D0229813A81C70141
S11303B0B6010E94A800811106C01F821E8208C0D7
S11303C01068312C05C0312C00E010E01F821E8221
S11303D031103ACF02C000E010E0C80127960FB6F2
S11303E0F894DEBF0FBECDBFDF91CF911F910F9167
S11303F0FF90EF90DF90CF90BF90AF909F908F9041
S11304007F906F905F904F903F902F9008952F9220
S11304103F924F925F926F927F928F929F92AF9290
S1130420BF92CF92DF92EF92FF920F931F93CF93DD
S1130430DF93CDB7DEB72A970FB6F894DEBF0FBEB1
S1130440CDBF4B015C0158874F833A832983809148
S11304505902823069F420916A0230916B02409112
S11304606C0250916D022B833C834D835E830AC0E2
S113047080915802282F30E040E050E02B833C83E9
S11304804D835E8340915C0250915D0229813A81E3
S1130490C501B4010E94A80081119BC075016401CB
S11304A0212C312C1A861986412C512C3201698158
S11304B07A8189859A850E94D900182F853E09F48E
S11304C050C0882309F44DC069817A8189859A8551
S11304D00B960E94D900082F8E7009F042C05FEF7E
S11304E0251A350A8F81988528163906D1F5809109
S11304F059028430D9F469817A8189859A8545962F
S11305000E94D900482E512C612C712C762C652C1C
S1130510542C442469817A8189859A8544960E9461
S1130520D900482A762C652C542C442469817A817C
S113053089859A854B960E94D900482A762C652C89
S1130540542C442469817A8189859A854A960E942B
S1130550D900482A04FF04C0689474F810E001C06C
S113056010E0A985BA859096BA87A987AF3FB140B4
S113057068F13FEFC31AD30AE30AF30AD701C601AD
S113058088199909AA09BB092B813C814D815E8197
S113059082179307A407B50778F440915C02509141
S11305A05D0229813A81C701B6010E94A800811128
S11305B005C01A8619860AC010E008C010E01A8621
S11305C01986412C512C3201689477F811116FCFA0
S11305D005C0412C512C3201689477F84114510420
S11305E06104710429F4412C512C3201689477F888
S11305F0C301B2012A960FB6F894DEBF0FBECDBF79
S1130600DF91CF911F910F91FF90EF90DF90CF90EA
S1130610BF90AF909F908F907F906F905F904F901E
S11306203F902F900895DC0190E020E030E00BC073
S1130630FD01E91BF1093196E60FF71F4081322FC6
S11306402227242B9F5F923098F3C9010895CF92FB
S1130650DF92EF92FF929C01AB01A0E060E070E0BA
S1130660CB010FC0F901EA1BF1093396E40FF51F22
S1130670E081CC24D62EE72EF82EC701B6016E2BCE
S1130680AF5FA43078F3FF90EF90DF90CF900895A0
S11306902F923F924F925F926F927F928F929F928E
S11306A0AF92BF92CF92DF92EF92FF920F931F937C
S11306B0CF93DF93CDB7DEB72F970FB6F894DEBF95
S11306C00FBECDBF9F878E870E94A5008C010E941C
S11306D0FC0A40E050E0BA0181E10E9463086E85A3
S11306E07F8580E092E00E941B08AE85BF858C91D7
S11306F08B3E09F41FC1893E09F41CC1BD0186EC7F
S113070091E00E942703AB01BC0181E10E946308D0
S11307106E857F8580E092E00E941B08EE85FF8550
S113072080818B3E19F0893E09F005C16E857F8575
S113073081E190E00E9413037C016E857F858BE04C
S113074090E00E941303BC01D80115969C938E93EC
S11307501497C701880F991F82959295907F9827C7
S1130760807F9827860F971F01970E94660B2B01A5
S1130770612C712CF801428A538A648A758A6E85C9
S11307807F8583E190E00E9413035C016E857F8581
S113079080E290E00E94270369837A838B839C83A1
S11307A06E857F858EE090E00E9413031C016E85A8
S11307B07F8580E190E00E94D9008D836E857F85DE
S11307C084E290E00E9427036B017C0161157105AE
S11307D08105910509F4B1C0A114B104C9F0450122
S11307E0A12CB12CFD81AF2FB0E09B01AC010E9484
S11307F09C0BDC01CB01820D931DA11DB11D840D49
S1130800951DA61DB71D881A990AAA0ABB0A19C004
S11308102D81A22FB0E09B01AC010E949C0BDC0156
S1130820CB01820D931DA11DB11D840D951DA61D27
S1130830B71D89809A80AB80BC80881A990AAA0A5D
S1130840BB0A6E857F858DE090E00E94D900D801B7
S11308508C93282F30E040E050E029833A834B8387
S11308605C83C501B4010E947A0B2A873B874C87BD
S11308705D876E857F858CE190E00E9427036E83FF
S11308807F83888799874101A12CB12C3D81A32FB7
S1130890B0E0A70196010E949C0B75016401C60E8D
S11308A0D71EE81EF91EC40CD51CE61CF71C8E814D
S11308B09F81A885B985C80ED91EEA1EFB1ED801E2
S11308C01A96CD92DD92ED92FC921D972E813F8176
S11308D048855985820E931EA41EB51E1E968D92C0
S11308E09D92AD92BC9251976E857F858CE290E08B
S11308F00E942703625071098109910929813A8173
S11309004B815C810E94560BC60ED71EE81EF91E51
S1130910F801C682D782E086F1862A853B854C851C
S11309205D85253F3F4F4105510548F080E28183B5
S113093080E006C005C080EF03C080EF01C080EFF7
S11309402F960FB6F894DEBF0FBECDBFDF91CF91C7
S11309501F910F91FF90EF90DF90CF90BF90AF90D9
S11309609F908F907F906F905F904F903F902F90CB
S11309700895CF92DF92EF92FF926B017C010E9467
S1130980A500FC01C114D104E104F10429F4668139
S113099077818085918512C0A70196012250310983
S11309A041095109A081B0E00E949C0BC284D38408
S11309B0E484F5846C0D7D1D8E1D9F1DFF90EF90CA
S11309C0DF90CF9008958F929F92AF92BF92EF9253
S11309D0FF920F931F93CF93DF934B015C018A0126
S11309E00E94A500EC01A981B0E0A50194010E9438
S11309F09C0BEC80FD80970140E050E00E947A0B54
S1130A008E859F85A889B989BC01CD01620F731FAA
S1130A10841F951F9801A7010E94A800A981B0E036
S1130A20A50194010E949C0BDC01CB01B8010E943A
S1130A3027039F70DF91CF911F910F91FF90EF904B
S1130A40BF90AF909F908F9008952F923F924F92B6
S1130A505F926F927F928F929F92AF92BF92CF924A
S1130A60DF92EF92FF920F931F93CF93DF93262E83
S1130A70372E882E992E8A010E94A5005C010E94BF
S1130A80FC0AD82FC92F89E7C12CD12C760193C039
S1130A90C114D104E104F10441F4622D732D882DB5
S1130AA0992D0E94B9042B013C01FF92EF92DF9231
S1130AB0CF928EE091E09F938F93CF93DF930E9428
S1130AC0F20B4D2F5C2F60E088EC90E00E94250B28
S1130AD09F928F923F922F928EE191E09F938F93FA
S1130AE0CF93DF930E94F20B4D2F5C2F60E088ECD4
S1130AF090E00E94250B7F926F925F924F9281E368
S1130B0091E09F938F93CF93DF930E94F20B4D2F2D
S1130B105C2F60E088EC90E00E94250B980140E097
S1130B2052E0C301B2010E94A800A80160E072E093
S1130B3088EC90E00E94E6072FEF421A520A620AFC
S1130B40720A3FEFC31AD30AE30AF30AF50180815C
S1130B5090E0A0E0B0E02DB73EB7285E3F4F0FB65F
S1130B60F8943EBF0FBE2DBFC816D906EA06FB0691
S1130B7071F4A801622D732D882D992D0E94E30430
S1130B80262E372E882E992EC12CD12C760186E262
S1130B90E7E4F1E0AD2FBC2F01900D928A95E1F7C7
S1130BA04D2F5C2F60E088EC90E00E94250B88ECD0
S1130BB090E00E94F60A893709F46ACFDF91CF9159
S1130BC01F910F91FF90EF90DF90CF90BF90AF9067
S1130BD09F908F907F906F905F904F903F902F9059
S1130BE00895FC012181622B61830895FC01228117
S1130BF0622B62830895FC0192816095692362836C
S1130C0008958F929F92AF92BF92EF92FF920F93AB
S1130C101F93CF93DF93CDB7DEB72B970FB6F8941E
S1130C20DEBF0FBECDBF7C0180E008C0E1E0F0E094
S1130C30EC0FFD1FE80FF11D10828F5F8B30B0F3B6
S1130C4088248A94982C540100E0C7010E94F60A73
S1130C50182F80ED810F8A3068F4612FC7010E943C
S1130C60EF0AE1E0F0E0EC0FFD1FE00FF11D10834F
S1130C700F5F2DC0183011F01F37A9F40150E1E0C7
S1130C80F0E0EC0FFD1FE00FF11D108268E0C701DA
S1130C900E94EF0A60E2C7010E94EF0A68E0C70100
S1130CA00E94EF0A14C01D3021F01A3011F01E32D8
S1130CB071F4CE0101960E94B60B4B015C016DE00C
S1130CC0C7010E94EF0A6AE0C7010E94EF0A0A30D6
S1130CD071F4CE0101960E94B60B4B015C016DE0EC
S1130CE0C7010E94EF0A6AE0C7010E94EF0A8FEF72
S1130CF088169806A806B80609F4A7CFC501B4015A
S1130D002B960FB6F894DEBF0FBECDBFDF91CF9107
S1130D101F910F91FF90EF90BF90AF909F908F9095
S1130D200895CF93DF93CDB7DEB7D2500FB6F894C2
S1130D30DEBF0FBECDBF0E94FC0A082F192F60E84A
S1130D4075E288EC90E00E94C50A40E85AE166E04A
S1130D5070E08CE490E00E94E3090E94EA0840E419
S1130D6058E76DE771E08CE490E00E94E30944ECFD
S1130D7059E060E070E088ED90E00E94710A60E163
S1130D8083E290E00E941308CE0101960E9448037A
S1130D901F928F938DE691E09F938F931F930F93F0
S1130DA00E94F20B402F512F60E088EC90E00E94EB
S1130DB0250B60E070E0CB010E94B904962E872ECB
S1130DC0782E692E9F938F937F936F9383E891E09E
S1130DD09F938F931F930F930E94F20B402F512FD9
S1130DE060E088EC90E00E94250B0FB6F894DEBF1B
S1130DF00FBECDBFAE014F5F5F4F692D782D872D9C
S1130E00962D0E94DE005C01BF928F9388E991E0E9
S1130E109F938F931F930F930E94F20B402F512F98
S1130E2060E088EC90E00E94250B0F900F900F90EB
S1130E300F900F900F908BE1E0EBF1E0A02FB12F1A
S1130E4001900D928A95E1F7402F512F60E088ECD4
S1130E5090E00E94250B88EC90E00E9401066B0153
S1130E607C01FF92EF92DF926F938BEC91E09F9362
S1130E708F931F930F930E94F20B402F512F60E02A
S1130E8088EC90E00E94250BC501A0E0B0E00FB60D
S1130E90F894DEBF0FBECDBF8C159D05AE05BF0512
S1130EA050F29E012F5F3F4FA601692D782D872DAB
S1130EB0962D0E94070294FF07C00E94B904962E43
S1130EC0872E782E692E96CFAE014F5F5F4F0E941A
S1130ED0250590CFAF92BF92DF92EF92FF920F93CE
S1130EE01F93CF93DF938C017B015A010E94FC0A6C
S1130EF0D82ED92FEA0CFB1CFF92EF9282EF91E0DF
S1130F009F938F93DF93DF920E94F20B4D2D5D2F01
S1130F1060E0C8010E94250BBF92AF9286EF91E07A
S1130F209F938F93DF93DF920E94F20B4D2D5D2FE1
S1130F3060E0C8010E94250B8DB79EB70C960FB6D2
S1130F40F8949EBF0FBE8DBFC0E01BC0F701EC0F2D
S1130F50F11D80811F928F9380E092E09F938F9385
S1130F60DF93DF920E94F20B4D2D5D2F60E0C801EC
S1130F700E94250BCF5F0F900F900F900F900F9052
S1130F800F90C03118F3C0E00DC0F701EC0FF11D54
S1130F90608180EE860F803608F06EE2C8010E9400
S1130FA0EF0ACF5FC03188F36DE0C8010E94EF0AF9
S1130FB06AE0C8010E94EF0ADF91CF911F910F915F
S1130FC0FF90EF90DF90BF90AF900895CF92DF92A3
S1130FD0EF92FF920F931F93CF93DF938C016B01DA
S1130FE07A010E94FC0AEC01AC0160E08CEC90E018
S1130FF00E94FF0AAE0160E0C8010E94250BC0E018
S1131000D0E0AE01B701C8010E946A076096CC1512
S1131010DD05B8F3DF91CF911F910F91FF90EF9011
S1131020DF90CF90089570E00E94FB05089570E072
S11310300E94F6050895EF92FF920F931F93CF93AA
S1131040DF938C017B01C0E0D0E06FEF8CE490E093
S11310500E946A0A21968F3F11F42097B1F78111FB
S11310602BC06FEF8CE490E00E946A0A8F3FC9F3B3
S11310708E3F01F50BC06FEF8CE490E00E946A0A8A
S1131080F701EC0FFD1F8083219602C0C0E0D0E081
S1131090C017D10780F36FEF8CE490E00E946A0AD6
S11310A06FEF8CE490E00E946A0A6FEF8CE490E0AA
S11310B00E946A0A80E000C0DF91CF911F910F91D6
S11310C0FF90EF900895CF92DF92EF92FF92CF932B
S11310D0DF938034A0F56A017B01D82F682F606408
S11310E08CE490E00E946A0AC0E018C023E030E07B
S11310F02C1B3109220F331F220F331F220F331FE2
S1131100C701B60104C096958795779567952A958A
S1131110D2F78CE490E00E946A0ACF5FC43030F3C7
S1131120DD2321F0D83021F467E803C065E901C06C
S113113061E08CE490E00E946A0A80E001C08FEFD5
S1131140DF91CF91FF90EF90DF90CF900895FF92C1
S11311500F931F93CF93DF93F82E8B01C0E06FEFB3
S11311608CE490E00E946A0ACF5F8F3F11F4C111B2
S1131170F6CFCC2311F1982F9E7F21F0F8018083C4
S1131180CEEF1CC0F8018083F1E0FF1568F0C0E0E9
S113119015C06FEF8CE490E00E946A0AF801EC0F2E
S11311A0FD1F8083219602C0C1E0D0E08F2D90E026
S11311B0C817D90770F3C0E001C0CAEF6FEF8CE421
S11311C090E00E946A0A8C2FDF91CF911F910F91BA
S11311D0FF900895FF920F931F93CF93DF9300D056
S11311E000D01F92CDB7DEB760E170E083E290E0FB
S11311F00E94F10560E183E290E00E94170840E854
S11312005AE166E070E08CE490E00E94E30910E0AB
S113121006C06FEF8CE490E00E946A0A1F5F1A30E8
S1131220C0F360E183E290E00E94130840E050E0E4
S1131230BA0180E00E946308182F813039F0BE01A2
S11312406F5F7F4F81E00E94A708182F60E183E25F
S113125090E00E94170811112EC060E183E290E033
S11312600E9413084AEA51E060E070E088E00E94BE
S11312706308082F811107C0BE016F5F7F4F85E0AF
S11312800E94A708082F60E183E290E00E941708FB
S113129001110BC08981813041F48C81813051F47A
S11312A08D818A3A41F01DEF06C08981853019F09D
S11312B0102F01C01DEF111118C060E183E290E00E
S11312C00E94130840E050E0BA018AE30E946308D8
S11312D0811106C0BE016F5F7F4F85E00E94A708A1
S11312E060E183E290E00E94170811113CC060E1C4
S11312F083E290E00E941308F12E00E040E050E009
S1131300BA0187E30E946308811106C0BE016F5FC2
S11313107F4F81E00E94A708811115C08981813027
S113132091F440E050E060E070E489E20E946308D8
S1131330BE016F5F7F4F81E00E94A70889818230E0
S113134040F40F5FF12E8981882339F00111D6CF43
S113135004C00F2EFEEFFF2EF02D60E183E290E03B
S11313600E9417081F2D111122C060E183E290E052
S11313700E94130840E050E0BA018AE30E94630827
S1131380082F811107C0BE016F5F7F4F85E00E9467
S1131390A708082F60E183E290E00E94170801117A
S11313A006C08981813019F48D8180FF1FEF812F60
S11313B00F900F900F900F900F90DF91CF911F918E
S11313C00F91FF9008951F93CF93DF93EC019A013F
S11313D0AB0160E074E284EF90E00E947A0B22306B
S11313E031054105510530F480E5888381E0898326
S11313F010E03FC0243031054105510528F480E553
S11314008883198210E035C0283031054105510523
S113141030F481E5888381E0898310E02AC020319B
S113142031054105510528F481E58883198210E0CE
S113143020C0203231054105510530F482E588830E
S113144081E0898310E015C0203431054105510540
S113145028F482E58883198210E00BC02038310516
S11314604105510528F483E58883198210E001C001
S11314701FEFCC34D105A9F460E283E290E00E942E
S1131480F60560E283E290E00E94F10560E883E201
S113149090E00E94FB0560E883E290E00E94F10581
S11314A014C068E08CE290E00E94F60568E08CE2EB
S11314B090E00E94F10560E889E290E00E94FB055B
S11314C060E889E290E00E94F105812FDF91CF91DD
S11314D01F910895FC01628391819923ECF7828125
S11314E00895CF92DF92EF92FF92CF93DF93EC01B6
S11314F09A01AB0160E074E284EF90E00E947A0B01
S113150069017A0180E1C81AD108E108F108C7012C
S1131510B6012EEF31E040E050E00E947A0B211535
S1131520310521F4198221E030E01AC0243031055C
S113153028F481E0898324E030E012C020313105B1
S113154028F482E0898320E130E00AC020343105A8
S113155028F483E0898320E430E002C08FEF0EC0DA
S1131560C901A0E0B0E09C01AD01220F331F441F6C
S1131570551FC701B6010E947A0B2883DF91CF91D2
S1131580FF90EF90DF90CF900895CF93DF93EC011D
S1131590CB01A0E0B0E0880F991FAA1FBB1F880FE2
S11315A0991FAA1FBB1F9C01AD01220F331F441FAB
S11315B0551F220F331F441F551F60E074E284EF50
S11315C090E00E947A0B215031093D832C831882CC
S11315D086E08A8388E18983DF91CF910895FC01B5
S11315E0908195FFFDCF668380E00895FC01908192
S11315F09923ECF78681089588E092E00895CF93CB
S1131600DF93DC0161111AC0262F30E0FD01E20FE7
S1131610F31FE491EA01C20FD31FE8836F5FE11166
S1131620F3CF0FC0292F30E0FD01E20FF31FE49147
S1131630EA01C20FD31FE8839F5F01C090E09617B1
S113164088F3862FDF91CF910895EF92FF920F9345
S11316501F93CF93DF937C01062FEA01611115C01C
S1131660688105C0C7010E94EF0A21966881611153
S1131670F9CF15C0FE01E10FF11D17FDFA95608148
S1131680C7010E94EF0A1F5F01C010E0202F30E065
S1131690812F012E000C990B821793075CF3DF91C5
S11316A0CF911F910F91FF90EF900895DB018F93DD
S11316B09F930E949C0BBF91AF91A29F800D911D9F
S11316C0A39F900DB29F900D11240895AA1BBB1BDC
S11316D051E107C0AA1FBB1FA617B70710F0A61B2E
S11316E0B70B881F991F5A95A9F780959095BC014F
S11316F0CD010895A1E21A2EAA1BBB1BFD010DC04A
S1131700AA1FBB1FEE1FFF1FA217B307E407F507AD
S113171020F0A21BB30BE40BF50B661F771F881F89
S1131720991F1A9469F760957095809590959B011F
S1131730AC01BD01CF0108950E94A70BA59F900D98
S1131740B49F900DA49F800D911D11240895A29F14
S1131750B001B39FC001A39F700D811D1124911D81
S1131760B29F700D811D1124911D08951F93FC01DA
S113177099278827BC01E89411911032E9F31930B4
S113178010F01E30C8F31B3251F01D3249F4689436
S113179006C00E94DD0B610F711D811D911D119109
S11317A010531A30B0F33EF490958095709561957E
S11317B07F4F8F4F9F4F1F910895592F482F372FD9
S11317C0262F660F771F881F991F660F771F881FA4
S11317D0991F620F731F841F951F660F771F881F41
S11317E0991F0895AEE0B0E0E8EFFBE00C94B30E6F
S11317F00D891E8986E08C831A8309838FEF9FE706
S11318009E838D83AE01475E5F4F6F89788DCE01D5
S113181001960E94140CEF81F885E00FF11F1082ED
S11318202E96E4E00C94CF0EABE0B0E0EAE1FCE0ED
S11318300C94A50E6C017B018A01FC0117821682AF
S1131840838181FFCCC1CE0101963C01F6019381D5
S1131850F70193FD859193FF81917F01882309F41A
S1131860BAC1853239F493FD859193FF81917F014B
S1131870853229F4B60190E00E940B0EE7CF912C3B
S1131880212C312CFFE1F315D8F08B3279F038F4A8
S1131890803279F08332A1F4232D20611DC08D3272
S11318A061F0803369F4232D216016C0832D82609A
S11318B0382EE32DE4603E2E2AC0F32DF8601DC0BF
S11318C037FC2DC020ED280F2A3040F08E32B9F4B9
S11318D036FC81C1232D2064322E19C036FE06C089
S11318E08AE0989E200D1124922E11C0EAE02E9ECB
S11318F0200D1124222EF32DF0623F2E08C08C36C9
S113190021F4832D8068382E02C0883641F4F70113
S113191093FD859193FF81917F018111B3CF982F1E
S11319209F7D9554933028F40C5F1F4F9FE3998358
S11319300DC0833631F0833771F0833509F059C017
S113194021C0F801808189830E5F1F4F882483940E
S1131950912C530113C02801F2E04F0E511CF801E1
S1131960A080B18036FE03C0692D70E002C06FEF25
S11319707FEFC5010E94000E4C018201F32DFF7719
S11319803F2E16C0280122E0420E511CF801A0800F
S1131990B18036FE03C0692D70E002C06FEF7FEFA7
S11319A0C5010E94F50D4C01F32DF0683F2E820114
S11319B033FC1BC0822D90E088169906B0F4B60162
S11319C080E290E00E940B0E2A94F4CFF50137FCDC
S11319D0859137FE81915F01B60190E00E940B0E64
S11319E021102A9421E0821A91088114910471F73C
S11319F0E8C0843611F0893641F5F80137FE07C096
S1131A0060817181828193810C5F1F4F08C0608166
S1131A107181072E000C880B990B0E5F1F4FF32D5D
S1131A20FF763F2E97FF09C090958095709561953C
S1131A307F4F8F4F9F4FF0683F2E2AE030E0A30185
S1131A400E94470E882E861845C0853731F4232D11
S1131A502F7EB22E2AE030E025C0932D997FB92E37
S1131A608F36C1F018F4883579F0B5C0803719F095
S1131A70883721F0B0C0E92FE061BE2EB4FE0DC05E
S1131A80FB2DF460BF2E09C034FE0AC0292F266046
S1131A90B22E06C028E030E005C020E130E002C0EC
S1131AA020E132E0F801B7FE07C0608171818281D4
S1131AB093810C5F1F4F06C06081718180E090E0CC
S1131AC00E5F1F4FA3010E94470E882E8618FB2D20
S1131AD0FF773F2E36FE0DC0232D2E7FA22E8914B4
S1131AE058F434FE0BC032FC09C0832D8E7EA82E20
S1131AF005C0B82CA32C03C0B82C01C0B92CA4FE7B
S1131B000FC0FE01E80DF11D8081803321F49A2D70
S1131B10997EA92E09C0A2FE06C0B394B39404C052
S1131B208A2D867809F0B394A3FC11C0A0FE06C0E8
S1131B30B21488F4280C922C9B180EC0B21460F4D2
S1131B40B60180E290E00E940B0EB394F7CFB2147A
S1131B5018F42B1802C0982C212CA4FE10C0B60136
S1131B6080E390E00E940B0EA2FE17C0A1FC03C00C
S1131B7088E790E002C088E590E0B6010CC08A2DA9
S1131B80867859F0A1FE02C08BE201C080E2A7FC76
S1131B908DE2B60190E00E940B0E891438F4B60170
S1131BA080E390E00E940B0E9A94F7CF8A94F3019D
S1131BB0E80DF11D8081B60190E00E940B0E8110AA
S1131BC0F5CF222009F442CEB60180E290E00E94D3
S1131BD00B0E2A94F6CFF6018681978102C08FEF0F
S1131BE09FEF2B96E2E10C94C10EFC01059061502D
S1131BF070400110D8F7809590958E0F9F1F08951F
S1131C00FC016150704001900110D8F780959095C7
S1131C108E0F9F1F08950F931F93CF93DF93FB01A4
S1131C20238121FD03C08FEF9FEF2CC022FF16C03C
S1131C3046815781248135814217530744F4A0819A
S1131C40B1819D012F5F3F4F318320838C93268187
S1131C5037812F5F3F4F3783268314C08B01EC01FC
S1131C60FB010084F185E02D0995892BE1F6D8016B
S1131C7016968D919C911797019617969C938E9327
S1131C801697CE01DF91CF911F910F910895FA011C
S1131C90AA27283051F1203181F1E8946F936E7FA7
S1131CA06E5F7F4F8F4F9F4FAF4FB1E03ED0B4E098
S1131CB03CD0670F781F891F9A1FA11D680F791FD9
S1131CC08A1F911DA11D6A0F711D811D911DA11DEA
S1131CD020D009F468943F912AE0269F11243019FA
S1131CE0305D3193DEF6CF010895462F4770405D95
S1131CF04193B3E00FD0C9F7F6CF462F4F70405D44
S1131D004A3318F0495D31FD4052419302D0A9F79E
S1131D10EACFB4E0A6959795879577956795BA9598
S1131D20C9F700976105710508959B01AC010A2E5E
S1131D3006945795479537952795BA95C9F7620F35
S1131D40731F841F951FA01D08952F923F924F92D9
S1131D505F926F927F928F929F92AF92BF92CF9237
S1131D60DF92EF92FF920F931F93CF93DF93CDB740
S1131D70DEB7CA1BDB0B0FB6F894DEBF0FBECDBFB8
S1131D8009942A88398848885F846E847D848C8489
S1131D909B84AA84B984C884DF80EE80FD800C8192
S1131DA01B81AA81B981CE0FD11D0FB6F894DEBF75
S10F1DB00FBECDBFED010895F894FFCFE5
S1131DBC2535642E20005B4449525D0D0A000A0D42
S1131DCC696E6465783A20307825580A0D000A0D3E
S1131DDC636C75735F6E756D3A20307825580A0DF7
S1131DEC000A0D637572725F736563746F723A20C7
S1131DFC307825580A0D000A0D576F756C642079DC
S1131E0C6F75206C696B6520746F20636F6E7469D9
S1131E1C6E75652028792F6E293F0A0D000A0D4D29
S1131E2C6F756E74204572726F723A203078255833
S1131E3C0A0D000A0D63757272656E745F646972C3
S1131E4C20307825580A0D000A0D6E756D5F6F668B
S1131E5C5F656E74726965733A307825580A0D00A3
S1131E6C0A0D456E74657220616E20656E7472790C
S1131E7C206E756D6265723A0A0D000A0D54686520
S1131E8C20656E747279206E756D62657220796F3F
S1131E9C7520656E74657265643A20307825580A2D
S1131EAC0D0025702000307825342E345820200065
S10B1EBC25322E3258200000EB
S9030000FC
