S01C0000554152545F736F6C7574696F6E5F7374727563742E73726563EC
S11300000C9466000C9483000C9483000C9483007D
S11300100C9483000C9483000C9483000C94830050
S11300200C9483000C9483000C9483000C94830040
S11300300C9483000C9483000C9483000C94830030
S11300400C9483000C9483000C9483000C94830020
S11300500C9483000C9483000C9483000C94830010
S11300600C9483000C9483000C9483000C94830000
S11300700C9483000C9483000C9483000C948300F0
S11300800C9483000C9483000C9483000C948300E0
S11300900C9483000C9483000C9483000C948300D0
S11300A00C9483000C9483000C9483000C948300C0
S11300B00C9483000C9483000C9483000C948300B0
S11300C00C9483000C9483000C94830011241FBEB1
S11300D0CFEFD8E0DEBFCDBF11E0A0E0B1E0E2E3B6
S11300E0FFE002C005900D92A434B107D9F721E0D6
S11300F0A4E4B1E001C01D92A439B207E1F70E9463
S113010095000C9497070C940000FC012181622B4C
S113011061830895FC012281622B62830895FC01AE
S1130120928160956923628308950F931F93CF93FF
S1130130DF9300D01F92CDB7DEB70E945704082F7B
S1130140192F60E875E288EC90E00E94260440E8EC
S11301505AE166E070E08CE490E00E94F0010E94B5
S1130160F70040E458E76DE771E08CE490E00E940A
S1130170F00144EC59E060E070E088ED90E00E940A
S113018077031F928F9380E091E09F938F931F9347
S11301900F930E94AD04402F512F60E088EC90E053
S11301A00E945A0489E1898380E28A838CEA8B83E2
S11301B0BE016F5F7F4F802F912F0E9405030F9028
S11301C00F900F900F900F900F9080E090E00F90A1
S11301D00F900F90DF91CF911F910F91089570E0D0
S11301E00E948F00089570E00E948A000895FF9293
S11301F00F931F93CF93DF9300D000D01F92CDB7FE
S1130200DEB760E170E083E290E00E94850060E187
S113021083E290E00E94F30040E85AE166E070E077
S11302208CE490E00E94F00110E006C06FEF8CE4D3
S113023090E00E9477021F5F1A30C0F360E183E20E
S113024090E00E94EF0040E050E0BA0180E00E949C
S11302507E02182F813039F0BE016F5F7F4F81E03D
S11302600E94C202182F60E183E290E00E94F30032
S113027011112EC060E183E290E00E94EF004AEA8F
S113028051E060E070E088E00E947E02082F811156
S113029007C0BE016F5F7F4F85E00E94C202082F36
S11302A060E183E290E00E94F30001110BC08981B8
S11302B0813041F48C81813051F48D818A3A41F04E
S11302C01DEF06C08981853019F0102F01C01DEF84
S11302D0111118C060E183E290E00E94EF0040E059
S11302E050E0BA018AE30E947E02811106C0BE0179
S11302F06F5F7F4F85E00E94C20260E183E290E07D
S11303000E94F30011113CC060E183E290E00E947E
S1130310EF00F12E00E040E050E0BA0187E30E94D4
S11303207E02811106C0BE016F5F7F4F81E00E9493
S1130330C202811115C08981813091F440E050E0FE
S113034060E070E489E20E947E02BE016F5F7F4F2D
S113035081E00E94C2028981823040F40F5FF12E55
S11303608981882339F00111D6CF04C00F2EFEEF06
S1130370FF2EF02D60E183E290E00E94F3001F2D38
S1130380111122C060E183E290E00E94EF0040E09E
S113039050E0BA018AE30E947E02082F811107C04F
S11303A0BE016F5F7F4F85E00E94C202082F60E1AB
S11303B083E290E00E94F300011106C0898181303C
S11303C019F48D8180FF1FEF812F0F900F900F90F4
S11303D00F900F90DF91CF911F910F91FF9008958F
S11303E01F93CF93DF93EC019A01AB0160E074E2B9
S11303F084EF90E00E948B042230310541055105C1
S113040030F480E5888381E0898310E03FC02430A4
S113041031054105510528F480E58883198210E0EF
S113042035C0283031054105510530F481E5888314
S113043081E0898310E02AC020313105410551054E
S113044028F481E58883198210E020C02032310528
S11304504105510530F482E5888381E0898310E009
S113046015C0203431054105510528F482E58883FF
S1130470198210E00BC0203831054105510528F4DC
S113048083E58883198210E001C01FEFCC34D105C5
S1130490A9F460E283E290E00E948A0060E283E2D1
S11304A090E00E94850060E883E290E00E948F0063
S11304B060E883E290E00E94850014C068E08CE26A
S11304C090E00E948A0068E08CE290E00E9485003F
S11304D060E889E290E00E948F0060E889E290E0A1
S11304E00E948500812FDF91CF911F910895FC0117
S11304F0628391819923ECF782810895CF92DF92F0
S1130500EF92FF92CF93DF938034A0F56A017B01D1
S1130510D82F682F60648CE490E00E947702C0E0DA
S113052018C023E030E02C1B3109220F331F220FA7
S1130530331F220F331FC701B60104C09695879558
S1130540779567952A95D2F78CE490E00E9477021C
S1130550CF5FC43030F3DD2321F0D83021F467E8D5
S113056003C065E901C061E08CE490E00E94770279
S113057080E001C08FEFDF91CF91FF90EF90DF908B
S1130580CF900895FF920F931F93CF93DF93F82E8C
S11305908B01C0E06FEF8CE490E00E947702CF5FA4
S11305A08F3F11F4C111F6CFCC2311F1982F9E7F08
S11305B021F0F8018083CEEF1CC0F8018083F1E0C4
S11305C0FF1568F0C0E015C06FEF8CE490E00E9466
S11305D07702F801EC0FFD1F8083219602C0C1E071
S11305E0D0E08F2D90E0C817D90770F3C0E001C0A8
S11305F0CAEF6FEF8CE490E00E9477028C2FDF91BA
S1130600CF911F910F91FF9008959F92AF92BF9247
S1130610CF92DF92EF92FF920F931F93CF93DF93CA
S1130620982E192F5B01C0E007C062E070E083E2FE
S113063090E00E948F00CF5FCF3FB9F762E070E097
S113064083E290E00E948A0065010F2EF3E0EF2E12
S1130650F12CF02D00E020E030E0A90163E488ED06
S113066090E00E94CB03D82F1F928F9384E191E0F6
S11306709F938F931F939F920E94AD04492D512FF6
S113068060E070E088EC90E00E945A04C1500F9042
S11306900F900F900F900F900F90DD2311F0C11168
S11306A0D3CFF50182811F928F9389E291E09F93CA
S11306B08F931F939F920E94AD04492D512F60E0A8
S11306C070E088EC90E00E945A040F900F900F9015
S11306D00F900F900F90DF91CF911F910F91FF908A
S11306E0EF90DF90CF90BF90AF909F900895CF92FE
S11306F0DF92EF92FF92CF93DF93EC019A01AB016B
S113070060E074E284EF90E00E948B0469017A0156
S113071080E1C81AD108E108F108C701B6012EEF3B
S113072031E040E050E00E948B042115310521F4B2
S1130730198221E030E01AC02430310528F481E028
S1130740898324E030E012C02031310528F482E0AE
S1130750898320E130E00AC02034310528F483E0A5
S1130760898320E430E002C08FEF0EC0C901A0E00D
S1130770B0E09C01AD01220F331F441F551FC70178
S1130780B6010E948B042883DF91CF91FF90EF90F4
S1130790DF90CF900895CF92DF92EF92FF92FC0109
S11307A070E0660F771F616084EA84838481882304
S11307B0ECF78181887F883011F0803119F46383EC
S11307C084E8848384818823ECF781818181887F14
S11307D08034B1F581E0E816F10421F484E88483DF
S11307E090E029C084EC8483FBCF84818823ECF7D8
S11307F08181887F803599F481E0E81AF108D60177
S1130800A90FB11D83818C939F5F81E0E816F104E9
S113081019F484E884830FC084EC84830CC0883585
S113082051F481E0E81AF1088381D601A90FB11DC2
S11308308C9384E98483E114F104B9F680E001C067
S11308408FEFFF90EF90DF90CF900895CF93DF93D9
S1130850EC01CB01A0E0B0E0880F991FAA1FBB1FD9
S1130860880F991FAA1FBB1F9C01AD01220F331FC4
S1130870441F551F220F331F441F551F60E074E2AD
S113088084EF90E00E948B04215031093D832C8336
S1130890188286E08A8388E18983DF91CF91089565
S11308A0FC01908195FFFDCF668380E0089584E488
S11308B091E00895EF92FF920F931F93CF93DF93EC
S11308C07C01062FEA01611115C0688105C0C701CA
S11308D00E945004219668816111F9CF15C0FE0170
S11308E0E10FF11D17FDFA956081C7010E945004C4
S11308F01F5F01C010E0202F30E0812F012E000C7B
S1130900990B821793075CF3DF91CF911F910F919D
S1130910FF90EF900895A1E21A2EAA1BBB1BFD01C4
S11309200DC0AA1FBB1FEE1FFF1FA217B307E407CA
S1130930F50720F0A21BB30BE40BF50B661F771F22
S1130940881F991F1A9469F7609570958095909502
S11309509B01AC01BD01CF010895AEE0B0E0E3EB33
S1130960F4E00C946E070D891E8986E08C831A834B
S113097009838FEF9FE79E838D83AE01475E5F4FB0
S11309806F89788DCE0101960E94CF04EF81F8859E
S1130990E00FF11F10822E96E4E00C948A07ABE07E
S11309A0B0E0E5EDF4E00C9460076C017B018A0192
S11309B0FC0117821682838181FFCCC1CE0101968E
S11309C03C01F6019381F70193FD859193FF819199
S11309D07F01882309F4BAC1853239F493FD8591E6
S11309E093FF81917F01853229F4B60190E00E9442
S11309F0C606E7CF912C212C312CFFE1F315D8F05A
S1130A008B3279F038F4803279F08332A1F4232DDB
S1130A1020611DC08D3261F0803369F4232D216083
S1130A2016C0832D8260382EE32DE4603E2E2AC04A
S1130A30F32DF8601DC037FC2DC020ED280F2A309F
S1130A4040F08E32B9F436FC81C1232D2064322E5D
S1130A5019C036FE06C08AE0989E200D1124922EFD
S1130A6011C0EAE02E9E200D1124222EF32DF062F7
S1130A703F2E08C08C3621F4832D8068382E02C0A6
S1130A80883641F4F70193FD859193FF81917F01AD
S1130A908111B3CF982F9F7D9554933028F40C5F28
S1130AA01F4F9FE399830DC0833631F0833771F074
S1130AB0833509F059C021C0F801808189830E5F14
S1130AC01F4F88248394912C530113C02801F2E012
S1130AD04F0E511CF801A080B18036FE03C0692D71
S1130AE070E002C06FEF7FEFC5010E94BB064C01AE
S1130AF08201F32DFF773F2E16C0280122E0420E1B
S1130B00511CF801A080B18036FE03C0692D70E04D
S1130B1002C06FEF7FEFC5010E94B0064C01F32DB8
S1130B20F0683F2E820133FC1BC0822D90E08816B2
S1130B309906B0F4B60180E290E00E94C6062A94B9
S1130B40F4CFF50137FC859137FE81915F01B60141
S1130B5090E00E94C60621102A9421E0821A91088E
S1130B608114910471F7E8C0843611F0893641F597
S1130B70F80137FE07C060817181828193810C5F27
S1130B801F4F08C060817181072E000C880B990BE0
S1130B900E5F1F4FF32DFF763F2E97FF09C09095F0
S1130BA08095709561957F4F8F4F9F4FF0683F2ED2
S1130BB02AE030E0A3010E940207882E861845C06F
S1130BC0853731F4232D2F7EB22E2AE030E025C064
S1130BD0932D997FB92E8F36C1F018F4883579F0AA
S1130BE0B5C0803719F0883721F0B0C0E92FE06133
S1130BF0BE2EB4FE0DC0FB2DF460BF2E09C034FE22
S1130C000AC0292F2660B22E06C028E030E005C0B5
S1130C1020E130E002C020E132E0F801B7FE07C075
S1130C2060817181828193810C5F1F4F06C0608156
S1130C30718180E090E00E5F1F4FA3010E940207C4
S1130C40882E8618FB2DFF773F2E36FE0DC0232DF0
S1130C502E7FA22E891458F434FE0BC032FC09C036
S1130C60832D8E7EA82E05C0B82CA32C03C0B82CCF
S1130C7001C0B92CA4FE0FC0FE01E80DF11D808156
S1130C80803321F49A2D997EA92E09C0A2FE06C0B4
S1130C90B394B39404C08A2D867809F0B394A3FC6A
S1130CA011C0A0FE06C0B21488F4280C922C9B1824
S1130CB00EC0B21460F4B60180E290E00E94C60651
S1130CC0B394F7CFB21418F42B1802C0982C212C2B
S1130CD0A4FE10C0B60180E390E00E94C606A2FE06
S1130CE017C0A1FC03C088E790E002C088E590E04B
S1130CF0B6010CC08A2D867859F0A1FE02C08BE2A1
S1130D0001C080E2A7FC8DE2B60190E00E94C60615
S1130D10891438F4B60180E390E00E94C6069A94E0
S1130D20F7CF8A94F301E80DF11D8081B60190E0BC
S1130D300E94C6068110F5CF222009F442CEB601E6
S1130D4080E290E00E94C6062A94F6CFF6018681DE
S1130D50978102C08FEF9FEF2B96E2E10C947C0702
S1130D60FC010590615070400110D8F78095909572
S1130D708E0F9F1F0895FC01615070400190011077
S1130D80D8F7809590958E0F9F1F08950F931F930A
S1130D90CF93DF93FB01238121FD03C08FEF9FEFEE
S1130DA02CC022FF16C04681578124813581421709
S1130DB0530744F4A081B1819D012F5F3F4F3183DC
S1130DC020838C93268137812F5F3F4F378326837F
S1130DD014C08B01EC01FB010084F185E02D099521
S1130DE0892BE1F6D80116968D919C91179701965F
S1130DF017969C938E931697CE01DF91CF911F91F6
S1130E000F910895FA01AA27283051F1203181F178
S1130E10E8946F936E7F6E5F7F4F8F4F9F4FAF4FFE
S1130E20B1E03ED0B4E03CD0670F781F891F9A1F11
S1130E30A11D680F791F8A1F911DA11D6A0F711DC5
S1130E40811D911DA11D20D009F468943F912AE0D1
S1130E50269F11243019305D3193DEF6CF010895B9
S1130E60462F4770405D4193B3E00FD0C9F7F6CFEA
S1130E70462F4F70405D4A3318F0495D31FD4052B2
S1130E80419302D0A9F7EACFB4E0A6959795879548
S1130E9077956795BA95C9F7009761057105089527
S1130EA09B01AC010A2E06945795479537952795D3
S1130EB0BA95C9F7620F731F841F951FA01D08956B
S1130EC02F923F924F925F926F927F928F929F9256
S1130ED0AF92BF92CF92DF92EF92FF920F931F9344
S1130EE0CF93DF93CDB7DEB7CA1BDB0B0FB6F894F5
S1130EF0DEBF0FBECDBF09942A88398848885F8435
S1130F006E847D848C849B84AA84B984C884DF80A5
S1130F10EE80FD800C811B81AA81B981CE0FD11D89
S1130F200FB6F894DEBF0FBECDBFED010895F8945F
S1050F30FFCFED
S1130F320A0D5457495F6572726F723A20307825F0
S1130F42580A0D004572726F722056616C756520E5
S1130F523D20307825580A0D00526563656976652F
S1130F62642056616C7565203D2025322E3262580C
S1070F720A0D000060
S9030000FC
