:100000000C9486000C94A3000C94A3000C94A30001
:100010000C94A3000C94A3000C94A3000C94A300D4
:100020000C94A3000C94A3000C94A3000C94A300C4
:100030000C94A3000C94A3000C94A3000C94A300B4
:100040000C94A3000C94A3000C94A3000C94A300A4
:100050000C94A3000C94A3000C94A3000C94A30094
:100060000C94A3000C94A3000C94A3000C94A30084
:100070000C94A3000C94A3000C94A3000C94A30074
:100080000C94A3000C94A3000C94A3000C94A30064
:100090000C94A3000C94A3000C94A3000C94A30054
:1000A0000C94A3000C94A3000C94A3000C94A30044
:1000B0000C94A3000C94A3000C94A3000C94A30034
:1000C0000C94A3000C94A3000C94A30041646472EC
:1000D0002E204F666673657420202030202031204A
:1000E00020322020332020342020352020362020AC
:1000F0003720203820203920204120204220204352
:100100002020442020452020460A0D0011241FBE37
:10011000CFEFD8E0DEBFCDBF11E0A0E0B1E0EEE66A
:10012000F9E102C005900D92A03BB107D9F722E09A
:10013000A0EBB1E001C01D92A631B207E1F70E9429
:100140006E040C94B50C0C94000080E092E00895CD
:10015000AF92BF92CF92DF92EF92FF920F931F93D5
:10016000CF936B017C018A01590160E183E290E049
:100170000E94EC05B701A60181E10E943C06C82F50
:10018000811105C0B501C8010E94F405C82F60E1C6
:1001900083E290E00E94F005C111C0EF8C2FCF9157
:1001A0001F910F91FF90EF90DF90CF90BF90AF9095
:1001B0000895860F971FFC01808108952F923F922A
:1001C0004F925F926F927F928F929F92AF92BF9267
:1001D000CF92DF92EF92FF920F931F93CF93DF9313
:1001E000CDB7DEB727970FB6F894DEBF0FBECDBFF1
:1001F0004B015C015A8349830E94D5088C839D83FF
:1002000080910102823049F4409012025090130212
:10021000609014027090150205C040900002512CAD
:10022000612C712C409104025091050229813A8180
:10023000C501B4010E94A8008B8349815A8160E006
:1002400072E088EC90E00E94BF052B812111CDC0A7
:100250007501640100E010E01F821E8269817A81CD
:100260008E819F810E94D900382E85EE381609F4C0
:100270008AC0332009F487C069817A818E819F8189
:100280000B960E94D9008B838E7009F07CC00F5FA3
:100290001F4F1F930F9380E091E09F938F939D8159
:1002A0009F932C812F930E94CB094C815D8160E04C
:1002B00088EC90E00E94FE080F900F900F900F9036
:1002C0000F900F90212C0EC069817A818E819F81C1
:1002D000820D911D0E94D900682F88EC90E00E9449
:1002E000C808239487E0821578F79B8194FD10C09D
:1002F00026C069817A818E819F81820D911D0E9425
:10030000D900682F88EC90E00E94C808239403C0AD
:100310006894222423F82AE0221558F788E0E6E0C2
:10032000F1E0AC81BD8101900D928A95E1F74C819D
:100330005D8160E088EC90E00E94FE0824C06EE2DF
:1003400088EC90E00E94C8086894222423F80EC02C
:1003500069817A818E819F81820D911D0E94D900D1
:10036000682F88EC90E00E94C80823948AE08215E8
:1003700078F76DE088EC90E00E94C8086AE088ECAD
:1003800090E00E94C8088E819F8180969F838E8313
:100390008F3F914038F18FEFC81AD80AE80AF80A5F
:1003A000D701C60188199909AA09BB0984159505C1
:1003B000A605B70578F44091040250910502298101
:1003C0003A81C701B6010E94A800811106C01F82B0
:1003D0001E8208C01068312C05C0312C00E010E0EE
:1003E0001F821E8231103ACF02C000E010E0C80127
:1003F00027960FB6F894DEBF0FBECDBFDF91CF9129
:100400001F910F91FF90EF90DF90CF90BF90AF9032
:100410009F908F907F906F905F904F903F902F9024
:100420000895DC0190E020E030E00BC0FD01E91B05
:10043000F1093196E60FF71F4081322F2227242B36
:100440009F5F923098F3C9010895CF92DF92EF92A7
:10045000FF929C01AB01A0E060E070E0CB010FC017
:10046000F901EA1BF1093396E40FF51FE081CC2472
:10047000D62EE72EF82EC701B6016E2BAF5FA43043
:1004800078F3FF90EF90DF90CF9008952F923F92F6
:100490004F925F926F927F928F929F92AF92BF9294
:1004A000CF92DF92EF92FF920F931F93CF93DF9340
:1004B000CDB7DEB72F970FB6F894DEBF0FBECDBF16
:1004C0009F878E870E94A5008C010E94D50840E07E
:1004D00050E0BA0181E10E943C066E857F8580E094
:1004E00092E00E94F405AE85BF858C918B3E09F4A5
:1004F0001FC1893E09F41CC1BD0186EC91E00E9438
:100500002502AB01BC0181E10E943C066E857F851E
:1005100080E092E00E94F405EE85FF8580818B3EAD
:1005200019F0893E09F005C16E857F8581E190E073
:100530000E9411027C016E857F858BE090E00E9415
:100540001102BC01D80115969C938E931497C70194
:10055000880F991F82959295907F9827807F982782
:10056000860F971F01970E943F092B01612C712C68
:10057000F801428A538A648A758A6E857F8583E191
:1005800090E00E9411025C016E857F8580E290E020
:100590000E94250269837A838B839C836E857F8585
:1005A0008EE090E00E9411021C016E857F8580E143
:1005B00090E00E94D9008D836E857F8584E290E073
:1005C0000E9425026B017C01611571058105910571
:1005D00009F4B1C0A114B104C9F04501A12CB12C9A
:1005E000FD81AF2FB0E09B01AC010E947509DC01D9
:1005F000CB01820D931DA11DB11D840D951DA61D5E
:10060000B71D881A990AAA0ABB0A19C02D81A22F00
:10061000B0E09B01AC010E947509DC01CB01820DA9
:10062000931DA11DB11D840D951DA61DB71D8980AB
:100630009A80AB80BC80881A990AAA0ABB0A6E8588
:100640007F858DE090E00E94D900D8018C93282FFF
:1006500030E040E050E029833A834B835C83C5015E
:10066000B4010E9453092A873B874C875D876E85BA
:100670007F858CE190E00E9425026E837F838887CE
:1006800099874101A12CB12C3D81A32FB0E0A70196
:1006900096010E94750975016401C60ED71EE81EF9
:1006A000F91EC40CD51CE61CF71C8E819F81A88501
:1006B000B985C80ED91EEA1EFB1ED8011A96CD9226
:1006C000DD92ED92FC921D972E813F8148855985E0
:1006D000820E931EA41EB51E1E968D929D92AD9203
:1006E000BC9251976E857F858CE290E00E94250236
:1006F000625071098109910929813A814B815C819C
:100700000E942F09C60ED71EE81EF91EF801C682E8
:10071000D782E086F1862A853B854C855D85253F1D
:100720003F4F4105510548F080E2818380E006C0DB
:1007300005C080EF03C080EF01C080EF2F960FB699
:10074000F894DEBF0FBECDBFDF91CF911F910F9107
:10075000FF90EF90DF90CF90BF90AF909F908F90E1
:100760007F906F905F904F903F902F900895CF9221
:10077000DF92EF92FF926B017C010E94A500CD28D1
:10078000CE28CF2831F4FC01668177818085918560
:1007900000C0FF90EF90DF90CF900895FC01218181
:1007A000622B61830895FC012281622B628308958C
:1007B000FC01928160956923628308958F929F92D4
:1007C000AF92BF92EF92FF920F931F93CF93DF935D
:1007D000CDB7DEB72B970FB6F894DEBF0FBECDBFF7
:1007E0007C0180E008C0E1E0F0E0EC0FFD1FE80FC5
:1007F000F11D10828F5F8B30B0F388248A94982C7F
:10080000540100E0C7010E94CF08182F80ED810F2E
:100810008A3068F4612FC7010E94C808E1E0F0E067
:10082000EC0FFD1FE00FF11D10830F5F2DC018307E
:1008300011F01F37A9F40150E1E0F0E0EC0FFD1FCB
:10084000E00FF11D108268E0C7010E94C80860E255
:10085000C7010E94C80868E0C7010E94C80814C008
:100860001D3021F01A3011F01E3271F4CE010196C4
:100870000E948F094B015C016DE0C7010E94C8080E
:100880006AE0C7010E94C8080A3071F4CE010196DF
:100890000E948F094B015C016DE0C7010E94C808EE
:1008A0006AE0C7010E94C8088FEF88169806A8065C
:1008B000B80609F4A7CFC501B4012B960FB6F8947A
:1008C000DEBF0FBECDBFDF91CF911F910F91FF9083
:1008D000EF90BF90AF909F908F900895CF93DF934C
:1008E000CDB7DEB7D2500FB6F894DEBF0FBECDBF86
:1008F0000E94D508082F192F60E875E288EC90E077
:100900000E949E0840E85AE166E070E08CE490E0C6
:100910000E94BC070E94C30640E458E76DE771E0FF
:100920008CE490E00E94BC0744EC59E060E070E089
:1009300088ED90E00E944A0860E183E290E00E9426
:10094000EC05CE0101960E9446021F928F938EE025
:1009500091E09F938F931F930F930E94CB09402F99
:10096000512F60E088EC90E00E94FE0860E070E0AB
:10097000CB010E94B703B62EA72E982E892E9F93E7
:100980008F937F936F9384E291E09F938F931F9354
:100990000F930E94CB09402F512F60E088EC90E02C
:1009A0000E94FE080FB6F894DEBF0FBECDBFAE01A9
:1009B0004F5F5F4F6B2D7A2D892D982D0E94DE00A1
:1009C0009F938F9389E391E09F938F931F930F934E
:1009D0000E94CB09402F512F60E088EC90E00E94EC
:1009E000FE0882E2E1E5F1E0A02FB12F01900D9227
:1009F0008A95E1F7402F512F60E088EC90E00E944B
:100A0000FE0888EC90E00E94DE03C62ED72EE82E6A
:100A1000F92E9F938F937F936F9383E791E09F933A
:100A20008F931F930F930E94CB09402F512F60E0AB
:100A300088EC90E00E94FE0860E183E290E00E9472
:100A4000EC054C2D5D2D6E2D7F2D81E10E943C0625
:100A5000BE016F5F7F4F80E092E00E94F40560E18D
:100A600083E290E00E94F005AE014F5F5F4F60E0CF
:100A700072E088EC90E00E94BF050FB6F894DEBFEC
:100A80000FBECDBF94CFAF92BF92DF92EF92FF9295
:100A90000F931F93CF93DF938C017B015A010E9428
:100AA000D508D82ED92FEA0CFB1CFF92EF928AE9C9
:100AB00091E09F938F93DF93DF920E94CB094D2D9E
:100AC0005D2F60E0C8010E94FE08BF92AF928EE9E0
:100AD00091E09F938F93DF93DF920E94CB094D2D7E
:100AE0005D2F60E0C8010E94FE088DB79EB70C968E
:100AF0000FB6F8949EBF0FBE8DBFC0E01BC0F701BC
:100B0000EC0FF11D80811F928F9388EA91E09F93F3
:100B10008F93DF93DF920E94CB094D2D5D2F60E014
:100B2000C8010E94FE08CF5F0F900F900F900F90AA
:100B30000F900F90C03118F3C0E00DC0F701EC0F1B
:100B4000F11D608180EE860F803608F06EE2C801EC
:100B50000E94C808CF5FC03188F36DE0C8010E94D1
:100B6000C8086AE0C8010E94C808DF91CF911F91B0
:100B70000F91FF90EF90DF90BF90AF900895CF92CC
:100B8000DF92EF92FF920F931F93CF93DF938C012D
:100B90006B017A010E94D508EC01AC0160E08CEC9D
:100BA00090E00E94D808AE0160E0C8010E94FE08F3
:100BB000C0E0D0E0AE01B701C8010E9443056096D5
:100BC000CC15DD05B8F3DF91CF911F910F91FF9008
:100BD000EF90DF90CF90089570E00E94D8030895C1
:100BE00070E00E94D3030895EF92FF920F931F933A
:100BF000CF93DF938C017B01C0E0D0E06FEF8CE4FA
:100C000090E00E94430821968F3F11F42097B1F79E
:100C100081112BC06FEF8CE490E00E9443088F3F5E
:100C2000C9F38E3F01F50BC06FEF8CE490E00E949A
:100C30004308F701EC0FFD1F8083219602C0C0E03E
:100C4000D0E0C017D10780F36FEF8CE490E00E94F2
:100C500043086FEF8CE490E00E9443086FEF8CE450
:100C600090E00E94430880E000C0DF91CF911F9187
:100C70000F91FF90EF900895CF92DF92EF92FF9245
:100C8000CF93DF938034A0F56A017B01D82F682FC2
:100C900060648CE490E00E944308C0E018C023E048
:100CA00030E02C1B3109220F331F220F331F220F7C
:100CB000331FC701B60104C0969587957795679550
:100CC0002A95D2F78CE490E00E944308CF5FC430AD
:100CD00030F3DD2321F0D83021F467E803C065E963
:100CE00001C061E08CE490E00E94430880E001C014
:100CF0008FEFDF91CF91FF90EF90DF90CF9008952D
:100D0000FF920F931F93CF93DF93F82E8B01C0E0D8
:100D10006FEF8CE490E00E944308CF5F8F3F11F4A7
:100D2000C111F6CFCC2311F1982F9E7F21F0F8014D
:100D30008083CEEF1CC0F8018083F1E0FF1568F0DE
:100D4000C0E015C06FEF8CE490E00E944308F8010A
:100D5000EC0FFD1F8083219602C0C1E0D0E08F2DF3
:100D600090E0C817D90770F3C0E001C0CAEF6FEF79
:100D70008CE490E00E9443088C2FDF91CF911F916B
:100D80000F91FF900895FF920F931F93CF93DF93DE
:100D900000D000D01F92CDB7DEB760E170E083E2F3
:100DA00090E00E94CE0360E183E290E00E94F005B3
:100DB00040E85AE166E070E08CE490E00E94BC07F5
:100DC00010E006C06FEF8CE490E00E9443081F5FC4
:100DD0001A30C0F360E183E290E00E94EC0540E04D
:100DE00050E0BA0180E00E943C06182F813039F0B3
:100DF000BE016F5F7F4F81E00E948006182F60E187
:100E000083E290E00E94F00511112EC060E183E2C0
:100E100090E00E94EC054AEA51E060E070E088E072
:100E20000E943C06082F811107C0BE016F5F7F4FF3
:100E300085E00E948006082F60E183E290E00E9436
:100E4000F00501110BC08981813041F48C81813022
:100E500051F48D818A3A41F01DEF06C089818530B9
:100E600019F0102F01C01DEF111118C060E183E2CD
:100E700090E00E94EC0540E050E0BA018AE30E9455
:100E80003C06811106C0BE016F5F7F4F85E00E9466
:100E9000800660E183E290E00E94F00511113CC001
:100EA00060E183E290E00E94EC05F12E00E040E07A
:100EB00050E0BA0187E30E943C06811106C0BE01E2
:100EC0006F5F7F4F81E00E948006811115C089818C
:100ED000813091F440E050E060E070E489E20E94EB
:100EE0003C06BE016F5F7F4F81E00E9480068981D2
:100EF000823040F40F5FF12E8981882339F001118F
:100F0000D6CF04C00F2EFEEFFF2EF02D60E183E25E
:100F100090E00E94F0051F2D111122C060E183E2D4
:100F200090E00E94EC0540E050E0BA018AE30E94A4
:100F30003C06082F811107C0BE016F5F7F4F85E01F
:100F40000E948006082F60E183E290E00E94F00595
:100F5000011106C08981813019F48D8180FF1FEF56
:100F6000812F0F900F900F900F900F90DF91CF91E6
:100F70001F910F91FF9008951F93CF93DF93EC0182
:100F80009A01AB0160E074E284EF90E00E945309A3
:100F9000223031054105510530F480E5888381E038
:100FA000898310E03FC0243031054105510528F404
:100FB00080E58883198210E035C02830310541056D
:100FC000510530F481E5888381E0898310E02AC0EF
:100FD000203131054105510528F481E588831982C6
:100FE00010E020C0203231054105510530F482E582
:100FF000888381E0898310E015C0203431054105E4
:10100000510528F482E58883198210E00BC020384E
:1010100031054105510528F483E58883198210E0E4
:1010200001C01FEFCC34D105A9F460E283E290E067
:101030000E94D30360E283E290E00E94CE0360E866
:1010400083E290E00E94D80360E883E290E00E948F
:10105000CE0314C068E08CE290E00E94D30368E005
:101060008CE290E00E94CE0360E889E290E00E946A
:10107000D80360E889E290E00E94CE03812FDF91DF
:10108000CF911F910895FC01628391819923ECF720
:1010900082810895CF92DF92EF92FF92CF93DF93F8
:1010A000EC019A01AB0160E074E284EF90E00E94F1
:1010B000530969017A0180E1C81AD108E108F108F1
:1010C000C701B6012EEF31E040E050E00E94530925
:1010D0002115310521F4198221E030E01AC02430B5
:1010E000310528F481E0898324E030E012C020310A
:1010F000310528F482E0898320E130E00AC0203401
:10110000310528F483E0898320E430E002C08FEFCA
:101110000EC0C901A0E0B0E09C01AD01220F331F59
:10112000441F551FC701B6010E9453092883DF9150
:10113000CF91FF90EF90DF90CF900895CF93DF9302
:10114000EC01CB01A0E0B0E0880F991FAA1FBB1FE4
:10115000880F991FAA1FBB1F9C01AD01220F331FCF
:10116000441F551F220F331F441F551F60E074E2B8
:1011700084EF90E00E945309215031093D832C8374
:10118000188286E08A8388E18983DF91CF91089570
:10119000FC01908195FFFDCF668380E00895FC01FE
:1011A00090819923ECF78681089580EB91E0089572
:1011B000CF93DF93DC0161111AC0262F30E0FD01CF
:1011C000E20FF31FE491EA01C20FD31FE8836F5FC0
:1011D000E111F3CF0FC0292F30E0FD01E20FF31F23
:1011E000E491EA01C20FD31FE8839F5F01C090E042
:1011F000961788F3862FDF91CF910895EF92FF9293
:101200000F931F93CF93DF937C01062FEA016111A7
:1012100015C0688105C0C7010E94C8082196688171
:101220006111F9CF15C0FE01E10FF11D17FDFA950F
:101230006081C7010E94C8081F5F01C010E0202F15
:1012400030E0812F012E000C990B821793075CF37D
:10125000DF91CF911F910F91FF90EF900895DB01E7
:101260008F939F930E947509BF91AF91A29F800DAC
:10127000911DA39F900DB29F900D11240895AA1B5C
:10128000BB1B51E107C0AA1FBB1FA617B70710F071
:10129000A61BB70B881F991F5A95A9F780959095A3
:1012A000BC01CD010895A1E21A2EAA1BBB1BFD01B2
:1012B0000DC0AA1FBB1FEE1FFF1FA217B307E40735
:1012C000F50720F0A21BB30BE40BF50B661F771F8D
:1012D000881F991F1A9469F760957095809590956D
:1012E0009B01AC01BD01CF0108950E948009A59F1B
:1012F000900DB49F900DA49F800D911D1124089511
:10130000A29FB001B39FC001A39F700D811D112446
:10131000911DB29F700D811D1124911D08951F9381
:10132000FC0199278827BC01E89411911032E9F358
:10133000193010F01E30C8F31B3251F01D3249F441
:10134000689406C00E94B609610F711D811D911D30
:10135000119110531A30B0F33EF49095809570952A
:1013600061957F4F8F4F9F4F1F910895592F482FA1
:10137000372F262F660F771F881F991F660F771F3D
:10138000881F991F620F731F841F951F660F771F99
:10139000881F991F0895AEE0B0E0E1EDF9E00C94EC
:1013A0008C0C0D891E8986E08C831A8309838FEF4C
:1013B0009FE79E838D83AE01475E5F4F6F89788D77
:1013C000CE0101960E94ED09EF81F885E00FF11F33
:1013D00010822E96E4E00C94A80CABE0B0E0E3EFB2
:1013E000F9E00C947E0C6C017B018A01FC011782F0
:1013F0001682838181FFCCC1CE0101963C01F601AA
:101400009381F70193FD859193FF81917F0188235B
:1014100009F4BAC1853239F493FD859193FF819126
:101420007F01853229F4B60190E00E94E40BE7CFFA
:10143000912C212C312CFFE1F315D8F08B3279F06F
:1014400038F4803279F08332A1F4232D20611DC05D
:101450008D3261F0803369F4232D216016C0832D15
:101460008260382EE32DE4603E2E2AC0F32DF86012
:101470001DC037FC2DC020ED280F2A3040F08E32E1
:10148000B9F436FC81C1232D2064322E19C036FEFA
:1014900006C08AE0989E200D1124922E11C0EAE029
:1014A0002E9E200D1124222EF32DF0623F2E08C017
:1014B0008C3621F4832D8068382E02C0883641F4A2
:1014C000F70193FD859193FF81917F018111B3CF46
:1014D000982F9F7D9554933028F40C5F1F4F9FE306
:1014E00099830DC0833631F0833771F0833509F06D
:1014F00059C021C0F801808189830E5F1F4F882465
:101500008394912C530113C02801F2E04F0E511C1B
:10151000F801A080B18036FE03C0692D70E002C0E2
:101520006FEF7FEFC5010E94D90B4C018201F32DB3
:10153000FF773F2E16C0280122E0420E511CF80111
:10154000A080B18036FE03C0692D70E002C06FEF4D
:101550007FEFC5010E94CE0B4C01F32DF0683F2EAA
:10156000820133FC1BC0822D90E088169906B0F4EE
:10157000B60180E290E00E94E40B2A94F4CFF501DA
:1015800037FC859137FE81915F01B60190E00E94A2
:10159000E40B21102A9421E0821A9108811491040D
:1015A00071F7E8C0843611F0893641F5F80137FE4D
:1015B00007C060817181828193810C5F1F4F08C0D9
:1015C00060817181072E000C880B990B0E5F1F4FF5
:1015D000F32DFF763F2E97FF09C09095809570956B
:1015E00061957F4F8F4F9F4FF0683F2E2AE030E08C
:1015F000A3010E94200C882E861845C0853731F43F
:10160000232D2F7EB22E2AE030E025C0932D997F26
:10161000B92E8F36C1F018F4883579F0B5C080370F
:1016200019F0883721F0B0C0E92FE061BE2EB4FE7A
:101630000DC0FB2DF460BF2E09C034FE0AC0292F57
:101640002660B22E06C028E030E005C020E130E080
:1016500002C020E132E0F801B7FE07C0608171816D
:10166000828193810C5F1F4F06C06081718180E091
:1016700090E00E5F1F4FA3010E94200C882E861859
:10168000FB2DFF773F2E36FE0DC0232D2E7FA22E81
:10169000891458F434FE0BC032FC09C0832D8E7EB1
:1016A000A82E05C0B82CA32C03C0B82C01C0B92C9F
:1016B000A4FE0FC0FE01E80DF11D8081803321F4EE
:1016C0009A2D997EA92E09C0A2FE06C0B394B394A8
:1016D00004C08A2D867809F0B394A3FC11C0A0FE43
:1016E00006C0B21488F4280C922C9B180EC0B214B9
:1016F00060F4B60180E290E00E94E40BB394F7CF6F
:10170000B21418F42B1802C0982C212CA4FE10C07F
:10171000B60180E390E00E94E40BA2FE17C0A1FC9A
:1017200003C088E790E002C088E590E0B6010CC0F5
:101730008A2D867859F0A1FE02C08BE201C080E2BA
:10174000A7FC8DE2B60190E00E94E40B891438F406
:10175000B60180E390E00E94E40B9A94F7CF8A945C
:10176000F301E80DF11D8081B60190E00E94E40BC9
:101770008110F5CF222009F442CEB60180E290E03C
:101780000E94E40B2A94F6CFF6018681978102C06D
:101790008FEF9FEF2B96E2E10C949A0CFC010590E1
:1017A000615070400110D8F7809590958E0F9F1F63
:1017B0000895FC016150704001900110D8F78095A8
:1017C00090958E0F9F1F08950F931F93CF93DF93D4
:1017D000FB01238121FD03C08FEF9FEF2CC022FF6F
:1017E00016C046815781248135814217530744F43E
:1017F000A081B1819D012F5F3F4F318320838C9366
:10180000268137812F5F3F4F3783268314C08B019A
:10181000EC01FB010084F185E02D0995892BE1F6AF
:10182000D80116968D919C911797019617969C93C7
:101830008E931697CE01DF91CF911F910F9108954E
:10184000FA01AA27283051F1203181F1E8946F93F1
:101850006E7F6E5F7F4F8F4F9F4FAF4FB1E03ED097
:10186000B4E03CD0670F781F891F9A1FA11D680F35
:10187000791F8A1F911DA11D6A0F711D811D911D68
:10188000A11D20D009F468943F912AE0269F1124DD
:101890003019305D3193DEF6CF010895462F477041
:1018A000405D4193B3E00FD0C9F7F6CF462F4F709C
:1018B000405D4A3318F0495D31FD4052419302D0FA
:1018C000A9F7EACFB4E0A6959795879577956795A0
:1018D000BA95C9F700976105710508959B01AC01A0
:1018E0000A2E06945795479537952795BA95C9F7C7
:1018F000620F731F841F951FA01D08952F923F92A2
:101900004F925F926F927F928F929F92AF92BF920F
:10191000CF92DF92EF92FF920F931F93CF93DF93BB
:10192000CDB7DEB7CA1BDB0B0FB6F894DEBF0FBE18
:10193000CDBF09942A88398848885F846E847D8465
:101940008C849B84AA84B984C884DF80EE80FD8067
:101950000C811B81AA81B981CE0FD11D0FB6F894DD
:0E196000DEBF0FBECDBFED010895F894FFCF9E
:10196E002535642E20005B4449525D0D0A000A0D98
:10197E004D6F756E74204572726F723A20307825F5
:10198E00580A0D000A0D63757272656E745F646994
:10199E007220307825580A0D000A0D6E756D5F6F36
:1019AE00665F656E74726965733A307825580A0DF4
:1019BE00000A0D456E746572206120626C6F636B58
:1019CE00206E756D62657220746F20726561643A67
:1019DE000A0D000A0D54686520626C6F636B206EF1
:1019EE00756D62657220796F7520656E74657265AE
:1019FE00643A20307825580A0D0025702000307882
:101A0E0025342E345820200025322E325820000046
:00000001FF
