S0140000457870365F6578616D706C652E7372656362
S11300000C94B7010C94C9010C94C9010C94C90156
S11300100C94C9010C94C9010C94C9010C94C90134
S11300200C94C9010C94C9010C94C9010C94C90124
S11300300C94C9010C94C9010C94C9010C94C90114
S11300400C94C9010C94C9010C94C9010C94C90104
S11300500C94C9010C94C9010C94C9010C94C901F4
S11300600C94C9010C94C9010C94C9010C94C901E4
S11300700C94C9010C94C9010C94C9010C94C901D4
S11300800C94C9010C94C9010C94C9010C94C901C4
S11300900C94C9010C94C9010C94C9010C94C901B4
S11300A00C94C9010C94C9010C94C9010C94C901A4
S11300B00C94C9010C94C9010C94C9010C94C90194
S11300C00C94C9010C94C9010C94C90148656C6C69
S11300D06F20576F726C64210A0D00AED580A81F83
S11300E0D300408D14A1C8DA02818FD9F1DB40A47A
S11300F0A6AFFF00000000000000000000000000A8
S113010000000000000000000000000000000000EB
S113011000000000000000000000000000000000DB
S113012000000000000000000000000000000000CB
S113013000000000000000000000000000000000BB
S113014000000000FE7C388080387CFE000C140027
S11301500C14140C00140C88CCEECC882266EE66C9
S113016022387C7C7C382070A8203E0804FE0408D9
S11301702040FE40201010543810103854101080C5
S11301808894A28080A294888040707C7040041C73
S11301907C1C04000000000000009E0000000E0013
S11301A00E0028FE28FE284852FE5222462610C879
S11301B0C46C92AA44A0000A0600000038448200DD
S11301C0008244380028107C102810107C10100085
S11301D0A0300000101010101000C0C0000040201B
S11301E01008047CA2928A7C0084FE800084C2A24F
S11301F0928C42828A9662302824FE204E8A8A8A11
S11302007278949292600602E2120E6C9292926C50
S11302100C9292523C006C6C000000AC6C0000101C
S11302202844820028282828280082442810040210
S1130230A2120C6492F2827CF8242224F8FE929298
S1130240926C7C82828244FE82824438FE92929234
S113025082FE121212027C829292F4FE101010FEA0
S11302600082FE82004080827E02FE10284482FECC
S113027080808080FE041804FEFE081020FE7C822C
S113028082827CFE1212120C7C82A242BCFE1232CA
S1130290528C4C929292640202FE02027E80808012
S11302A07E3E4080403E7E8070807EC6281028C6F8
S11302B00E10E0100EC2A2928A8600FE8282000412
S11302C008102040008282FE000804020408808096
S11302D0808080000204080040A8A8A8F0FE90884E
S11302E08870708888884070888890FE70A8A8A854
S11302F03010FC12020410A8A8A878FE100808F018
S11303000090FA80004080887A00FE205088000027
S113031082FE8000F808F008F0F8100808F07088F1
S1130320888870F82828281010282830F8F8100831
S1130330081090A8A8A840087E8880407880804053
S1130340F838408040387880608078885020508821
S113035018A0A0A07888C8A8988800106C82000013
S113036000FE000000826C100020101020101124E8
S11303701FBECFEFD8E0DEBFCDBF21E0A0E0B1E0EB
S113038001C01D92A035B207E1F70E94F7010C9459
S1130390FE050C940000FC012181622B6183089509
S11303A0FC0191816095692361830895FC01228198
S11303B0622B62830895FC012281622B628308957B
S11303C0FC0192816095692362830895FC01808118
S11303D0682311F480E0089581E008950E94CB0120
S11303E008950E94DB0108950E94E00108950E948F
S11303F08205EC0160E875E288EC90E00E9451050A
S113040040E856E968E970E08CE490E00E94CD048D
S11304108CE490E00E942E04AE0160E08CEC90E04D
S11304200E948505AE0160E088EC90E00E94AB0577
S11304308CE490E00E94A602AE016CE08CE490E0B3
S11304400E949C0460E886E290E00E94F10160E86A
S113045086E290E00E94EE0168E083E290E00E9470
S1130460F10168E083E290E00E94EE0160E18CE239
S113047090E00E94F10160E18CE290E00E94EE01C4
S113048060E880E290E00E94F10160E880E290E0A0
S11304900E94EE0164E070E083E290E00E94D001EB
S11304A060E170E080E290E00E94D00160E270E0E0
S11304B080E290E00E94D00160E270E080E290E08F
S11304C00E94D60160E886E290E00E94F4012FEFDA
S11304D089E698E1215080409040E1F700C0000097
S11304E060E886E290E00E94F1012FEF89E698E14E
S11304F0215080409040E1F700C0000064E070E0CB
S113050083E290E00E94E601811105C068E083E285
S113051090E00E94F40160E170E080E290E00E94CB
S1130520E601811105C060E18CE290E00E94F401D3
S113053060E270E080E290E00E94E6018111C2CFA7
S113054060E880E290E00E94F401BCCFCF93DF9397
S1130550EC0160E480E290E00E94E00161E083E26B
S113056090E00E94E00160EBCE010E943E0561E054
S113057083E290E00E94DB0161E083E290E00E946C
S1130580E00160E0CE010E943E0561E083E290E07C
S11305900E94DB0161E083E290E00E94E00160E1FF
S11305A0CE010E943E0561E083E290E00E94DB01FF
S11305B0DF91CF910895CF93DF93EC0160E480E263
S11305C090E00E94E00161E083E290E00E94E0019B
S11305D061EBCE010E943E0561E083E290E00E945F
S11305E0DB0161E083E290E00E94E00160E0CE0183
S11305F00E943E0561E083E290E00E94DB0161E03D
S113060083E290E00E94E00160E1CE010E943E0599
S113061061E083E290E00E94DB01DF91CF910895D5
S1130620CF93DF93EC0160E480E290E00E94E0016C
S113063061E083E290E00E94E00162EBCE010E945F
S11306403E0561E083E290E00E94DB0161E083E229
S113065090E00E94E00160E0CE010E943E0561E06E
S113066083E290E00E94DB0161E083E290E00E947B
S1130670E00160E1CE010E943E0561E083E290E08A
S11306800E94DB01DF91CF910895CF93DF93EC01BA
S113069060E480E290E00E94E00161E083E290E0A7
S11306A00E94E00163EBCE010E943E0561E083E21B
S11306B090E00E94DB0161E083E290E00E94E001AF
S11306C060E0CE010E943E0561E083E290E00E947A
S11306D0DB0161E083E290E00E94E00160E1CE0191
S11306E00E943E0561E083E290E00E94DB01DF911D
S11306F0CF910895FF920F931F93CF93DF938C01B3
S1130700F62E60E480E290E00E94DB01D0E01DC0A0
S11307108F2D90E0FC01EE0FFF1FEE0FFF1FE80F7F
S1130720F91FED0FF11DED50FF4FC49161E083E21D
S113073090E00E94E0016C2FC8010E943E0561E038
S113074083E290E00E94DB01DF5FD53008F361E0D3
S113075083E290E00E94E00160E0C8010E943E054F
S113076061E083E290E00E94DB01DF91CF911F9171
S11307700F91FF9008951F93CF93DF93EC010E9494
S1130780A60260E480E290E00E94DB0110E00FC06A
S113079061E083E290E00E94E00160E0CE010E940B
S11307A03E0561E083E290E00E94DB011F5F1123BC
S11307B07CF7CE010E94DB0260E480E290E00E94BC
S11307C0DB0110E00FC061E083E290E00E94E001F1
S11307D060E0CE010E943E0561E083E290E00E9469
S11307E0DB011F5F11237CF7CE010E94100360E43C
S11307F080E290E00E94DB0110E00FC061E083E240
S113080090E00E94E00160E0CE010E943E0561E0BC
S113081083E290E00E94DB011F5F11237CF7CE018D
S11308200E94450360E480E290E00E94DB0110E056
S11308300FC061E083E290E00E94E00160E0CE013D
S11308400E943E0561E083E290E00E94DB011F5FAD
S113085011237CF7DF91CF911F910895EF92FF92BE
S11308600F931F93CF937C0160E889E290E00E948C
S1130870DB0160E889E290E00E94CB0160E480E261
S113088090E00E94DB0160E480E290E00E94CB01F2
S113089061E083E290E00E94DB0161E083E290E0AA
S11308A00E94CB0160E889E290E00E94E00180E0D0
S11308B090E001C00196843F21E09207D8F360E8FC
S11308C089E290E00E94DB0160E480E290E00E9413
S11308D0E001EBEDF0E0C49100E010E014C061E051
S11308E083E290E00E94E0016C2FC7010E943E0564
S11308F061E083E290E00E94DB010F5F1F4FF8018B
S1130900E552FF4FC491CF3F51F761E083E290E09D
S11309100E94E00160E4C7010E943E0561E083E2B9
S113092090E00E94DB01C7010E94BB03CF911F919D
S11309300F91FF90EF900895EF92FF920F931F9302
S1130940CF93DF937C01062FEA01611115C0688102
S113095005C0C7010E947A03219668816111F9CF0D
S113096015C0FE01E10FF11D17FDFA956081C70165
S11309700E947A031F5F01C010E0202F30E0812F16
S1130980012E000C990B821793075CF3DF91CF9132
S11309901F910F91FF90EF9008951F93CF93DF93D2
S11309A0EC019A01AB0160E074E284EF90E00E94F4
S11309B0DC05223030F480E5888381E0898310E00F
S11309C036C0233029F480E58883198210E02FC0D3
S11309D08BEF820F833030F481E5888381E0898353
S11309E010E025C087EF820F873028F481E58883E3
S11309F0198210E01CC08FEE820F8F3030F482E534
S1130A00888381E0898310E012C08FED820F8F31DB
S1130A1028F482E58883198210E009C021542F3319
S1130A2028F483E58883198210E001C01FE0CC34E8
S1130A30D10559F460EA83E290E00E94CB0160E8BA
S1130A4083E290E00E94E00114C0CC3AD10581F425
S1130A5060E889E290E00E94CB0168E08CE290E0DB
S1130A600E94CB0160E889E290E00E94E00101C0AD
S1130A701EE0812FDF91CF911F910895FC016283C5
S1130A8090E021819F5F222314F09111FACF9923E2
S1130A9021F026FD04C080E0089580E8089580ECEC
S1130AA00895CF93DF93EC01CB01A0E0B0E0880F71
S1130AB0991FAA1FBB1F880F991FAA1FBB1F9C0148
S1130AC0AD01220F331F441F551F220F331F441F34
S1130AD0551F60E074E284EF90E00E94DC05215031
S1130AE031093D832C83188286E08A8388E18983D7
S1130AF0DF91CF910895FC01908195FFFDCF66832E
S1130B0080E0089580E091E00895CF93DF93DC01C5
S1130B1061111AC0262F30E0FD01E20FF31FE491AA
S1130B20EA01C20FD31FE8836F5FE111F3CF0FC057
S1130B30292F30E0FD01E20FF31FE491EA01C20F17
S1130B40D31FE8839F5F01C090E0961788F3862F38
S1130B50DF91CF910895EF92FF920F931F93CF935C
S1130B60DF937C01062FEA01611115C0688105C07D
S1130B70C7010E947B05219668816111F9CF15C0D8
S1130B80FE01E10FF11D17FDFA956081C7010E9476
S1130B907B051F5F01C010E0202F30E0812F012E64
S1130BA0000C990B821793075CF3DF91CF911F918F
S1130BB00F91FF90EF900895A1E21A2EAA1BBB1B80
S1130BC0FD010DC0AA1FBB1FEE1FFF1FA217B30715
S1130BD0E407F50720F0A21BB30BE40BF50B661F2B
S1130BE0771F881F991F1A9469F7609570958095EF
S1130BF090959B01AC01BD01CF010895F894FFCFFE
S9030000FC
