:100000000C94B7010C94C9010C94C9010C94C9015A
:100010000C94C9010C94C9010C94C9010C94C90138
:100020000C94C9010C94C9010C94C9010C94C90128
:100030000C94C9010C94C9010C94C9010C94C90118
:100040000C94C9010C94C9010C94C9010C94C90108
:100050000C94C9010C94C9010C94C9010C94C901F8
:100060000C94C9010C94C9010C94C9010C94C901E8
:100070000C94C9010C94C9010C94C9010C94C901D8
:100080000C94C9010C94C9010C94C9010C94C901C8
:100090000C94C9010C94C9010C94C9010C94C901B8
:1000A0000C94C9010C94C9010C94C9010C94C901A8
:1000B0000C94C9010C94C9010C94C9010C94C90198
:1000C0000C94C9010C94C9010C94C90148656C6C6D
:1000D0006F20576F726C64210A0D00AED580A81F87
:1000E000D300408D14A1C8DA02818FD9F1DB40A47E
:1000F000A6AFFF00000000000000000000000000AC
:1001000000000000000000000000000000000000EF
:1001100000000000000000000000000000000000DF
:1001200000000000000000000000000000000000CF
:1001300000000000000000000000000000000000BF
:1001400000000000FE7C388080387CFE000C14002B
:100150000C14140C00140C88CCEECC882266EE66CD
:1001600022387C7C7C382070A8203E0804FE0408DD
:100170002040FE40201010543810103854101080C9
:100180008894A28080A294888040707C7040041C77
:100190007C1C04000000000000009E0000000E0017
:1001A0000E0028FE28FE284852FE5222462610C87D
:1001B000C46C92AA44A0000A0600000038448200E1
:1001C000008244380028107C102810107C10100089
:1001D000A0300000101010101000C0C0000040201F
:1001E0001008047CA2928A7C0084FE800084C2A253
:1001F000928C42828A9662302824FE204E8A8A8A15
:100200007278949292600602E2120E6C9292926C54
:100210000C9292523C006C6C000000AC6C00001020
:100220002844820028282828280082442810040214
:10023000A2120C6492F2827CF8242224F8FE92929C
:10024000926C7C82828244FE82824438FE92929238
:1002500082FE121212027C829292F4FE101010FEA4
:100260000082FE82004080827E02FE10284482FED0
:1002700080808080FE041804FEFE081020FE7C8230
:1002800082827CFE1212120C7C82A242BCFE1232CE
:10029000528C4C929292640202FE02027E80808016
:1002A0007E3E4080403E7E8070807EC6281028C6FC
:1002B0000E10E0100EC2A2928A8600FE8282000416
:1002C00008102040008282FE00080402040880809A
:1002D000808080000204080040A8A8A8F0FE908852
:1002E0008870708888884070888890FE70A8A8A858
:1002F0003010FC12020410A8A8A878FE100808F01C
:100300000090FA80004080887A00FE20508800002B
:1003100082FE8000F808F008F0F8100808F07088F5
:10032000888870F82828281010282830F8F8100835
:10033000081090A8A8A840087E8880407880804057
:10034000F838408040387880608078885020508825
:1003500018A0A0A07888C8A8988800106C82000017
:1003600000FE000000826C100020101020101124EC
:100370001FBECFEFD8E0DEBFCDBF21E0A0E0B1E0EF
:1003800001C01D92A035B207E1F70E94E4010C9470
:100390008E050C940000FC012181622B618308957D
:1003A000FC012281622B62830895FC019281609599
:1003B0006923628308950E94CB0108950E94D001B1
:1003C00008950E94D50108950E941205EC0160E88D
:1003D00075E288EC90E00E94E10440E856E968E9A3
:1003E00070E08CE490E00E945D048CE490E00E9458
:1003F000BE03AE0160E08CEC90E00E941505AE01FA
:1004000060E088EC90E00E943B058CE490E00E9464
:100410003602AE016CE08CE490E00E942C0460E8AF
:1004200086E290E00E94DE0160E886E290E00E94B1
:10043000DB0160E886E290E00E94E1012FEF89E6AF
:1004400098E1215080409040E1F700C0000060E852
:1004500086E290E00E94DE012FEF89E698E12150CC
:1004600080409040E1F700C00000E3CFCF93DF93DE
:10047000EC0160E480E290E00E94D50161E083E25B
:1004800090E00E94D50160EBCE010E94CE0461E0B5
:1004900083E290E00E94D00161E083E290E00E945C
:1004A000D50160E0CE010E94CE0461E083E290E0DD
:1004B0000E94D00161E083E290E00E94D50160E1FA
:1004C000CE010E94CE0461E083E290E00E94D00160
:1004D000DF91CF910895CF93DF93EC0160E480E248
:1004E00090E00E94D50161E083E290E00E94D50196
:1004F00061EBCE010E94CE0461E083E290E00E94B5
:10050000D00161E083E290E00E94D50160E0CE017D
:100510000E94CE0461E083E290E00E94D00161E09D
:1005200083E290E00E94D50160E1CE010E94CE04FA
:1005300061E083E290E00E94D001DF91CF910895C5
:10054000CF93DF93EC0160E480E290E00E94D5015C
:1005500061E083E290E00E94D50162EBCE010E944F
:10056000CE0461E083E290E00E94D00161E083E28A
:1005700090E00E94D50160E0CE010E94CE0461E0CF
:1005800083E290E00E94D00161E083E290E00E946B
:10059000D50160E1CE010E94CE0461E083E290E0EB
:1005A0000E94D001DF91CF910895CF93DF93EC01AA
:1005B00060E480E290E00E94D50161E083E290E097
:1005C0000E94D50163EBCE010E94CE0461E083E27C
:1005D00090E00E94D00161E083E290E00E94D501AA
:1005E00060E0CE010E94CE0461E083E290E00E94D0
:1005F000D00161E083E290E00E94D50160E1CE018C
:100600000E94CE0461E083E290E00E94D001DF917D
:10061000CF910895FF920F931F93CF93DF938C0197
:10062000F62E60E480E290E00E94D001D0E01DC090
:100630008F2D90E0FC01EE0FFF1FEE0FFF1FE80F64
:10064000F91FED0FF11DED50FF4FC49161E083E202
:1006500090E00E94D5016C2FC8010E94CE0461E099
:1006600083E290E00E94D001DF5FD53008F361E0C3
:1006700083E290E00E94D50160E0C8010E94CE04B0
:1006800061E083E290E00E94D001DF91CF911F9161
:100690000F91FF9008951F93CF93DF93EC010E9479
:1006A000360260E480E290E00E94D00110E00FC0CA
:1006B00061E083E290E00E94D50160E0CE010E94FB
:1006C000CE0461E083E290E00E94D0011F5F11231D
:1006D0007CF7CE010E946B0260E480E290E00E9411
:1006E000D00110E00FC061E083E290E00E94D501EC
:1006F00060E0CE010E94CE0461E083E290E00E94BF
:10070000D0011F5F11237CF7CE010E94A00260E49C
:1007100080E290E00E94D00110E00FC061E083E22F
:1007200090E00E94D50160E0CE010E94CE0461E01D
:1007300083E290E00E94D0011F5F11237CF7CE017D
:100740000E94D50260E480E290E00E94D00110E0B7
:100750000FC061E083E290E00E94D50160E0CE012D
:100760000E94CE0461E083E290E00E94D0011F5F0E
:1007700011237CF7DF91CF911F910895EF92FF92A3
:100780000F931F93CF937C0160E889E290E00E9471
:10079000D00160E889E290E00E94CB0160E480E251
:1007A00090E00E94D00160E480E290E00E94CB01E2
:1007B00061E083E290E00E94D00161E083E290E09A
:1007C0000E94CB0160E889E290E00E94D50180E0C0
:1007D00090E001C00196843F21E09207D8F360E8E1
:1007E00089E290E00E94D00160E480E290E00E9403
:1007F000D501EBEDF0E0C49100E010E014C061E041
:1008000083E290E00E94D5016C2FC7010E94CE04C4
:1008100061E083E290E00E94D0010F5F1F4FF8017A
:10082000E552FF4FC491CF3F51F761E083E290E082
:100830000E94D50160E4C7010E94CE0461E083E21A
:1008400090E00E94D001C7010E944B03CF911F91FD
:100850000F91FF90EF900895EF92FF920F931F93E7
:10086000CF93DF937C01062FEA01611115C06881E7
:1008700005C0C7010E940A03219668816111F9CF62
:1008800015C0FE01E10FF11D17FDFA956081C7014A
:100890000E940A031F5F01C010E0202F30E0812F6B
:1008A000012E000C990B821793075CF3DF91CF9117
:1008B0001F910F91FF90EF9008951F93CF93DF93B7
:1008C000EC019A01AB0160E074E284EF90E00E94D9
:1008D0006C05223030F480E5888381E0898310E064
:1008E00036C0233029F480E58883198210E02FC0B8
:1008F0008BEF820F833030F481E5888381E0898338
:1009000010E025C087EF820F873028F481E58883C7
:10091000198210E01CC08FEE820F8F3030F482E518
:10092000888381E0898310E012C08FED820F8F31C0
:1009300028F482E58883198210E009C021542F33FE
:1009400028F483E58883198210E001C01FE0CC34CD
:10095000D10559F460EA83E290E00E94CB0160E89F
:1009600083E290E00E94D50114C0CC3AD10581F415
:1009700060E889E290E00E94CB0168E08CE290E0C0
:100980000E94CB0160E889E290E00E94D50101C09D
:100990001EE0812FDF91CF911F910895FC016283AA
:1009A00090E021819F5F222314F09111FACF9923C7
:1009B00021F026FD04C080E0089580E8089580ECD1
:1009C0000895CF93DF93EC01CB01A0E0B0E0880F56
:1009D000991FAA1FBB1F880F991FAA1FBB1F9C012D
:1009E000AD01220F331F441F551F220F331F441F19
:1009F000551F60E074E284EF90E00E946C05215086
:100A000031093D832C83188286E08A8388E18983BB
:100A1000DF91CF910895FC01908195FFFDCF668312
:100A200080E0089580E091E00895CF93DF93DC01AA
:100A300061111AC0262F30E0FD01E20FF31FE4918F
:100A4000EA01C20FD31FE8836F5FE111F3CF0FC03C
:100A5000292F30E0FD01E20FF31FE491EA01C20FFC
:100A6000D31FE8839F5F01C090E0961788F3862F1D
:100A7000DF91CF910895EF92FF920F931F93CF9341
:100A8000DF937C01062FEA01611115C0688105C062
:100A9000C7010E940B05219668816111F9CF15C02D
:100AA000FE01E10FF11D17FDFA956081C7010E945B
:100AB0000B051F5F01C010E0202F30E0812F012EB9
:100AC000000C990B821793075CF3DF91CF911F9174
:100AD0000F91FF90EF900895A1E21A2EAA1BBB1B65
:100AE000FD010DC0AA1FBB1FEE1FFF1FA217B307FA
:100AF000E407F50720F0A21BB30BE40BF50B661F10
:100B0000771F881F991F1A9469F7609570958095D3
:100B100090959B01AC01BD01CF010895F894FFCFE2
:00000001FF
