S0140000457870365F6578616D706C652E7372656362
S11300000C94C4010C94D6010C94D6010C94D60122
S11300100C94D6010C94D6010C94D6010C94D60100
S11300200C94D6010C949C020C94D6010C94D60129
S11300300C94D6010C94D6010C94D6010C94D601E0
S11300400C94D6010C94D6010C94D6010C94D601D0
S11300500C94D6010C94D6010C94D6010C94D601C0
S11300600C94D6010C94D6010C94D6010C94D601B0
S11300700C94D6010C94D6010C94D6010C94D601A0
S11300800C94D6010C94D6010C94D6010C94D60190
S11300900C94D6010C94D6010C94D6010C94D60180
S11300A00C94D6010C94D6010C94D6010C94D60170
S11300B00C94D6010C94D6010C94D6010C94D60160
S11300C00C94D6010C94D6010C94D601476172723B
S11300D0657474204D61736F6E20262048617272BE
S11300E069736F6E20486573656C62617274680A27
S11300F00D000000AED580A81FD300408D14A1C808
S1130100DA02818FD9F1DB40A4A6AFFF0000000022
S113011000000000000000000000000000000000DB
S113012000000000000000000000000000000000CB
S113013000000000000000000000000000000000BB
S113014000000000000000000000000000000000AB
S113015000000000000000000000000000FE7C38E9
S11301608080387CFE000C14000C14140C00140C59
S113017088CCEECC882266EE6622387C7C7C3820E3
S113018070A8203E0804FE04082040FE4020101001
S11301905438101038541010808894A28080A2948F
S11301A0888040707C7040041C7C1C0400000000AB
S11301B00000009E0000000E000E0028FE28FE280D
S11301C04852FE5222462610C8C46C92AA44A0008B
S11301D00A060000003844820000824438002810D7
S11301E07C102810107C101000A03000001010109B
S11301F0101000C0C0000040201008047CA2928AA5
S11302007C0084FE800084C2A2928C42828A966220
S1130210302824FE204E8A8A8A727894929260064C
S113022002E2120E6C9292926C0C9292523C006C0E
S11302306C000000AC6C00001028448200282828C0
S1130240282800824428100402A2120C6492F2822C
S11302507CF8242224F8FE9292926C7C828282445E
S1130260FE82824438FE92929282FE121212027C24
S1130270829292F4FE101010FE0082FE82004080F2
S1130280827E02FE10284482FE80808080FE041854
S113029004FEFE081020FE7C8282827CFE12121272
S11302A00C7C82A242BCFE1232528C4C929292641A
S11302B00202FE02027E8080807E3E4080403E7EBE
S11302C08070807EC6281028C60E10E0100EC2A2D0
S11302D0928A8600FE8282000408102040008282F6
S11302E0FE00080402040880808080800002040864
S11302F00040A8A8A8F0FE9088887070888888407C
S113030070888890FE70A8A8A83010FC120204100F
S1130310A8A8A878FE100808F00090FA8000408091
S1130320887A00FE205088000082FE8000F808F0E1
S113033008F0F8100808F07088888870F8282828D1
S11303401010282830F8F81008081090A8A8A84021
S1130350087E88804078808040F838408040387833
S113036080608078885020508818A0A0A07888C821
S1130370A8988800106C82000000FE000000826CC7
S1130380100020101020100011241FBECFEFD8E061
S1130390DEBFCDBF21E0A0E0B1E001C01D92A536D3
S11303A0B207E1F70E940C030C9410070C940000B0
S11303B0CF93DF93D82FC82FC77068E083E290E013
S11303C00E94060360E18CE290E00E94060360E86C
S11303D080E290E00E940603D0FF05C060E880E25E
S11303E090E00E940903C1FF05C060E18CE290E047
S11303F00E940903C695C69529F068E083E290E05F
S11304000E940903DF91CF91089510925701109231
S113041058011092590110925A0180935601E1E556
S1130420F1E0138223E230E03183208394E092836D
S1130430E0E6F1E0138220E230E03183208390E1B2
S11304409283EBE5F1E013823183208390E292837F
S1130450A82FB0E020E034E244EF50E00E94F6061A
S113046061507046804F9F4F20E030EA4FE050E0EB
S11304700E94D40621502093B30082E08093700040
S11304808093B00087E08093B10080E00895CF931B
S1130490DF93EC018B8181110AC06A818881998183
S11304A00E94FB02811103C01C8281E08B838B813B
S11304B0813091F49C8180915601890F8C83823321
S11304C058F06A81888199810E94FB02811103C0DE
S11304D082E08B8301C01B828B818230F9F4888196
S11304E099818332910549F42A81243031F4809131
S11304F000018F5F809300010AC0809741F48A81D4
S1130500803129F480910001815080930001809111
S113051000010E94D8011C8284E08B838B8184308B
S113052041F49C8180915601890F8C83823308F0B9
S11305301B82DF91CF9108951F920F920FB60F92F5
S113054011242F933F934F935F936F937F938F93D4
S11305509F93AF93BF93EF93FF93209156018091A4
S1130560570190915801A0915901B0915A01820FFD
S1130570911DA11DB11D8093570190935801A09323
S11305805901B0935A0181E591E00E94470280E647
S113059091E00E9447028BE591E00E944702FF919F
S11305A0EF91BF91AF919F918F917F916F915F91E7
S11305B04F913F912F910F900FBE0F901F90189560
S11305C0FC012181622B61830895FC019181609576
S11305D0692361830895FC012281622B628308955B
S11305E0FC012281622B62830895FC019281609553
S11305F0692362830895FC018081682311F480E0FB
S1130600089581E008950E94E00208950E94F00296
S113061008950E94F50208950E947A06EC0160E8AC
S113062075E288EC90E00E94490640E856E968E9E2
S113063070E08CE490E00E94C5058CE490E00E9498
S11306402605AE0160E08CEC90E00E947D06AE01D0
S113065060E088EC90E00E94A3068CE490E00E94A5
S11306609E03AE016CE08CE490E00E94940560E887
S113067086E290E00E94060360E886E290E00E9431
S1130680030368E083E290E00E94060368E083E2EB
S113069090E00E94030360E18CE290E00E94060374
S11306A060E18CE290E00E94030360E880E290E065
S11306B00E94060360E880E290E00E94030364E085
S11306C083E290E00E94E50264E083E290E00E940D
S11306D0EB0260E180E290E00E94E50260E180E2EA
S11306E090E00E94EB0260E280E290E00E94E5026A
S11306F060E280E290E00E94EB028AE00E94050240
S1130700789460E886E290E00E9409032FEF89E67E
S113071098E1215080409040E1F700C0000060E87B
S113072086E290E00E9406032FEF89E698E12150CB
S113073080409040E1F700C00000E3CFCF93DF9307
S1130740EC0160E480E290E00E94F50261E083E263
S113075090E00E94F50260EBCE010E94360661E053
S113076083E290E00E94F00261E083E290E00E9464
S1130770F50260E0CE010E94360661E083E290E07B
S11307800E94F00261E083E290E00E94F50260E1E1
S1130790CE010E94360661E083E290E00E94F002FE
S11307A0DF91CF910895CF93DF93EC0160E480E271
S11307B090E00E94F50261E083E290E00E94F5027D
S11307C061EBCE010E94360661E083E290E00E9474
S11307D0F00261E083E290E00E94F50260E0CE0165
S11307E00E94360661E083E290E00E94F00261E03C
S11307F083E290E00E94F50260E1CE010E94360699
S113080061E083E290E00E94F002DF91CF910895CD
S1130810CF93DF93EC0160E480E290E00E94F50264
S113082061E083E290E00E94F50262EBCE010E9457
S1130830360661E083E290E00E94F00261E083E228
S113084090E00E94F50260E0CE010E94360661E06D
S113085083E290E00E94F00261E083E290E00E9473
S1130860F50260E1CE010E94360661E083E290E089
S11308700E94F002DF91CF910895CF93DF93EC01B2
S113088060E480E290E00E94F50261E083E290E09F
S11308900E94F50263EBCE010E94360661E083E21A
S11308A090E00E94F00261E083E290E00E94F50291
S11308B060E0CE010E94360661E083E290E00E948F
S11308C0F00261E083E290E00E94F50260E1CE0173
S11308D00E94360661E083E290E00E94F002DF911C
S11308E0CF910895FF920F931F93CF93DF938C01C1
S11308F0F62E60E480E290E00E94F002D0E01DC099
S11309008F2D90E0FC01EE0FFF1FEE0FFF1FE80F8D
S1130910F91FED0FF11DE45FFE4FC49161E083E226
S113092090E00E94F5026C2FC8010E94360661E037
S113093083E290E00E94F002DF5FD53008F361E0CB
S113094083E290E00E94F50260E0C8010E9436064E
S113095061E083E290E00E94F002DF91CF911F9169
S11309600F91FF9008951F93CF93DF93EC010E94A2
S11309709E0360E480E290E00E94F00210E00FC069
S113098061E083E290E00E94F50260E0CE010E9403
S1130990360661E083E290E00E94F0021F5F1123BB
S11309A07CF7CE010E94D30360E480E290E00E94D1
S11309B0F00210E00FC061E083E290E00E94F502D3
S11309C060E0CE010E94360661E083E290E00E947E
S11309D0F0021F5F11237CF7CE010E94080460E43B
S11309E080E290E00E94F00210E00FC061E083E238
S11309F090E00E94F50260E0CE010E94360661E0BC
S1130A0083E290E00E94F0021F5F11237CF7CE0185
S1130A100E943D0460E480E290E00E94F00210E055
S1130A200FC061E083E290E00E94F50260E0CE0135
S1130A300E94360661E083E290E00E94F0021F5FAC
S1130A4011237CF7DF91CF911F910895EF92FF92CC
S1130A500F931F93CF937C0160E889E290E00E949A
S1130A60F00260E889E290E00E94E00260E480E243
S1130A7090E00E94F00260E480E290E00E94E002D4
S1130A8061E083E290E00E94F00261E083E290E0A2
S1130A900E94E00260E889E290E00E94F50280E0B2
S1130AA090E001C00196843F21E09207D8F360E80A
S1130AB089E290E00E94F00260E480E290E00E940B
S1130AC0F502E4EFF0E0C49100E010E014C061E04E
S1130AD083E290E00E94F5026C2FC7010E94360663
S1130AE061E083E290E00E94F0020F5F1F4FF80183
S1130AF0EC50FF4FC491CF3F51F761E083E290E0A7
S1130B000E94F50260E4C7010E94360661E083E2B8
S1130B1090E00E94F002C7010E94B304CF911F919C
S1130B200F91FF90EF900895EF92FF920F931F9310
S1130B30CF93DF937C01062FEA01611115C0688110
S1130B4005C0C7010E947204219668816111F9CF22
S1130B5015C0FE01E10FF11D17FDFA956081C70173
S1130B600E9472041F5F01C010E0202F30E0812F2B
S1130B70012E000C990B821793075CF3DF91CF9140
S1130B801F910F91FF90EF9008951F93CF93DF93E0
S1130B90EC019A01AB0160E074E284EF90E00E9402
S1130BA0D406223030F480E5888381E0898310E024
S1130BB036C0233029F480E58883198210E02FC0E1
S1130BC08BEF820F833030F481E5888381E0898361
S1130BD010E025C087EF820F873028F481E58883F1
S1130BE0198210E01CC08FEE820F8F3030F482E542
S1130BF0888381E0898310E012C08FED820F8F31EA
S1130C0028F482E58883198210E009C021542F3327
S1130C1028F483E58883198210E001C01FE0CC34F6
S1130C20D10559F460EA83E290E00E94E00260E8B2
S1130C3083E290E00E94F50214C0CC3AD10581F41D
S1130C4060E889E290E00E94E00268E08CE290E0D3
S1130C500E94E00260E889E290E00E94F50201C08F
S1130C601EE0812FDF91CF911F910895FC016283D3
S1130C7090E021819F5F222314F09111FACF9923F0
S1130C8021F026FD04C080E0089580E8089580ECFA
S1130C900895CF93DF93EC01CB01A0E0B0E0880F7F
S1130CA0991FAA1FBB1F880F991FAA1FBB1F9C0156
S1130CB0AD01220F331F441F551F220F331F441F42
S1130CC0551F60E074E284EF90E00E94D406215046
S1130CD031093D832C83188286E08A8388E18983E5
S1130CE0DF91CF910895FC01908195FFFDCF66833C
S1130CF080E0089581E091E00895CF93DF93DC01D3
S1130D0061111AC0262F30E0FD01E20FF31FE491B8
S1130D10EA01C20FD31FE8836F5FE111F3CF0FC065
S1130D20292F30E0FD01E20FF31FE491EA01C20F25
S1130D30D31FE8839F5F01C090E0961788F3862F46
S1130D40DF91CF910895EF92FF920F931F93CF936A
S1130D50DF937C01062FEA01611115C0688105C08B
S1130D60C7010E947306219668816111F9CF15C0ED
S1130D70FE01E10FF11D17FDFA956081C7010E9484
S1130D8073061F5F01C010E0202F30E0812F012E79
S1130D90000C990B821793075CF3DF91CF911F919D
S1130DA00F91FF90EF900895A1E21A2EAA1BBB1B8E
S1130DB0FD010DC0AA1FBB1FEE1FFF1FA217B30723
S1130DC0E407F50720F0A21BB30BE40BF50B661F39
S1130DD0771F881F991F1A9469F7609570958095FD
S1130DE090959B01AC01BD01CF0108950E940107BC
S1130DF0A59F900DB49F900DA49F800D911D11246B
S1130E000895A29FB001B39FC001A39F700D811DDF
S1130E101124911DB29F700D811D1124911D0895FF
S1070E20F894FFCF70
S9030000FC
