S00F00006D70335F6170702E7372656365
S11300000C9466000C9470000C9470000C947000B6
S11300100C9470000C9470000C9470000C9470009C
S11300200C9470000C9470000C9470000C9470008C
S11300300C9470000C9470000C9470000C9470007C
S11300400C9470000C9470000C9470000C9470006C
S11300500C9470000C9470000C9470000C9470005C
S11300600C9470000C9470000C9470000C9470004C
S11300700C9470000C9470000C9470000C9470003C
S11300800C9470000C9470000C9470000C9470002C
S11300900C9470000C9470000C9470000C9470001C
S11300A00C9470000C9470000C9470000C9470000C
S11300B00C9470000C9470000C9470000C947000FC
S11300C00C9470000C9470000C94700011241FBEEA
S11300D0CFEFD8E0DEBFCDBF0E947A000C942001A0
S11300E00C940000FC012181622B618308950E941D
S11300F07200089560E886E290E00E94770068E06C
S113010083E290E00E94770060E18CE290E00E943C
S1130110770060E880E290E00E94770040E855E2D2
S113012060E070E088EC90E00E94BB002FEF31EEBD
S113013084E0215030408040E1F700C0000088ECAA
S113014090E00E94F8009FEF21EE34E091502040AF
S11301503040E1F700C00000682F88EC90E00E9476
S1130160F2008FEF91EE24E0815090402040E1F7BF
S113017000C00000DBCFCF93DF93EC01DB01CA01A9
S113018080589B47A14EBF4F880F991FAA1FBB1FC2
S1130190880F991FAA1FBB1F880F991FAA1FBB1F77
S11301A0440F551F661F771F440F551F661F771F87
S11301B09A01AB01220F331F441F551F220F331F17
S11301C0441F551FBC01CD010E94FE00215031097E
S11301D03D832C83188288E1898386E08A83DF91BA
S11301E0CF910895FC0190819923E9F366830895E2
S11301F0FC0190819923E9F386810895A1E21A2EE6
S1130200AA1BBB1BFD010DC0AA1FBB1FEE1FFF1FB6
S1130210A217B307E407F50720F0A21BB30BE40B06
S1130220F50B661F771F881F991F1A9469F760954D
S11302307095809590959B01AC01BD01CF01089507
S1070240F894FFCF5C
S9030000FC
