S00F00006D70335F6170702E7372656365
S11300000C9499000C94B6000C94B6000C94B600B1
S11300100C94B6000C94B6000C94B6000C94B60084
S11300200C94B6000C94B6000C94B6000C94B60074
S11300300C94B6000C94B6000C94B6000C94B60064
S11300400C94B6000C94B6000C94B6000C94B60054
S11300500C94B6000C94B6000C94B6000C94B60044
S11300600C94B6000C94B6000C94B6000C94B60034
S11300700C94B6000C94B6000C94B6000C94B60024
S11300800C94B6000C94B6000C94B6000C94B60014
S11300900C94B6000C94B6000C94B6000C94B60004
S11300A00C94B6000C94B6000C94B6000C94B600F4
S11300B00C94B6000C94B6000C94B6000C94B600E4
S11300C00C94B6000C94B6000C94B600476172729E
S11300D0657474204D61736F6E20262048617272BE
S11300E069736F6E20486573656C62617274680A27
S11300F000416464722E204F66667365742020206C
S1130100302020312020322020332020342020357C
S1130110202036202037202038202039202041205C
S113012020422020432020442020452020460A0D40
S1130130000011241FBECFEFD8E0DEBFCDBF11E019
S1130140A0E0B1E0E0E3FBE002C005900D92A8312D
S1130150B107D9F721E0A8E1B1E001C01D92A836AA
S1130160B207E1F70E94D2000C9496050C940000AB
S1130170FC0191816095692361830895FC012181CB
S1130180622B61830895FC019181609569236183E9
S113019008950E94B80008950E94C30008950E9423
S11301A0BE00089560E886E290E00E94C90068E01D
S11301B083E290E00E94C90060E18CE290E00E943A
S11301C0C90060E880E290E00E94C90040E855E27E
S11301D060E070E088EC90E00E94F3010E9430023D
S11301E0EC01AC0160E08CEC90E00E943302AE01C3
S11301F060E088EC90E00E94590240910001509127
S1130200010165E270E088EC90E00E94C60160E8BC
S113021070E086E290E00E94CF0068E070E083E244
S113022090E00E94CF0060E170E08CE290E00E94D8
S1130230CF0060E870E080E290E00E94CF002FEFF2
S113024083ED90E3215080409040E1F700C000002E
S113025060E870E086E290E00E94CC0068E070E024
S113026083E290E00E94CC0060E170E08CE290E0D8
S11302700E94CC0060E870E080E290E00E94CC0034
S11302802FEF83ED90E3215080409040E1F700C0D0
S11302900000BDCFAF92BF92DF92EF92FF920F9317
S11302A01F93CF93DF938C017B015A010E9430028C
S11302B0D82ED92FEA0CFB1CFF92EF9282E091E03A
S11302C09F938F93DF93DF920E94AC024D2D5D2F9D
S11302D060E0C8010E945902BF92AF9286E091E0AB
S11302E09F938F93DF93DF920E94AC024D2D5D2F7D
S11302F060E0C8010E9459028DB79EB70C960FB6F4
S1130300F8949EBF0FBE8DBFC0E01BC0F701EC0F79
S1130310F11D80811F928F9380E191E09F938F93D1
S1130320DF93DF920E94AC024D2D5D2F60E0C80187
S11303300E945902CF5F0F900F900F900F900F9073
S11303400F90C03118F3C0E00DC0F701EC0FF11DA0
S1130350608180EE860F803608F06EE2C8010E944C
S11303602A02CF5FC03188F36DE0C8010E942A02DF
S11303706AE0C8010E942A02DF91CF911F910F9178
S1130380FF90EF90DF90BF90AF900895CF92DF92EF
S1130390EF92FF920F931F93CF93DF938C016B0126
S11303A07A010E943002EC01AC0160E081EF90E040
S11303B00E943302AE0160E0C8010E945902C0E00D
S11303C0D0E0AE01B701C8010E944A016096CC1585
S11303D0DD05B8F3DF91CF911F910F91FF90EF905E
S11303E0DF90CF900895CF93DF93EC01DB01CA0136
S11303F080589B47A14EBF4F880F991FAA1FBB1F50
S1130400880F991FAA1FBB1F880F991FAA1FBB1F04
S1130410440F551F661F771F440F551F661F771F14
S11304209A01AB01220F331F441F551F220F331FA4
S1130430441F551FBC01CD010E948A02215031097D
S11304403D832C83188288E1898386E08A83DF9147
S1130450CF910895FC01908195FFFDCF66830895A7
S113046088E191E00895CF93DF93DC0161111AC014
S1130470262F30E0FD01E20FF31FE491EA01C20FE1
S1130480D31FE8836F5FE111F3CF0FC0292F30E052
S1130490FD01E20FF31FE491EA01C20FD31FE883C9
S11304A09F5F01C090E0961788F3862FDF91CF916C
S11304B00895EF92FF920F931F93CF93DF937C01E4
S11304C0062FEA01611115C0688105C0C7010E94A9
S11304D02A02219668816111F9CF15C0FE01E10F4E
S11304E0F11D17FDFA956081C7010E942A021F5F62
S11304F001C010E0202F30E0812F012E000C990B59
S1130500821793075CF3DF91CF911F910F91FF90B6
S1130510EF900895A1E21A2EAA1BBB1BFD010DC08A
S1130520AA1FBB1FEE1FFF1FA217B307E407F5079F
S113053020F0A21BB30BE40BF50B661F771F881F7B
S1130540991F1A9469F760957095809590959B0111
S1130550AC01BD01CF010895AEE0B0E0E2EBF2E002
S11305600C946D050D891E8986E08C831A8309839A
S11305708FEF9FE79E838D83AE01475E5F4F6F8948
S1130580788DCE0101960E94CE02EF81F885E00FAE
S1130590F11F10822E96E4E00C948905ABE0B0E0E4
S11305A0E4EDF2E00C945F056C017B018A01FC012F
S11305B017821682838181FFCCC1CE0101963C0152
S11305C0F6019381F70193FD859193FF81917F015A
S11305D0882309F4BAC1853239F493FD859193FFD8
S11305E081917F01853229F4B60190E00E94C5040F
S11305F0E7CF912C212C312CFFE1F315D8F08B326D
S113060079F038F4803279F08332A1F4232D20611B
S11306101DC08D3261F0803369F4232D216016C032
S1130620832D8260382EE32DE4603E2E2AC0F32D04
S1130630F8601DC037FC2DC020ED280F2A3040F093
S11306408E32B9F436FC81C1232D2064322E19C0B8
S113065036FE06C08AE0989E200D1124922E11C009
S1130660EAE02E9E200D1124222EF32DF0623F2E5F
S113067008C08C3621F4832D8068382E02C0883659
S113068041F4F70193FD859193FF81917F018111DD
S1130690B3CF982F9F7D9554933028F40C5F1F4F50
S11306A09FE399830DC0833631F0833771F083352E
S11306B009F059C021C0F801808189830E5F1F4F62
S11306C088248394912C530113C02801F2E04F0E27
S11306D0511CF801A080B18036FE03C0692D70E082
S11306E002C06FEF7FEFC5010E94BA044C01820182
S11306F0F32DFF773F2E16C0280122E0420E511C35
S1130700F801A080B18036FE03C0692D70E002C0FC
S11307106FEF7FEFC5010E94AF044C01F32DF06829
S11307203F2E820133FC1BC0822D90E0881699066F
S1130730B0F4B60180E290E00E94C5042A94F4CF9C
S1130740F50137FC859137FE81915F01B60190E098
S11307500E94C50421102A9421E0821A9108811470
S1130760910471F7E8C0843611F0893641F5F80137
S113077037FE07C060817181828193810C5F1F4FB6
S113078008C060817181072E000C880B990B0E5FE5
S11307901F4FF32DFF763F2E97FF09C0909580954C
S11307A0709561957F4F8F4F9F4FF0683F2E2AE0E1
S11307B030E0A3010E940105882E861845C08537C4
S11307C031F4232D2F7EB22E2AE030E025C0932D64
S11307D0997FB92E8F36C1F018F4883579F0B5C0F9
S11307E0803719F0883721F0B0C0E92FE061BE2EC0
S11307F0B4FE0DC0FB2DF460BF2E09C034FE0AC048
S1130800292F2660B22E06C028E030E005C020E182
S113081030E002C020E132E0F801B7FE07C0608199
S11308207181828193810C5F1F4F06C06081718149
S113083080E090E00E5F1F4FA3010E940105882E07
S11308408618FB2DFF773F2E36FE0DC0232D2E7FFD
S1130850A22E891458F434FE0BC032FC09C0832D37
S11308608E7EA82E05C0B82CA32C03C0B82C01C0C2
S1130870B92CA4FE0FC0FE01E80DF11D8081803368
S113088021F49A2D997EA92E09C0A2FE06C0B39424
S1130890B39404C08A2D867809F0B394A3FC11C0E4
S11308A0A0FE06C0B21488F4280C922C9B180EC02B
S11308B0B21460F4B60180E290E00E94C504B394DF
S11308C0F7CFB21418F42B1802C0982C212CA4FED4
S11308D010C0B60180E390E00E94C504A2FE17C0D8
S11308E0A1FC03C088E790E002C088E590E0B6016F
S11308F00CC08A2D867859F0A1FE02C08BE201C09B
S113090080E2A7FC8DE2B60190E00E94C504891440
S113091038F4B60180E390E00E94C5049A94F7CFBE
S11309208A94F301E80DF11D8081B60190E00E94E4
S1130930C5048110F5CF222009F442CEB60180E22D
S113094090E00E94C5042A94F6CFF601868197812F
S113095002C08FEF9FEF2B96E2E10C947B05FC0124
S11309600590615070400110D8F7809590958E0FD6
S11309709F1F0895FC016150704001900110D8F749
S1130980809590958E0F9F1F08950F931F93CF937B
S1130990DF93FB01238121FD03C08FEF9FEF2CC068
S11309A022FF16C04681578124813581421753079F
S11309B044F4A081B1819D012F5F3F4F3183208397
S11309C08C93268137812F5F3F4F3783268314C052
S11309D08B01EC01FB010084F185E02D0995892B45
S11309E0E1F6D80116968D919C911797019617966A
S11309F09C938E931697CE01DF91CF911F910F9107
S1130A000895FA01AA27283051F1203181F1E894A0
S1130A106F936E7F6E5F7F4F8F4F9F4FAF4FB1E0ED
S1130A203ED0B4E03CD0670F781F891F9A1FA11DE8
S1130A30680F791F8A1F911DA11D6A0F711D811DE9
S1130A40911DA11D20D009F468943F912AE0269FAE
S1130A5011243019305D3193DEF6CF010895462F0D
S1130A604770405D4193B3E00FD0C9F7F6CF462FEE
S1130A704F70405D4A3318F0495D31FD4052419357
S1130A8002D0A9F7EACFB4E0A69597958795779514
S1130A906795BA95C9F700976105710508959B019B
S1130AA0AC010A2E06945795479537952795BA9524
S1130AB0C9F7620F731F841F951FA01D08952F92FD
S1130AC03F924F925F926F927F928F929F92AF92DA
S1130AD0BF92CF92DF92EF92FF920F931F93CF9327
S1130AE0DF93CDB7DEB7CA1BDB0B0FB6F894DEBFBE
S1130AF00FBECDBF09942A88398848885F846E84E4
S1130B007D848C849B84AA84B984C884DF80EE802D
S1130B10FD800C811B81AA81B981CE0FD11D0FB636
S1130B20F894DEBF0FBECDBFED010895F894FFCF5A
S1130B30CC0025702000307825342E345820200035
S10B0B4025322E32582000007A
S9030000FC
